{
  "address": "0x91c280448b1a8530ce1c3B9F1D4cb4E8e8FC32Dd",
  "abi": [
    {
      "anonymous": false,
      "inputs": [
        {
          "indexed": true,
          "internalType": "uint256",
          "name": "projectId",
          "type": "uint256"
        },
        {
          "indexed": true,
          "internalType": "address",
          "name": "creator",
          "type": "address"
        },
        {
          "indexed": false,
          "internalType": "uint256",
          "name": "editionSize",
          "type": "uint256"
        },
        {
          "indexed": false,
          "internalType": "address",
          "name": "project",
          "type": "address"
        },
        {
          "indexed": false,
          "internalType": "uint8",
          "name": "implementation",
          "type": "uint8"
        }
      ],
      "name": "CreatedProject",
      "type": "event"
    },
    {
      "anonymous": false,
      "inputs": [
        {
          "components": [
            {
              "internalType": "address",
              "name": "id",
              "type": "address"
            },
            {
              "internalType": "bool",
              "name": "approval",
              "type": "bool"
            }
          ],
          "indexed": false,
          "internalType": "struct ProjectCreator.creatorApproval[]",
          "name": "creators",
          "type": "tuple[]"
        }
      ],
      "name": "CreatorApprovalsUpdated",
      "type": "event"
    },
    {
      "anonymous": false,
      "inputs": [
        {
          "indexed": true,
          "internalType": "address",
          "name": "implementationContractAddress",
          "type": "address"
        },
        {
          "indexed": false,
          "internalType": "uint8",
          "name": "implementation",
          "type": "uint8"
        }
      ],
      "name": "ImplemnetationAdded",
      "type": "event"
    },
    {
      "anonymous": false,
      "inputs": [
        {
          "indexed": true,
          "internalType": "address",
          "name": "previousOwner",
          "type": "address"
        },
        {
          "indexed": true,
          "internalType": "address",
          "name": "newOwner",
          "type": "address"
        }
      ],
      "name": "OwnershipTransferred",
      "type": "event"
    },
    {
      "inputs": [
        {
          "internalType": "address",
          "name": "implementation",
          "type": "address"
        }
      ],
      "name": "addImplementation",
      "outputs": [
        {
          "internalType": "uint256",
          "name": "",
          "type": "uint256"
        }
      ],
      "stateMutability": "nonpayable",
      "type": "function"
    },
    {
      "inputs": [
        {
          "components": [
            {
              "internalType": "string",
              "name": "name",
              "type": "string"
            },
            {
              "internalType": "string",
              "name": "symbol",
              "type": "string"
            },
            {
              "internalType": "string",
              "name": "description",
              "type": "string"
            },
            {
              "components": [
                {
                  "components": [
                    {
                      "internalType": "string",
                      "name": "url",
                      "type": "string"
                    },
                    {
                      "internalType": "bytes32",
                      "name": "sha256hash",
                      "type": "bytes32"
                    }
                  ],
                  "internalType": "struct Versions.UrlHashPair[]",
                  "name": "urls",
                  "type": "tuple[]"
                },
                {
                  "internalType": "uint8[3]",
                  "name": "label",
                  "type": "uint8[3]"
                }
              ],
              "internalType": "struct Versions.Version",
              "name": "version",
              "type": "tuple"
            },
            {
              "internalType": "uint256",
              "name": "editionSize",
              "type": "uint256"
            },
            {
              "internalType": "uint256",
              "name": "royaltyBPS",
              "type": "uint256"
            }
          ],
          "internalType": "struct ProjectCreator.ProjectData",
          "name": "projectData",
          "type": "tuple"
        },
        {
          "internalType": "uint8",
          "name": "implementation",
          "type": "uint8"
        }
      ],
      "name": "createProject",
      "outputs": [
        {
          "internalType": "uint256",
          "name": "",
          "type": "uint256"
        }
      ],
      "stateMutability": "nonpayable",
      "type": "function"
    },
    {
      "inputs": [
        {
          "internalType": "uint256",
          "name": "projectId",
          "type": "uint256"
        },
        {
          "internalType": "uint8",
          "name": "implementation",
          "type": "uint8"
        }
      ],
      "name": "getProjectAtId",
      "outputs": [
        {
          "internalType": "address",
          "name": "",
          "type": "address"
        }
      ],
      "stateMutability": "view",
      "type": "function"
    },
    {
      "inputs": [
        {
          "internalType": "uint256",
          "name": "",
          "type": "uint256"
        }
      ],
      "name": "implementations",
      "outputs": [
        {
          "internalType": "address",
          "name": "",
          "type": "address"
        }
      ],
      "stateMutability": "view",
      "type": "function"
    },
    {
      "inputs": [
        {
          "internalType": "address[]",
          "name": "_implementations",
          "type": "address[]"
        }
      ],
      "name": "initialize",
      "outputs": [],
      "stateMutability": "nonpayable",
      "type": "function"
    },
    {
      "inputs": [],
      "name": "owner",
      "outputs": [
        {
          "internalType": "address",
          "name": "",
          "type": "address"
        }
      ],
      "stateMutability": "view",
      "type": "function"
    },
    {
      "inputs": [],
      "name": "renounceOwnership",
      "outputs": [],
      "stateMutability": "nonpayable",
      "type": "function"
    },
    {
      "inputs": [
        {
          "components": [
            {
              "internalType": "address",
              "name": "id",
              "type": "address"
            },
            {
              "internalType": "bool",
              "name": "approval",
              "type": "bool"
            }
          ],
          "internalType": "struct ProjectCreator.creatorApproval[]",
          "name": "creators",
          "type": "tuple[]"
        }
      ],
      "name": "setCreatorApprovals",
      "outputs": [],
      "stateMutability": "nonpayable",
      "type": "function"
    },
    {
      "inputs": [
        {
          "internalType": "address",
          "name": "newOwner",
          "type": "address"
        }
      ],
      "name": "transferOwnership",
      "outputs": [],
      "stateMutability": "nonpayable",
      "type": "function"
    }
  ],
  "transactionHash": "0x1fec69e8f9f49bb358a8afa521c44515922a9cc7d8dcd7bfd9a4757e60e3b706",
  "args": [],
  "solcInputHash": "f1085c5b85cb82252ad324af67a4fa4d",
  "bytecode": "0x608060405234801561001057600080fd5b5061135e806100206000396000f3fe608060405234801561001057600080fd5b50600436106100835760003560e01c80633922fe501461008857806362ad2705146100b8578063715018a6146100cd578063845affc8146100d55780638da5cb5b146100e8578063a224cee7146100f0578063a34bda4d14610103578063c6e2a40014610124578063f2fde38b14610137575b600080fd5b61009b610096366004610f68565b61014a565b6040516001600160a01b0390911681526020015b60405180910390f35b6100cb6100c6366004610d8e565b610205565b005b6100cb6102fd565b61009b6100e3366004610f4f565b610338565b61009b610362565b6100cb6100fe366004610cf0565b610371565b610116610111366004610e50565b610491565b6040519081526020016100af565b610116610132366004610cd5565b6106f0565b6100cb610145366004610cd5565b6107e1565b60006101fc60678360ff1681548110610165576101656112fc565b600091825260209182902001546040805180840188905281518082039094018452810190526001600160a01b03169061019d90611284565b30604051733d602d80600a3d3981f3363d3d373d3d3d363d7360601b8152606093841b60148201526f5af43d82803e903d91602b57fd5bf3ff60801b6028820152921b6038830152604c8201526037808220606c830152605591012090565b90505b92915050565b3361020e610362565b6001600160a01b03161461023d5760405162461bcd60e51b81526004016102349061119b565b60405180910390fd5b60005b81518110156102c25781818151811061025b5761025b6112fc565b6020026020010151602001516065600084848151811061027d5761027d6112fc565b602090810291909101810151516001600160a01b03168252810191909152604001600020805460ff1916911515919091179055806102ba816112ab565b915050610240565b507f925382464b1217f3ef37d73d9d6cc7cb9b15ac584659265066e9d70c32915926816040516102f291906110f3565b60405180910390a150565b33610306610362565b6001600160a01b03161461032c5760405162461bcd60e51b81526004016102349061119b565b6103366000610881565b565b6067818154811061034857600080fd5b6000918252602090912001546001600160a01b0316905081565b6033546001600160a01b031690565b600054610100900460ff168061038a575060005460ff16155b6103a65760405162461bcd60e51b81526004016102349061114d565b600054610100900460ff161580156103c8576000805461ffff19166101011790555b60005b82518160ff161015610458576067838260ff16815181106103ee576103ee6112fc565b602090810291909101810151825460018101845560009384528284200180546001600160a01b0319166001600160a01b0390921691909117905560408051808301825283815260ff8516845260669092529091209051905580610450816112c6565b9150506103cb565b506104616108d3565b336000908152606560205260409020805460ff19166001179055801561048d576000805461ff00191690555b5050565b600080805260656020527fffdfc1249c027f9191656349feb0761381bb32c9f557e01f419fd08754bf5a1b5460ff16806104da57503360009081526065602052604090205460ff165b61053d5760405162461bcd60e51b815260206004820152602e60248201527f4f6e6c7920617070726f7665642063726561746f72732063616e2063616c6c2060448201526d3a3434b990333ab731ba34b7b71760911b6064820152608401610234565b60675460ff8316106105915760405162461bcd60e51b815260206004820152601d60248201527f696d706c656d656e746174696f6e20646f6573206e6f742065786973740000006044820152606401610234565b60ff82166000818152606660205260408120546067805491936105f99281106105bc576105bc6112fc565b600091825260209182902001546040805180840187905281518082039094018452810190526001600160a01b0316906105f490611284565b61094e565b9050806001600160a01b03166313d2de32338760000151886020015189604001518a606001518b608001518c60a001516040518863ffffffff1660e01b815260040161064b9796959493929190611004565b600060405180830381600087803b15801561066557600080fd5b505af1158015610679573d6000803e3d6000fd5b505050506080850151604080519182526001600160a01b038316602083015260ff86168282015251339184917f7a938c735832c3f3357e2f3f107c4bf632b92eb414b872ab1cbf8e53be5f41f59181900360600190a360ff8416600090815260666020526040902080546001019055509392505050565b6000336106fb610362565b6001600160a01b0316146107215760405162461bcd60e51b81526004016102349061119b565b604080516020808201835260008083526067805460ff16825260669092529283209151909155805460018082018355928290527f9787eeb91fe3101235e4a76063c7023ecb40f923f97916639c598592fa30d6ae0180546001600160a01b0319166001600160a01b038616908117909155905490917f95546fd920b865e62727445387bac34d14a95020d23f5246361fda7a7e41a536916107c2919061126d565b60405160ff909116815260200160405180910390a2506067545b919050565b336107ea610362565b6001600160a01b0316146108105760405162461bcd60e51b81526004016102349061119b565b6001600160a01b0381166108755760405162461bcd60e51b815260206004820152602660248201527f4f776e61626c653a206e6577206f776e657220697320746865207a65726f206160448201526564647265737360d01b6064820152608401610234565b61087e81610881565b50565b603380546001600160a01b038381166001600160a01b0319831681179093556040519116919082907f8be0079c531659141344cd1fd0a4f28419497f9722a3daafe3b4186f6b6457e090600090a35050565b600054610100900460ff16806108ec575060005460ff16155b6109085760405162461bcd60e51b81526004016102349061114d565b600054610100900460ff1615801561092a576000805461ffff19166101011790555b6109326109e8565b61093a610a52565b801561087e576000805461ff001916905550565b6000604051733d602d80600a3d3981f3363d3d373d3d3d363d7360601b81528360601b60148201526e5af43d82803e903d91602b57fd5bf360881b6028820152826037826000f59150506001600160a01b0381166101ff5760405162461bcd60e51b8152602060048201526017602482015276115490cc4c4d8dce8818dc99585d194c8819985a5b1959604a1b6044820152606401610234565b600054610100900460ff1680610a01575060005460ff16155b610a1d5760405162461bcd60e51b81526004016102349061114d565b600054610100900460ff1615801561093a576000805461ffff1916610101179055801561087e576000805461ff001916905550565b600054610100900460ff1680610a6b575060005460ff16155b610a875760405162461bcd60e51b81526004016102349061114d565b600054610100900460ff16158015610aa9576000805461ffff19166101011790555b61093a33610881565b80356001600160a01b03811681146107dc57600080fd5b600082601f830112610ada57600080fd5b604051606081018181106001600160401b0382111715610afc57610afc611312565b604052808360608101861015610b1157600080fd5b60005b6003811015610b3b57610b2682610cc4565b83526020928301929190910190600101610b14565b509195945050505050565b600082601f830112610b5757600080fd5b81356001600160401b03811115610b7057610b70611312565b610b83601f8201601f191660200161121a565b818152846020838601011115610b9857600080fd5b816020850160208301376000918101602001919091529392505050565b600060808284031215610bc757600080fd5b610bcf6111d0565b905081356001600160401b0380821115610be857600080fd5b818401915084601f830112610bfc57600080fd5b81356020610c11610c0c8361124a565b61121a565b80838252828201915082860189848660051b8901011115610c3157600080fd5b60005b85811015610ca557813587811115610c4b57600080fd5b88016040818d03601f1901811315610c6257600080fd5b610c6a6111d0565b878301358a811115610c7b57600080fd5b610c898f8a83870101610b46565b8252509101358682015284529284019290840190600101610c34565b5050865250610cb687878301610ac9565b818601525050505092915050565b803560ff811681146107dc57600080fd5b600060208284031215610ce757600080fd5b6101fc82610ab2565b60006020808385031215610d0357600080fd5b82356001600160401b03811115610d1957600080fd5b8301601f81018513610d2a57600080fd5b8035610d38610c0c8261124a565b80828252848201915084840188868560051b8701011115610d5857600080fd5b600094505b83851015610d8257610d6e81610ab2565b835260019490940193918501918501610d5d565b50979650505050505050565b60006020808385031215610da157600080fd5b82356001600160401b03811115610db757600080fd5b8301601f81018513610dc857600080fd5b8035610dd6610c0c8261124a565b80828252848201915084840188868560061b8701011115610df657600080fd5b600094505b83851015610d8257604080828b031215610e1457600080fd5b610e1c6111d0565b610e2583610ab2565b8152878301358015158114610e3957600080fd5b818901528452600195909501949286019201610dfb565b60008060408385031215610e6357600080fd5b82356001600160401b0380821115610e7a57600080fd5b9084019060c08287031215610e8e57600080fd5b610e966111f8565b823582811115610ea557600080fd5b610eb188828601610b46565b825250602083013582811115610ec657600080fd5b610ed288828601610b46565b602083015250604083013582811115610eea57600080fd5b610ef688828601610b46565b604083015250606083013582811115610f0e57600080fd5b610f1a88828601610bb5565b6060830152506080830135608082015260a083013560a0820152809450505050610f4660208401610cc4565b90509250929050565b600060208284031215610f6157600080fd5b5035919050565b60008060408385031215610f7b57600080fd5b82359150610f4660208401610cc4565b8060005b6003811015610fb157815160ff16845260209384019390910190600101610f8f565b50505050565b6000815180845260005b81811015610fdd57602081850181015186830182015201610fc1565b81811115610fef576000602083870101525b50601f01601f19169290920160200192915050565b6001600160a01b038816815260e060208083018290526000916110299084018a610fb7565b60408482038186015261103c828b610fb7565b91508482036060860152611050828a610fb7565b915084820360808601526080820188516080845281815180845260a08601915060a08160051b8701019350868301925060005b818110156110c457868503609f19018352835180518787526110a788880182610fb7565b918a0151968a019690965294509287019291870191600101611083565b505050508389015191506110da84840183610f8b565b60a08601979097525050505060c0015295945050505050565b602080825282518282018190526000919060409081850190868401855b8281101561114057815180516001600160a01b031685528601511515868501529284019290850190600101611110565b5091979650505050505050565b6020808252602e908201527f496e697469616c697a61626c653a20636f6e747261637420697320616c72656160408201526d191e481a5b9a5d1a585b1a5e995960921b606082015260800190565b6020808252818101527f4f776e61626c653a2063616c6c6572206973206e6f7420746865206f776e6572604082015260600190565b604080519081016001600160401b03811182821017156111f2576111f2611312565b60405290565b60405160c081016001600160401b03811182821017156111f2576111f2611312565b604051601f8201601f191681016001600160401b038111828210171561124257611242611312565b604052919050565b60006001600160401b0382111561126357611263611312565b5060051b60200190565b60008282101561127f5761127f6112e6565b500390565b805160208083015191908110156112a5576000198160200360031b1b821691505b50919050565b60006000198214156112bf576112bf6112e6565b5060010190565b600060ff821660ff8114156112dd576112dd6112e6565b60010192915050565b634e487b7160e01b600052601160045260246000fd5b634e487b7160e01b600052603260045260246000fd5b634e487b7160e01b600052604160045260246000fdfea2646970667358221220dac65e6a650617f72a951974d9f1b68b10c622676ca5b2ec968f0eb10bffbe2664736f6c63430008060033",
  "devdoc": {
    "events": {
      "CreatedProject(uint256,address,uint256,address,uint8)": {
        "params": {
          "projectId": "ID of newly created edition"
        }
      }
    },
    "kind": "dev",
    "methods": {
      "createProject((string,string,string,((string,bytes32)[],uint8[3]),uint256,uint256),uint8)": {
        "params": {
          "implementation": "Implementation of the project contract",
          "projectData": "the data of the of the project being created"
        }
      },
      "getProjectAtId(uint256,uint8)": {
        "params": {
          "projectId": "id of the project to get"
        },
        "returns": {
          "_0": "project the contract of the project"
        }
      },
      "initialize(address[])": {
        "params": {
          "_implementations": "Array of addresse for implementations of SingleEditionMintable like contracts to clone"
        }
      },
      "owner()": {
        "details": "Returns the address of the current owner."
      },
      "renounceOwnership()": {
        "details": "Leaves the contract without owner. It will not be possible to call `onlyOwner` functions anymore. Can only be called by the current owner. NOTE: Renouncing ownership will leave the contract without an owner, thereby removing any functionality that is only available to the owner."
      },
      "transferOwnership(address)": {
        "details": "Transfers ownership of the contract to a new account (`newOwner`). Can only be called by the current owner."
      }
    },
    "version": 1
  },
  "userdoc": {
    "events": {
      "CreatedProject(uint256,address,uint256,address,uint8)": {
        "notice": "Emitted when a project is created reserving the corresponding token IDs."
      }
    },
    "kind": "user",
    "methods": {
      "createProject((string,string,string,((string,bytes32)[],uint8[3]),uint256,uint256),uint8)": {
        "notice": "Creates a new edition contract as a factory with a deterministic address"
      },
      "getProjectAtId(uint256,uint8)": {
        "notice": "Get project given the created ID"
      },
      "implementations(uint256)": {
        "notice": "Address for implementation of SingleEditionMintable to clone"
      },
      "initialize(address[])": {
        "notice": "Initializes factory with address of implementations logic"
      }
    },
    "version": 1
  },
  "storageLayout": {
    "storage": [
      {
        "astId": 232,
        "contract": "contracts/ProjectCreator.sol:ProjectCreator",
        "label": "_initialized",
        "offset": 0,
        "slot": "0",
        "type": "t_bool"
      },
      {
        "astId": 235,
        "contract": "contracts/ProjectCreator.sol:ProjectCreator",
        "label": "_initializing",
        "offset": 1,
        "slot": "0",
        "type": "t_bool"
      },
      {
        "astId": 1567,
        "contract": "contracts/ProjectCreator.sol:ProjectCreator",
        "label": "__gap",
        "offset": 0,
        "slot": "1",
        "type": "t_array(t_uint256)50_storage"
      },
      {
        "astId": 10,
        "contract": "contracts/ProjectCreator.sol:ProjectCreator",
        "label": "_owner",
        "offset": 0,
        "slot": "51",
        "type": "t_address"
      },
      {
        "astId": 123,
        "contract": "contracts/ProjectCreator.sol:ProjectCreator",
        "label": "__gap",
        "offset": 0,
        "slot": "52",
        "type": "t_array(t_uint256)49_storage"
      },
      {
        "astId": 2063,
        "contract": "contracts/ProjectCreator.sol:ProjectCreator",
        "label": "creatorApprovals",
        "offset": 0,
        "slot": "101",
        "type": "t_mapping(t_address,t_bool)"
      },
      {
        "astId": 2069,
        "contract": "contracts/ProjectCreator.sol:ProjectCreator",
        "label": "atContracts",
        "offset": 0,
        "slot": "102",
        "type": "t_mapping(t_uint8,t_struct(Counter)1574_storage)"
      },
      {
        "astId": 2073,
        "contract": "contracts/ProjectCreator.sol:ProjectCreator",
        "label": "implementations",
        "offset": 0,
        "slot": "103",
        "type": "t_array(t_address)dyn_storage"
      }
    ],
    "types": {
      "t_address": {
        "encoding": "inplace",
        "label": "address",
        "numberOfBytes": "20"
      },
      "t_array(t_address)dyn_storage": {
        "base": "t_address",
        "encoding": "dynamic_array",
        "label": "address[]",
        "numberOfBytes": "32"
      },
      "t_array(t_uint256)49_storage": {
        "base": "t_uint256",
        "encoding": "inplace",
        "label": "uint256[49]",
        "numberOfBytes": "1568"
      },
      "t_array(t_uint256)50_storage": {
        "base": "t_uint256",
        "encoding": "inplace",
        "label": "uint256[50]",
        "numberOfBytes": "1600"
      },
      "t_bool": {
        "encoding": "inplace",
        "label": "bool",
        "numberOfBytes": "1"
      },
      "t_mapping(t_address,t_bool)": {
        "encoding": "mapping",
        "key": "t_address",
        "label": "mapping(address => bool)",
        "numberOfBytes": "32",
        "value": "t_bool"
      },
      "t_mapping(t_uint8,t_struct(Counter)1574_storage)": {
        "encoding": "mapping",
        "key": "t_uint8",
        "label": "mapping(uint8 => struct CountersUpgradeable.Counter)",
        "numberOfBytes": "32",
        "value": "t_struct(Counter)1574_storage"
      },
      "t_struct(Counter)1574_storage": {
        "encoding": "inplace",
        "label": "struct CountersUpgradeable.Counter",
        "members": [
          {
            "astId": 1573,
            "contract": "contracts/ProjectCreator.sol:ProjectCreator",
            "label": "_value",
            "offset": 0,
            "slot": "0",
            "type": "t_uint256"
          }
        ],
        "numberOfBytes": "32"
      },
      "t_uint256": {
        "encoding": "inplace",
        "label": "uint256",
        "numberOfBytes": "32"
      },
      "t_uint8": {
        "encoding": "inplace",
        "label": "uint8",
        "numberOfBytes": "1"
      }
    }
  }
}