{
  "address": "0xD68FFD0b6D54EB86A083eA167aF1c9e504075fCd",
  "abi": [
    {
      "inputs": [
        {
          "internalType": "contract SharedNFTLogic",
          "name": "_sharedNFTLogic",
          "type": "address"
        }
      ],
      "stateMutability": "nonpayable",
      "type": "constructor"
    },
    {
      "anonymous": false,
      "inputs": [
        {
          "indexed": true,
          "internalType": "address",
          "name": "owner",
          "type": "address"
        },
        {
          "indexed": true,
          "internalType": "address",
          "name": "approved",
          "type": "address"
        },
        {
          "indexed": true,
          "internalType": "uint256",
          "name": "tokenId",
          "type": "uint256"
        }
      ],
      "name": "Approval",
      "type": "event"
    },
    {
      "anonymous": false,
      "inputs": [
        {
          "indexed": true,
          "internalType": "address",
          "name": "owner",
          "type": "address"
        },
        {
          "indexed": true,
          "internalType": "address",
          "name": "operator",
          "type": "address"
        },
        {
          "indexed": false,
          "internalType": "bool",
          "name": "approved",
          "type": "bool"
        }
      ],
      "name": "ApprovalForAll",
      "type": "event"
    },
    {
      "anonymous": false,
      "inputs": [
        {
          "indexed": true,
          "internalType": "address",
          "name": "owner",
          "type": "address"
        },
        {
          "indexed": true,
          "internalType": "address",
          "name": "minter",
          "type": "address"
        },
        {
          "indexed": false,
          "internalType": "bool",
          "name": "approved",
          "type": "bool"
        }
      ],
      "name": "ApprovedMinter",
      "type": "event"
    },
    {
      "anonymous": false,
      "inputs": [
        {
          "indexed": false,
          "internalType": "uint256",
          "name": "editionSize",
          "type": "uint256"
        }
      ],
      "name": "EditionSizeFinalized",
      "type": "event"
    },
    {
      "anonymous": false,
      "inputs": [
        {
          "indexed": false,
          "internalType": "uint256",
          "name": "price",
          "type": "uint256"
        },
        {
          "indexed": false,
          "internalType": "address",
          "name": "owner",
          "type": "address"
        }
      ],
      "name": "EditionSold",
      "type": "event"
    },
    {
      "anonymous": false,
      "inputs": [
        {
          "indexed": true,
          "internalType": "address",
          "name": "previousOwner",
          "type": "address"
        },
        {
          "indexed": true,
          "internalType": "address",
          "name": "newOwner",
          "type": "address"
        }
      ],
      "name": "OwnershipTransferred",
      "type": "event"
    },
    {
      "anonymous": false,
      "inputs": [
        {
          "indexed": false,
          "internalType": "uint256",
          "name": "amount",
          "type": "uint256"
        }
      ],
      "name": "PriceChanged",
      "type": "event"
    },
    {
      "anonymous": false,
      "inputs": [
        {
          "indexed": false,
          "internalType": "address",
          "name": "newRecipientAddress",
          "type": "address"
        }
      ],
      "name": "RoyaltyFundsRecipientChanged",
      "type": "event"
    },
    {
      "anonymous": false,
      "inputs": [
        {
          "indexed": true,
          "internalType": "address",
          "name": "from",
          "type": "address"
        },
        {
          "indexed": true,
          "internalType": "address",
          "name": "to",
          "type": "address"
        },
        {
          "indexed": true,
          "internalType": "uint256",
          "name": "tokenId",
          "type": "uint256"
        }
      ],
      "name": "Transfer",
      "type": "event"
    },
    {
      "anonymous": false,
      "inputs": [
        {
          "indexed": false,
          "internalType": "uint8[3]",
          "name": "label",
          "type": "uint8[3]"
        }
      ],
      "name": "VersionAdded",
      "type": "event"
    },
    {
      "anonymous": false,
      "inputs": [
        {
          "indexed": false,
          "internalType": "uint8[3]",
          "name": "label",
          "type": "uint8[3]"
        },
        {
          "indexed": false,
          "internalType": "uint8",
          "name": "index",
          "type": "uint8"
        },
        {
          "indexed": false,
          "internalType": "string",
          "name": "url",
          "type": "string"
        }
      ],
      "name": "VersionURLUpdated",
      "type": "event"
    },
    {
      "inputs": [
        {
          "components": [
            {
              "components": [
                {
                  "internalType": "string",
                  "name": "url",
                  "type": "string"
                },
                {
                  "internalType": "bytes32",
                  "name": "sha256hash",
                  "type": "bytes32"
                }
              ],
              "internalType": "struct Versions.UrlHashPair[]",
              "name": "urls",
              "type": "tuple[]"
            },
            {
              "internalType": "uint8[3]",
              "name": "label",
              "type": "uint8[3]"
            }
          ],
          "internalType": "struct Versions.Version",
          "name": "_version",
          "type": "tuple"
        }
      ],
      "name": "addVersion",
      "outputs": [],
      "stateMutability": "nonpayable",
      "type": "function"
    },
    {
      "inputs": [
        {
          "internalType": "address",
          "name": "to",
          "type": "address"
        },
        {
          "internalType": "uint256",
          "name": "tokenId",
          "type": "uint256"
        }
      ],
      "name": "approve",
      "outputs": [],
      "stateMutability": "nonpayable",
      "type": "function"
    },
    {
      "inputs": [
        {
          "internalType": "address",
          "name": "owner",
          "type": "address"
        }
      ],
      "name": "balanceOf",
      "outputs": [
        {
          "internalType": "uint256",
          "name": "",
          "type": "uint256"
        }
      ],
      "stateMutability": "view",
      "type": "function"
    },
    {
      "inputs": [
        {
          "internalType": "uint256",
          "name": "tokenId",
          "type": "uint256"
        }
      ],
      "name": "burn",
      "outputs": [],
      "stateMutability": "nonpayable",
      "type": "function"
    },
    {
      "inputs": [],
      "name": "description",
      "outputs": [
        {
          "internalType": "string",
          "name": "",
          "type": "string"
        }
      ],
      "stateMutability": "view",
      "type": "function"
    },
    {
      "inputs": [],
      "name": "editionSize",
      "outputs": [
        {
          "internalType": "uint256",
          "name": "",
          "type": "uint256"
        }
      ],
      "stateMutability": "view",
      "type": "function"
    },
    {
      "inputs": [],
      "name": "finalizeEditionSize",
      "outputs": [],
      "stateMutability": "nonpayable",
      "type": "function"
    },
    {
      "inputs": [
        {
          "internalType": "uint256",
          "name": "tokenId",
          "type": "uint256"
        }
      ],
      "name": "getApproved",
      "outputs": [
        {
          "internalType": "address",
          "name": "",
          "type": "address"
        }
      ],
      "stateMutability": "view",
      "type": "function"
    },
    {
      "inputs": [],
      "name": "getURIs",
      "outputs": [
        {
          "internalType": "string",
          "name": "",
          "type": "string"
        },
        {
          "internalType": "bytes32",
          "name": "",
          "type": "bytes32"
        },
        {
          "internalType": "string",
          "name": "",
          "type": "string"
        },
        {
          "internalType": "bytes32",
          "name": "",
          "type": "bytes32"
        },
        {
          "internalType": "string",
          "name": "",
          "type": "string"
        },
        {
          "internalType": "bytes32",
          "name": "",
          "type": "bytes32"
        }
      ],
      "stateMutability": "view",
      "type": "function"
    },
    {
      "inputs": [
        {
          "internalType": "uint8[3]",
          "name": "label",
          "type": "uint8[3]"
        }
      ],
      "name": "getURIsOfVersion",
      "outputs": [
        {
          "internalType": "string",
          "name": "",
          "type": "string"
        },
        {
          "internalType": "bytes32",
          "name": "",
          "type": "bytes32"
        },
        {
          "internalType": "string",
          "name": "",
          "type": "string"
        },
        {
          "internalType": "bytes32",
          "name": "",
          "type": "bytes32"
        },
        {
          "internalType": "string",
          "name": "",
          "type": "string"
        },
        {
          "internalType": "bytes32",
          "name": "",
          "type": "bytes32"
        }
      ],
      "stateMutability": "view",
      "type": "function"
    },
    {
      "inputs": [],
      "name": "getVersionHistory",
      "outputs": [
        {
          "components": [
            {
              "components": [
                {
                  "internalType": "string",
                  "name": "url",
                  "type": "string"
                },
                {
                  "internalType": "bytes32",
                  "name": "sha256hash",
                  "type": "bytes32"
                }
              ],
              "internalType": "struct Versions.UrlHashPair[]",
              "name": "urls",
              "type": "tuple[]"
            },
            {
              "internalType": "uint8[3]",
              "name": "label",
              "type": "uint8[3]"
            }
          ],
          "internalType": "struct Versions.Version[]",
          "name": "",
          "type": "tuple[]"
        }
      ],
      "stateMutability": "view",
      "type": "function"
    },
    {
      "inputs": [
        {
          "internalType": "address payable",
          "name": "_owner",
          "type": "address"
        },
        {
          "internalType": "string",
          "name": "_name",
          "type": "string"
        },
        {
          "internalType": "string",
          "name": "_symbol",
          "type": "string"
        },
        {
          "internalType": "string",
          "name": "_description",
          "type": "string"
        },
        {
          "components": [
            {
              "components": [
                {
                  "internalType": "string",
                  "name": "url",
                  "type": "string"
                },
                {
                  "internalType": "bytes32",
                  "name": "sha256hash",
                  "type": "bytes32"
                }
              ],
              "internalType": "struct Versions.UrlHashPair[]",
              "name": "urls",
              "type": "tuple[]"
            },
            {
              "internalType": "uint8[3]",
              "name": "label",
              "type": "uint8[3]"
            }
          ],
          "internalType": "struct Versions.Version",
          "name": "_version",
          "type": "tuple"
        },
        {
          "internalType": "uint256",
          "name": "_editionSize",
          "type": "uint256"
        },
        {
          "internalType": "uint256",
          "name": "_royaltyBPS",
          "type": "uint256"
        }
      ],
      "name": "initialize",
      "outputs": [],
      "stateMutability": "nonpayable",
      "type": "function"
    },
    {
      "inputs": [
        {
          "internalType": "address",
          "name": "owner",
          "type": "address"
        },
        {
          "internalType": "address",
          "name": "operator",
          "type": "address"
        }
      ],
      "name": "isApprovedForAll",
      "outputs": [
        {
          "internalType": "bool",
          "name": "",
          "type": "bool"
        }
      ],
      "stateMutability": "view",
      "type": "function"
    },
    {
      "inputs": [
        {
          "internalType": "address",
          "name": "to",
          "type": "address"
        }
      ],
      "name": "mintEdition",
      "outputs": [
        {
          "internalType": "uint256",
          "name": "",
          "type": "uint256"
        }
      ],
      "stateMutability": "nonpayable",
      "type": "function"
    },
    {
      "inputs": [
        {
          "internalType": "address[]",
          "name": "recipients",
          "type": "address[]"
        }
      ],
      "name": "mintEditions",
      "outputs": [
        {
          "internalType": "uint256",
          "name": "",
          "type": "uint256"
        }
      ],
      "stateMutability": "nonpayable",
      "type": "function"
    },
    {
      "inputs": [],
      "name": "name",
      "outputs": [
        {
          "internalType": "string",
          "name": "",
          "type": "string"
        }
      ],
      "stateMutability": "view",
      "type": "function"
    },
    {
      "inputs": [],
      "name": "numberCanMint",
      "outputs": [
        {
          "internalType": "uint256",
          "name": "",
          "type": "uint256"
        }
      ],
      "stateMutability": "view",
      "type": "function"
    },
    {
      "inputs": [],
      "name": "owner",
      "outputs": [
        {
          "internalType": "address",
          "name": "",
          "type": "address"
        }
      ],
      "stateMutability": "view",
      "type": "function"
    },
    {
      "inputs": [
        {
          "internalType": "uint256",
          "name": "tokenId",
          "type": "uint256"
        }
      ],
      "name": "ownerOf",
      "outputs": [
        {
          "internalType": "address",
          "name": "",
          "type": "address"
        }
      ],
      "stateMutability": "view",
      "type": "function"
    },
    {
      "inputs": [],
      "name": "purchase",
      "outputs": [
        {
          "internalType": "uint256",
          "name": "",
          "type": "uint256"
        }
      ],
      "stateMutability": "payable",
      "type": "function"
    },
    {
      "inputs": [],
      "name": "renounceOwnership",
      "outputs": [],
      "stateMutability": "nonpayable",
      "type": "function"
    },
    {
      "inputs": [],
      "name": "royaltyBPS",
      "outputs": [
        {
          "internalType": "uint256",
          "name": "",
          "type": "uint256"
        }
      ],
      "stateMutability": "view",
      "type": "function"
    },
    {
      "inputs": [
        {
          "internalType": "uint256",
          "name": "",
          "type": "uint256"
        },
        {
          "internalType": "uint256",
          "name": "_salePrice",
          "type": "uint256"
        }
      ],
      "name": "royaltyInfo",
      "outputs": [
        {
          "internalType": "address",
          "name": "receiver",
          "type": "address"
        },
        {
          "internalType": "uint256",
          "name": "royaltyAmount",
          "type": "uint256"
        }
      ],
      "stateMutability": "view",
      "type": "function"
    },
    {
      "inputs": [
        {
          "internalType": "address",
          "name": "from",
          "type": "address"
        },
        {
          "internalType": "address",
          "name": "to",
          "type": "address"
        },
        {
          "internalType": "uint256",
          "name": "tokenId",
          "type": "uint256"
        }
      ],
      "name": "safeTransferFrom",
      "outputs": [],
      "stateMutability": "nonpayable",
      "type": "function"
    },
    {
      "inputs": [
        {
          "internalType": "address",
          "name": "from",
          "type": "address"
        },
        {
          "internalType": "address",
          "name": "to",
          "type": "address"
        },
        {
          "internalType": "uint256",
          "name": "tokenId",
          "type": "uint256"
        },
        {
          "internalType": "bytes",
          "name": "_data",
          "type": "bytes"
        }
      ],
      "name": "safeTransferFrom",
      "outputs": [],
      "stateMutability": "nonpayable",
      "type": "function"
    },
    {
      "inputs": [],
      "name": "salePrice",
      "outputs": [
        {
          "internalType": "uint256",
          "name": "",
          "type": "uint256"
        }
      ],
      "stateMutability": "view",
      "type": "function"
    },
    {
      "inputs": [
        {
          "internalType": "address",
          "name": "operator",
          "type": "address"
        },
        {
          "internalType": "bool",
          "name": "approved",
          "type": "bool"
        }
      ],
      "name": "setApprovalForAll",
      "outputs": [],
      "stateMutability": "nonpayable",
      "type": "function"
    },
    {
      "inputs": [
        {
          "internalType": "address",
          "name": "minter",
          "type": "address"
        },
        {
          "internalType": "bool",
          "name": "allowed",
          "type": "bool"
        }
      ],
      "name": "setApprovedMinter",
      "outputs": [],
      "stateMutability": "nonpayable",
      "type": "function"
    },
    {
      "inputs": [
        {
          "internalType": "address payable",
          "name": "newRecipientAddress",
          "type": "address"
        }
      ],
      "name": "setRoyaltyFundsRecipient",
      "outputs": [],
      "stateMutability": "nonpayable",
      "type": "function"
    },
    {
      "inputs": [
        {
          "internalType": "uint256",
          "name": "_salePrice",
          "type": "uint256"
        }
      ],
      "name": "setSalePrice",
      "outputs": [],
      "stateMutability": "nonpayable",
      "type": "function"
    },
    {
      "inputs": [
        {
          "internalType": "bytes4",
          "name": "interfaceId",
          "type": "bytes4"
        }
      ],
      "name": "supportsInterface",
      "outputs": [
        {
          "internalType": "bool",
          "name": "",
          "type": "bool"
        }
      ],
      "stateMutability": "view",
      "type": "function"
    },
    {
      "inputs": [],
      "name": "symbol",
      "outputs": [
        {
          "internalType": "string",
          "name": "",
          "type": "string"
        }
      ],
      "stateMutability": "view",
      "type": "function"
    },
    {
      "inputs": [
        {
          "internalType": "uint256",
          "name": "tokenId",
          "type": "uint256"
        }
      ],
      "name": "tokenURI",
      "outputs": [
        {
          "internalType": "string",
          "name": "",
          "type": "string"
        }
      ],
      "stateMutability": "view",
      "type": "function"
    },
    {
      "inputs": [
        {
          "internalType": "uint256",
          "name": "tokenId",
          "type": "uint256"
        },
        {
          "internalType": "uint8[3]",
          "name": "label",
          "type": "uint8[3]"
        }
      ],
      "name": "tokenURIOfVersion",
      "outputs": [
        {
          "internalType": "string",
          "name": "",
          "type": "string"
        }
      ],
      "stateMutability": "view",
      "type": "function"
    },
    {
      "inputs": [],
      "name": "totalSupply",
      "outputs": [
        {
          "internalType": "uint256",
          "name": "",
          "type": "uint256"
        }
      ],
      "stateMutability": "view",
      "type": "function"
    },
    {
      "inputs": [
        {
          "internalType": "address",
          "name": "from",
          "type": "address"
        },
        {
          "internalType": "address",
          "name": "to",
          "type": "address"
        },
        {
          "internalType": "uint256",
          "name": "tokenId",
          "type": "uint256"
        }
      ],
      "name": "transferFrom",
      "outputs": [],
      "stateMutability": "nonpayable",
      "type": "function"
    },
    {
      "inputs": [
        {
          "internalType": "address",
          "name": "newOwner",
          "type": "address"
        }
      ],
      "name": "transferOwnership",
      "outputs": [],
      "stateMutability": "nonpayable",
      "type": "function"
    },
    {
      "inputs": [
        {
          "internalType": "uint8[3]",
          "name": "_label",
          "type": "uint8[3]"
        },
        {
          "internalType": "uint8",
          "name": "_urlKey",
          "type": "uint8"
        },
        {
          "internalType": "string",
          "name": "_url",
          "type": "string"
        }
      ],
      "name": "updateVersionURL",
      "outputs": [],
      "stateMutability": "nonpayable",
      "type": "function"
    },
    {
      "inputs": [],
      "name": "withdraw",
      "outputs": [],
      "stateMutability": "nonpayable",
      "type": "function"
    }
  ],
  "transactionHash": "0xe81e29d9710ba9d650a0214b147a49181bcc2783d514c58c49e7f24cc10f1221",
  "args": [
    "0x92419d3c2ce2EF407F8705cf1A85b131bBcebf01"
  ],
  "solcInputHash": "f1085c5b85cb82252ad324af67a4fa4d",
  "bytecode": "0x60a06040523480156200001157600080fd5b506040516200419c3803806200419c83398101604081905262000034916200004a565b60601b6001600160601b0319166080526200007c565b6000602082840312156200005d57600080fd5b81516001600160a01b03811681146200007557600080fd5b9392505050565b60805160601c6140f3620000a9600039600081816114bd015281816116720152611c6801526140f36000f3fe6080604052600436106102205760003560e01c8063659786ea1161012e578063b6ddcd52116100ab578063e96932741161006f578063e969327414610652578063e985e9c514610672578063f2fde38b14610692578063f4ed0f46146106b2578063f51f96dd146106c857600080fd5b8063b6ddcd52146105ba578063b88d4fde146105da578063b9c9d93a146105fa578063c87b56dd14610610578063d709b1981461063057600080fd5b806395d89b41116100f257806395d89b4114610530578063a22cb46514610545578063a66ff0af14610565578063ac486c1e14610585578063b21d81ae1461059a57600080fd5b8063659786ea146104b157806370a08231146104d1578063715018a6146104f15780637284e416146105065780638da5cb5b1461051b57600080fd5b806323b872dd116101bc57806342842e0e1161018057806342842e0e1461042957806342966c681461044957806351ec35f9146104695780636352211e1461048957806364edfbf0146104a957600080fd5b806323b872dd1461036e57806328c5440f1461038e57806329ec16dd146103b55780632a55205a146103d55780633ccfd60b1461041457600080fd5b806301ffc9a71461022557806306fdde031461025a578063081812fc1461027c578063095ea7b3146102b45780630b65b6e7146102d65780630f6a9349146102f957806313d2de321461031957806318160ddd146103395780631919fed71461034e575b600080fd5b34801561023157600080fd5b50610245610240366004613754565b6106de565b60405190151581526020015b60405180910390f35b34801561026657600080fd5b5061026f610724565b6040516102519190613b83565b34801561028857600080fd5b5061029c610297366004613838565b6107b6565b6040516001600160a01b039091168152602001610251565b3480156102c057600080fd5b506102d46102cf36600461360e565b610843565b005b3480156102e257600080fd5b506102eb610954565b604051908152602001610251565b34801561030557600080fd5b506102eb61031436600461363a565b610988565b34801561032557600080fd5b506102d4610334366004613412565b6109b7565b34801561034557600080fd5b506102eb610a90565b34801561035a57600080fd5b506102d4610369366004613838565b610a9a565b34801561037a57600080fd5b506102d461038936600461351b565b610b05565b34801561039a57600080fd5b506103a3610b37565b60405161025196959493929190613b96565b3480156103c157600080fd5b506102d46103d03660046135db565b610c30565b3480156103e157600080fd5b506103f56103f036600461387e565b610ccc565b604080516001600160a01b039093168352602083019190915201610251565b34801561042057600080fd5b506102d4610d2c565b34801561043557600080fd5b506102d461044436600461351b565b610d6e565b34801561045557600080fd5b506102d4610464366004613838565b610d89565b34801561047557600080fd5b506102d4610484366004613804565b610dd9565b34801561049557600080fd5b5061029c6104a4366004613838565b610e11565b6102eb610e88565b3480156104bd57600080fd5b506102d46104cc3660046133f5565b610fa2565b3480156104dd57600080fd5b506102eb6104ec3660046133f5565b61101f565b3480156104fd57600080fd5b506102d46110a6565b34801561051257600080fd5b5061026f6110df565b34801561052757600080fd5b5061029c61116d565b34801561053c57600080fd5b5061026f611181565b34801561055157600080fd5b506102d46105603660046135db565b611190565b34801561057157600080fd5b506102eb6105803660046133f5565b61124a565b34801561059157600080fd5b506102d46112d6565b3480156105a657600080fd5b506103a36105b53660046136da565b61138e565b3480156105c657600080fd5b5061026f6105d5366004613851565b611485565b3480156105e657600080fd5b506102d46105f536600461355c565b611603565b34801561060657600080fd5b506102eb60ce5481565b34801561061c57600080fd5b5061026f61062b366004613838565b61163b565b34801561063c57600080fd5b506106456117b0565b6040516102519190613a74565b34801561065e57600080fd5b506102d461066d3660046136f6565b6117bc565b34801561067e57600080fd5b5061024561068d3660046134e2565b61183b565b34801561069e57600080fd5b506102d46106ad3660046133f5565b611869565b3480156106be57600080fd5b506102eb60cc5481565b3480156106d457600080fd5b506102eb60d05481565b60006317e28f2d60e11b6001600160e01b03198316148061070f575063152a902d60e11b6001600160e01b03198316145b8061071e575061071e82611906565b92915050565b60606065805461073390613fb0565b80601f016020809104026020016040519081016040528092919081815260200182805461075f90613fb0565b80156107ac5780601f10610781576101008083540402835291602001916107ac565b820191906000526020600020905b81548152906001019060200180831161078f57829003601f168201915b5050505050905090565b60006107c182611956565b6108275760405162461bcd60e51b815260206004820152602c60248201527f4552433732313a20617070726f76656420717565727920666f72206e6f6e657860448201526b34b9ba32b73a103a37b5b2b760a11b60648201526084015b60405180910390fd5b506000908152606960205260409020546001600160a01b031690565b600061084e82610e11565b9050806001600160a01b0316836001600160a01b031614156108bc5760405162461bcd60e51b815260206004820152602160248201527f4552433732313a20617070726f76616c20746f2063757272656e74206f776e656044820152603960f91b606482015260840161081e565b336001600160a01b03821614806108d857506108d8813361183b565b6109455760405162461bcd60e51b815260206004820152603860248201527f4552433732313a20617070726f76652063616c6c6572206973206e6f74206f776044820152771b995c881b9bdc88185c1c1c9bdd995908199bdc88185b1b60421b606482015260840161081e565b61094f8383611973565b505050565b600060cc5460001415610968575060001990565b60cd5460cc54610979906001613f22565b6109839190613f6d565b905090565b60006109926119e1565b6109ae5760405162461bcd60e51b815260040161081e90613df8565b61071e82611a51565b600054610100900460ff16806109d0575060005460ff16155b6109ec5760405162461bcd60e51b815260040161081e90613d30565b600054610100900460ff16158015610a0e576000805461ffff19166101011790555b610a188787611b31565b610a20611bb8565b610a2988611869565b8451610a3c9060c990602088019061308f565b5060cc83905560ce82905560d180546001600160a01b0319166001600160a01b038a1617905560cd80546001019055610a7484611c33565b8015610a86576000805461ff00191690555b5050505050505050565b6000610983611d71565b33610aa361116d565b6001600160a01b031614610ac95760405162461bcd60e51b815260040161081e90613dc3565b60d08190556040518181527fa6dc15bdb68da224c66db4b3838d9a2b205138e8cff6774e57d0af91e196d622906020015b60405180910390a150565b610b10335b82611d7e565b610b2c5760405162461bcd60e51b815260040161081e90613e2f565b61094f838383611e40565b60606000606060006060600080610b4e60ca611fce565b8051909150600060ff1681518110610b6857610b68614046565b60209081029190910101515181518051600090610b8757610b87614046565b6020908102919091018101510151825180516001908110610baa57610baa614046565b602090810291909101015151835180516001908110610bcb57610bcb614046565b6020908102919091018101510151845180516002908110610bee57610bee614046565b602090810291909101015151855180516002908110610c0f57610c0f614046565b60200260200101516020015196509650965096509650965050909192939495565b33610c3961116d565b6001600160a01b031614610c5f5760405162461bcd60e51b815260040161081e90613dc3565b6001600160a01b038216600081815260cf60205260409020805460ff1916831515179055336001600160a01b03167f8cd75c8017bbe4f4552de2caa02ab21b1e3918c4693ab35db62125a620999fcc83604051610cc0911515815260200190565b60405180910390a35050565b60d15460009081906001600160a01b0316610cf657505060d1546001600160a01b03166000610d25565b60d15460ce546001600160a01b039091169061271090610d169086613f4e565b610d209190613f3a565b915091505b9250929050565b33610d3561116d565b6001600160a01b031614610d5b5760405162461bcd60e51b815260040161081e90613dc3565b610d6c610d6661116d565b476121c3565b565b61094f83838360405180602001604052806000815250611603565b610d9233610b0a565b610dcd5760405162461bcd60e51b815260206004820152600c60248201526b139bdd08185c1c1c9bdd995960a21b604482015260640161081e565b610dd6816122dc565b50565b33610de261116d565b6001600160a01b031614610e085760405162461bcd60e51b815260040161081e90613dc3565b610dd681611c33565b6000818152606760205260408120546001600160a01b03168061071e5760405162461bcd60e51b815260206004820152602960248201527f4552433732313a206f776e657220717565727920666f72206e6f6e657869737460448201526832b73a103a37b5b2b760b91b606482015260840161081e565b60008060d05411610eca5760405162461bcd60e51b815260206004820152600c60248201526b4e6f7420666f722073616c6560a01b604482015260640161081e565b60d0543414610f095760405162461bcd60e51b815260206004820152600b60248201526a57726f6e6720707269636560a81b604482015260640161081e565b604080516001808252818301909252600091602080830190803683370190505090503381600081518110610f3f57610f3f614046565b6001600160a01b0390921660209283029190910182015260d0546040805191825233928201929092527f60a6c75698fadb72223808131f9f9bb9db3afa32122db6d94fb8fc985a504baa910160405180910390a1610f9c81611a51565b91505090565b33610fab61116d565b6001600160a01b031614610fd15760405162461bcd60e51b815260040161081e90613dc3565b60d180546001600160a01b0319166001600160a01b0383169081179091556040519081527ffa92addb00b86a2d8f76a9a3213317d95a3a5ef70fe02927ac60a7431fcf554390602001610afa565b60006001600160a01b03821661108a5760405162461bcd60e51b815260206004820152602a60248201527f4552433732313a2062616c616e636520717565727920666f7220746865207a65604482015269726f206164647265737360b01b606482015260840161081e565b506001600160a01b031660009081526068602052604090205490565b336110af61116d565b6001600160a01b0316146110d55760405162461bcd60e51b815260040161081e90613dc3565b610d6c6000612365565b60c980546110ec90613fb0565b80601f016020809104026020016040519081016040528092919081815260200182805461111890613fb0565b80156111655780601f1061113a57610100808354040283529160200191611165565b820191906000526020600020905b81548152906001019060200180831161114857829003601f168201915b505050505081565b60006109836097546001600160a01b031690565b60606066805461073390613fb0565b6001600160a01b0382163314156111e55760405162461bcd60e51b815260206004820152601960248201527822a9219b99189d1030b8383937bb32903a379031b0b63632b960391b604482015260640161081e565b336000818152606a602090815260408083206001600160a01b03871680855290835292819020805460ff191686151590811790915590519081529192917f17307eab39ab6107e8899845ad3d59bd9653f200f220920489ca2b5937696c319101610cc0565b60006112546119e1565b6112705760405162461bcd60e51b815260040161081e90613df8565b6040805160018082528183019092526000916020808301908036833701905050905082816000815181106112a6576112a6614046565b60200260200101906001600160a01b031690816001600160a01b0316815250506112cf81611a51565b9392505050565b336112df61116d565b6001600160a01b0316146113055760405162461bcd60e51b815260040161081e90613dc3565b60cc541561134c5760405162461bcd60e51b815260206004820152601460248201527326bab9ba1031329037b832b71032b234ba34b7b760611b604482015260640161081e565b611354611d71565b60cc8190556040519081527f7606964e2812572286840c4625acbe2358fde96abb23114de1cbd342fb9f5d139060200160405180910390a1565b6060600081818181806113a260ca896123b7565b8051909150600060ff16815181106113bc576113bc614046565b602090810291909101015151815180516000906113db576113db614046565b60209081029190910181015101518251805160019081106113fe576113fe614046565b60209081029190910101515183518051600190811061141f5761141f614046565b602090810291909101810151015184518051600290811061144257611442614046565b60209081029190910101515185518051600290811061146357611463614046565b6020026020010151602001519650965096509650965096505091939550919395565b606061149083611956565b6114ac5760405162461bcd60e51b815260040161081e90613d0e565b60006114b960ca846123b7565b90507f00000000000000000000000000000000000000000000000000000000000000006001600160a01b0316635a7eba7c6114f2610724565b60408051608081019091528451805160c99291829160009061151657611516614046565b6020908102919091018101515182528751910190600160ff168151811061153f5761153f614046565b6020908102919091018101515182528751910190600260ff168151811061156857611568614046565b602002602001015160000151815260200186602001518152508860cc54306040518763ffffffff1660e01b81526004016115a796959493929190613bef565b60006040518083038186803b1580156115bf57600080fd5b505afa1580156115d3573d6000803e3d6000fd5b505050506040513d6000823e601f3d908101601f191682016040526115fb919081019061378e565b949350505050565b61160d3383611d7e565b6116295760405162461bcd60e51b815260040161081e90613e2f565b6116358484848461255c565b50505050565b606061164682611956565b6116625760405162461bcd60e51b815260040161081e90613d0e565b600061166e60ca611fce565b90507f00000000000000000000000000000000000000000000000000000000000000006001600160a01b0316635a7eba7c6116a7610724565b60408051608081019091528451805160c9929182916000906116cb576116cb614046565b6020908102919091018101515182528751910190600160ff16815181106116f4576116f4614046565b6020908102919091018101515182528751910190600260ff168151811061171d5761171d614046565b602002602001015160000151815260200186602001518152508760cc54306040518763ffffffff1660e01b815260040161175c96959493929190613bef565b60006040518083038186803b15801561177457600080fd5b505afa158015611788573d6000803e3d6000fd5b505050506040513d6000823e601f3d908101601f191682016040526112cf919081019061378e565b606061098360ca61258f565b336117c561116d565b6001600160a01b0316146117eb5760405162461bcd60e51b815260040161081e90613dc3565b6117fb60ca8460ff85168461266e565b7f3cdb3b7fee8bd4227020e3bde799a81de9023d479ba5c7825521fd3b8242af4683838360405161182e93929190613b5a565b60405180910390a1505050565b6001600160a01b039182166000908152606a6020908152604080832093909416825291909152205460ff1690565b3361187261116d565b6001600160a01b0316146118985760405162461bcd60e51b815260040161081e90613dc3565b6001600160a01b0381166118fd5760405162461bcd60e51b815260206004820152602660248201527f4f776e61626c653a206e6577206f776e657220697320746865207a65726f206160448201526564647265737360d01b606482015260840161081e565b610dd681612365565b60006001600160e01b031982166380ac58cd60e01b148061193757506001600160e01b03198216635b5e139f60e01b145b8061071e57506301ffc9a760e01b6001600160e01b031983161461071e565b6000908152606760205260409020546001600160a01b0316151590565b600081815260696020526040902080546001600160a01b0319166001600160a01b03841690811790915581906119a882610e11565b6001600160a01b03167f8c5be1e5ebec7d5bd14f71427d1e84f3dd0314c0f7b2291e5b200ac8c7c3b92560405160405180910390a45050565b6000336119ec61116d565b6001600160a01b03161415611a015750600190565b6000805260cf6020527fe02c59459e6ae69bba35526a32783b104c6119df0d640a9ac4990ec2f8d493a95460ff1615611a3a5750600190565b5033600090815260cf602052604090205460ff1690565b600080611a5d60cd5490565b905060006001845183611a709190613f22565b611a7a9190613f6d565b905060cc5460001480611a8f575060cc548111155b611ac65760405162461bcd60e51b815260206004820152600860248201526714dbdb19081bdd5d60c21b604482015260640161081e565b80611ad060cd5490565b11611b2657611b138483611ae360cd5490565b611aed9190613f6d565b81518110611afd57611afd614046565b6020026020010151611b0e60cd5490565b6127a4565b611b2160cd80546001019055565b611ac6565b60cd54949350505050565b600054610100900460ff1680611b4a575060005460ff16155b611b665760405162461bcd60e51b815260040161081e90613d30565b600054610100900460ff16158015611b88576000805461ffff19166101011790555b611b906128c5565b611b986128c5565b611ba2838361292f565b801561094f576000805461ff0019169055505050565b600054610100900460ff1680611bd1575060005460ff16155b611bed5760405162461bcd60e51b815260040161081e90613d30565b600054610100900460ff16158015611c0f576000805461ffff19166101011790555b611c176128c5565b611c1f6129c4565b8015610dd6576000805461ff001916905550565b611c3e60ca82612a24565b80515160031115611d3e57602081015160405163612d071760e01b81526000916001600160a01b037f0000000000000000000000000000000000000000000000000000000000000000169163612d071791611c9b91600401613b4c565b60006040518083038186803b158015611cb357600080fd5b505afa158015611cc7573d6000803e3d6000fd5b505050506040513d6000823e601f3d908101601f19168201604052611cef919081019061378e565b8251519091505b6003811015611d3b5760405160cb90611d1090849061394f565b9081526040519081900360200190208054600101815560005280611d3381613feb565b915050611cf6565b50505b7f166b7e506b0600a3fd1259824a1311e569ddb4194c483361dbd1888632897dfa8160200151604051610afa9190613b4c565b6000600161097960cd5490565b6000611d8982611956565b611dea5760405162461bcd60e51b815260206004820152602c60248201527f4552433732313a206f70657261746f7220717565727920666f72206e6f6e657860448201526b34b9ba32b73a103a37b5b2b760a11b606482015260840161081e565b6000611df583610e11565b9050806001600160a01b0316846001600160a01b03161480611e305750836001600160a01b0316611e25846107b6565b6001600160a01b0316145b806115fb57506115fb818561183b565b826001600160a01b0316611e5382610e11565b6001600160a01b031614611ebb5760405162461bcd60e51b815260206004820152602960248201527f4552433732313a207472616e73666572206f6620746f6b656e2074686174206960448201526839903737ba1037bbb760b91b606482015260840161081e565b6001600160a01b038216611f1d5760405162461bcd60e51b8152602060048201526024808201527f4552433732313a207472616e7366657220746f20746865207a65726f206164646044820152637265737360e01b606482015260840161081e565b611f28600082611973565b6001600160a01b0383166000908152606860205260408120805460019290611f51908490613f6d565b90915550506001600160a01b0382166000908152606860205260408120805460019290611f7f908490613f22565b909155505060008181526067602052604080822080546001600160a01b0319166001600160a01b03868116918217909255915184939187169160008051602061409e83398151915291a4505050565b611fd6613113565b81546120245760405162461bcd60e51b815260206004820152601c60248201527f2356657273696f6e733a204e6f2076657273696f6e7320657869737400000000604482015260640161081e565b8154600180840191849161203791613f6d565b8154811061204757612047614046565b9060005260206000200160405161205e91906139c5565b908152604080519182900360209081018320805460609281028501830184529284018381529092849284919060009085015b8282101561215e57838290600052602060002090600202016040518060400160405290816000820180546120c390613fb0565b80601f01602080910402602001604051908101604052809291908181526020018280546120ef90613fb0565b801561213c5780601f106121115761010080835404028352916020019161213c565b820191906000526020600020905b81548152906001019060200180831161211f57829003601f168201915b5050505050815260200160018201548152505081526020019060010190612090565b50505090825250604080516060810191829052602090920191906001840190600390826000855b825461010083900a900460ff168152602060019283018181049485019490930390920291018084116121855790505050505050815250509050919050565b804710156122135760405162461bcd60e51b815260206004820152601d60248201527f416464726573733a20696e73756666696369656e742062616c616e6365000000604482015260640161081e565b6000826001600160a01b03168260405160006040518083038185875af1925050503d8060008114612260576040519150601f19603f3d011682016040523d82523d6000602084013e612265565b606091505b505090508061094f5760405162461bcd60e51b815260206004820152603a60248201527f416464726573733a20756e61626c6520746f2073656e642076616c75652c207260448201527f6563697069656e74206d61792068617665207265766572746564000000000000606482015260840161081e565b60006122e782610e11565b90506122f4600083611973565b6001600160a01b038116600090815260686020526040812080546001929061231d908490613f6d565b909155505060008281526067602052604080822080546001600160a01b0319169055518391906001600160a01b0384169060008051602061409e833981519152908390a45050565b609780546001600160a01b038381166001600160a01b0319831681179093556040519116919082907f8be0079c531659141344cd1fd0a4f28419497f9722a3daafe3b4186f6b6457e090600090a35050565b6123bf613113565b6000836001016123ce84612bb9565b6040516123db919061394f565b908152604080519182900360209081018320805460609281028501830184529284018381529092849284919060009085015b828210156124db578382906000526020600020906002020160405180604001604052908160008201805461244090613fb0565b80601f016020809104026020016040519081016040528092919081815260200182805461246c90613fb0565b80156124b95780601f1061248e576101008083540402835291602001916124b9565b820191906000526020600020905b81548152906001019060200180831161249c57829003601f168201915b505050505081526020016001820154815250508152602001906001019061240d565b50505090825250604080516060810191829052602090920191906001840190600390826000855b825461010083900a900460ff16815260206001928301818104948501949093039092029101808411612502579050505050919092525050815151919250506112cf5760405162461bcd60e51b815260040161081e90613d7e565b612567848484611e40565b61257384848484612c0d565b6116355760405162461bcd60e51b815260040161081e90613cbc565b606061071e8283600001805480602002602001604051908101604052809291908181526020016000905b828210156126655783829060005260206000200180546125d890613fb0565b80601f016020809104026020016040519081016040528092919081815260200182805461260490613fb0565b80156126515780601f1061262657610100808354040283529160200191612651565b820191906000526020600020905b81548152906001019060200180831161263457829003601f168201915b5050505050815260200190600101906125b9565b50505050612d1a565b600061267984612bb9565b9050846001018160405161268d919061394f565b908152604051908190036020019020546126b95760405162461bcd60e51b815260040161081e90613d7e565b8285600101826040516126cc919061394f565b90815260405190819003602001902054116127435760405162461bcd60e51b815260206004820152603160248201527f2356657273696f6e733a205468652075726c20646f6573206e6f7420657869736044820152703a1037b7103a3430ba103b32b939b4b7b760791b606482015260840161081e565b818560010182604051612756919061394f565b9081526020016040518091039020600001848154811061277857612778614046565b9060005260206000209060020201600001908051906020019061279c92919061308f565b505050505050565b6001600160a01b0382166127fa5760405162461bcd60e51b815260206004820181905260248201527f4552433732313a206d696e7420746f20746865207a65726f2061646472657373604482015260640161081e565b61280381611956565b156128505760405162461bcd60e51b815260206004820152601c60248201527f4552433732313a20746f6b656e20616c7265616479206d696e74656400000000604482015260640161081e565b6001600160a01b0382166000908152606860205260408120805460019290612879908490613f22565b909155505060008181526067602052604080822080546001600160a01b0319166001600160a01b038616908117909155905183929060008051602061409e833981519152908290a45050565b600054610100900460ff16806128de575060005460ff16155b6128fa5760405162461bcd60e51b815260040161081e90613d30565b600054610100900460ff16158015611c1f576000805461ffff19166101011790558015610dd6576000805461ff001916905550565b600054610100900460ff1680612948575060005460ff16155b6129645760405162461bcd60e51b815260040161081e90613d30565b600054610100900460ff16158015612986576000805461ffff19166101011790555b825161299990606590602086019061308f565b5081516129ad90606690602085019061308f565b50801561094f576000805461ff0019169055505050565b600054610100900460ff16806129dd575060005460ff16155b6129f95760405162461bcd60e51b815260040161081e90613d30565b600054610100900460ff16158015612a1b576000805461ffff19166101011790555b611c1f33612365565b6000612a338260200151612bb9565b90508260010181604051612a47919061394f565b9081526040519081900360200190205415612ac05760405162461bcd60e51b815260206004820152603360248201527f2356657273696f6e733a20412076657273696f6e20776974682074686174206c6044820152726162656c20616c72656164792065786973747360681b606482015260840161081e565b825460018101845560008481526020908190208351612ae693919091019184019061308f565b5060005b825151811015612b82578360010182604051612b06919061394f565b9081526040519081900360200190208351805183908110612b2957612b29614046565b602090810291909101810151825460018101845560009384529282902081518051929460020290910192612b629284929091019061308f565b506020820151816001015550508080612b7a90613feb565b915050612aea565b5081602001518360010182604051612b9a919061394f565b9081526020016040518091039020600101906003611635929190613132565b6060612bcf8260005b602002015160ff16612f92565b612bda836001612bc2565b612be5846002612bc2565b604051602001612bf79392919061396b565b6040516020818303038152906040529050919050565b60006001600160a01b0384163b15612d0f57604051630a85bd0160e11b81526001600160a01b0385169063150b7a0290612c51903390899088908890600401613a37565b602060405180830381600087803b158015612c6b57600080fd5b505af1925050508015612c9b575060408051601f3d908101601f19168201909252612c9891810190613771565b60015b612cf5573d808015612cc9576040519150601f19603f3d011682016040523d82523d6000602084013e612cce565b606091505b508051612ced5760405162461bcd60e51b815260040161081e90613cbc565b805181602001fd5b6001600160e01b031916630a85bd0160e11b1490506115fb565b506001949350505050565b6060815160001415612d6e5760405162461bcd60e51b815260206004820152601d60248201527f2356657273696f6e733a204e6f206c6162656c732070726f7669646564000000604482015260640161081e565b600082516001600160401b03811115612d8957612d8961405c565b604051908082528060200260200182016040528015612dc257816020015b612daf613113565b815260200190600190039081612da75790505b50905060005b8351811015612f8a5784600101848281518110612de757612de7614046565b6020026020010151604051612dfc919061394f565b908152604080519182900360209081018320805460609281028501830184529284018381529092849284919060009085015b82821015612efc5783829060005260206000209060020201604051806040016040529081600082018054612e6190613fb0565b80601f0160208091040260200160405190810160405280929190818152602001828054612e8d90613fb0565b8015612eda5780601f10612eaf57610100808354040283529160200191612eda565b820191906000526020600020905b815481529060010190602001808311612ebd57829003601f168201915b5050505050815260200160018201548152505081526020019060010190612e2e565b50505090825250604080516060810191829052602090920191906001840190600390826000855b825461010083900a900460ff16815260206001928301818104948501949093039092029101808411612f23579050505050505081525050828281518110612f6c57612f6c614046565b60200260200101819052508080612f8290613feb565b915050612dc8565b509392505050565b606081612fb65750506040805180820190915260018152600360fc1b602082015290565b8160005b8115612fe05780612fca81613feb565b9150612fd99050600a83613f3a565b9150612fba565b6000816001600160401b03811115612ffa57612ffa61405c565b6040519080825280601f01601f191660200182016040528015613024576020820181803683370190505b5090505b84156115fb57613039600183613f6d565b9150613046600a86614006565b613051906030613f22565b60f81b81838151811061306657613066614046565b60200101906001600160f81b031916908160001a905350613088600a86613f3a565b9450613028565b82805461309b90613fb0565b90600052602060002090601f0160209004810192826130bd5760008555613103565b82601f106130d657805160ff1916838001178555613103565b82800160010185558215613103579182015b828111156131035782518255916020019190600101906130e8565b5061310f9291506131bc565b5090565b60405180604001604052806060815260200161312d6131d1565b905290565b6001830191839082156131035791602002820160005b8382111561318657835183826101000a81548160ff021916908360ff1602179055509260200192600101602081600001049283019260010302613148565b80156131b35782816101000a81549060ff0219169055600101602081600001049283019260010302613186565b505061310f9291505b5b8082111561310f57600081556001016131bd565b60405180606001604052806003906020820280368337509192915050565b60006132026131fd84613efb565b613ea8565b905082815283838301111561321657600080fd5b828260208301376000602084830101529392505050565b803561323881614072565b919050565b600082601f83011261324e57600080fd5b604051606081018181106001600160401b03821117156132705761327061405c565b60405280836060810186101561328557600080fd5b60005b60038110156132af5761329a826133e4565b83526020928301929190910190600101613288565b509195945050505050565b600082601f8301126132cb57600080fd5b6112cf838335602085016131ef565b6000608082840312156132ec57600080fd5b6132f4613e80565b905081356001600160401b038082111561330d57600080fd5b818401915084601f83011261332157600080fd5b813560206133316131fd83613ed8565b80838252828201915082860189848660051b890101111561335157600080fd5b60005b858110156133c55781358781111561336b57600080fd5b88016040818d03601f190181131561338257600080fd5b61338a613e80565b878301358a81111561339b57600080fd5b6133a98f8a838701016132ba565b8252509101358682015284529284019290840190600101613354565b50508652506133d68787830161323d565b818601525050505092915050565b803560ff8116811461323857600080fd5b60006020828403121561340757600080fd5b81356112cf81614072565b600080600080600080600060e0888a03121561342d57600080fd5b6134368861322d565b965060208801356001600160401b038082111561345257600080fd5b61345e8b838c016132ba565b975060408a013591508082111561347457600080fd5b6134808b838c016132ba565b965060608a013591508082111561349657600080fd5b6134a28b838c016132ba565b955060808a01359150808211156134b857600080fd5b506134c58a828b016132da565b93505060a0880135915060c0880135905092959891949750929550565b600080604083850312156134f557600080fd5b823561350081614072565b9150602083013561351081614072565b809150509250929050565b60008060006060848603121561353057600080fd5b833561353b81614072565b9250602084013561354b81614072565b929592945050506040919091013590565b6000806000806080858703121561357257600080fd5b843561357d81614072565b9350602085013561358d81614072565b92506040850135915060608501356001600160401b038111156135af57600080fd5b8501601f810187136135c057600080fd5b6135cf878235602084016131ef565b91505092959194509250565b600080604083850312156135ee57600080fd5b82356135f981614072565b91506020830135801515811461351057600080fd5b6000806040838503121561362157600080fd5b823561362c81614072565b946020939093013593505050565b6000602080838503121561364d57600080fd5b82356001600160401b0381111561366357600080fd5b8301601f8101851361367457600080fd5b80356136826131fd82613ed8565b80828252848201915084840188868560051b87010111156136a257600080fd5b600094505b838510156136ce5780356136ba81614072565b8352600194909401939185019185016136a7565b50979650505050505050565b6000606082840312156136ec57600080fd5b6112cf838361323d565b600080600060a0848603121561370b57600080fd5b613715858561323d565b9250613723606085016133e4565b915060808401356001600160401b0381111561373e57600080fd5b61374a868287016132ba565b9150509250925092565b60006020828403121561376657600080fd5b81356112cf81614087565b60006020828403121561378357600080fd5b81516112cf81614087565b6000602082840312156137a057600080fd5b81516001600160401b038111156137b657600080fd5b8201601f810184136137c757600080fd5b80516137d56131fd82613efb565b8181528560208385010111156137ea57600080fd5b6137fb826020830160208601613f84565b95945050505050565b60006020828403121561381657600080fd5b81356001600160401b0381111561382c57600080fd5b6115fb848285016132da565b60006020828403121561384a57600080fd5b5035919050565b6000806080838503121561386457600080fd5b82359150613875846020850161323d565b90509250929050565b6000806040838503121561389157600080fd5b50508035926020909101359150565b8060005b600381101561163557815160ff168452602093840193909101906001016138a4565b600081518084526138de816020860160208601613f84565b601f01601f19169290920160200192915050565b6000815160c0845261390760c08501826138c6565b90506020830151848203602086015261392082826138c6565b9150506040830151848203604086015261393a82826138c6565b9150506060830151612f8a60608601826138a0565b60008251613961818460208701613f84565b9190910192915050565b6000845161397d818460208901613f84565b8083019050601760f91b808252855161399d816001850160208a01613f84565b600192019182015283516139b8816002840160208801613f84565b0160020195945050505050565b60008083546139d381613fb0565b600182811680156139eb57600181146139fc57613a2b565b60ff19841687528287019450613a2b565b8760005260208060002060005b85811015613a225781548a820152908401908201613a09565b50505082870194505b50929695505050505050565b6001600160a01b0385811682528416602082015260408101839052608060608201819052600090613a6a908301846138c6565b9695505050505050565b60006020808301818452808551808352604092508286019150828160051b87010184880160005b83811015613b3e57888303603f19018552815180516080808652815190860181905260a080870192600583901b880190910191908b019060005b81811015613b1657888403609f19018552825180518d8652613af98e8701826138c6565b918f0151958f0195909552948d01949350918c0191600101613ad5565b5050509189015191613b2a868b01846138a0565b968901969450505090860190600101613a9b565b509098975050505050505050565b6060810161071e82846138a0565b613b6481856138a0565b60ff8316606082015260a0608082015260006137fb60a08301846138c6565b6020815260006112cf60208301846138c6565b60c081526000613ba960c08301896138c6565b8760208401528281036040840152613bc181886138c6565b90508560608401528281036080840152613bdb81866138c6565b9150508260a0830152979650505050505050565b60c081526000613c0260c08301896138c6565b60208382038185015260008954613c1881613fb0565b80855260018281168015613c335760018114613c4757613c75565b60ff19841687870152604087019450613c75565b8d6000528560002060005b84811015613c6d578154898201890152908301908701613c52565b880187019550505b505050508481036040860152613c8b818a6138f2565b9350505050846060830152836080830152613cb160a08301846001600160a01b03169052565b979650505050505050565b60208082526032908201527f4552433732313a207472616e7366657220746f206e6f6e20455243373231526560408201527131b2b4bb32b91034b6b83632b6b2b73a32b960711b606082015260800190565b6020808252600890820152672737903a37b5b2b760c11b604082015260600190565b6020808252602e908201527f496e697469616c697a61626c653a20636f6e747261637420697320616c72656160408201526d191e481a5b9a5d1a585b1a5e995960921b606082015260800190565b60208082526025908201527f2356657273696f6e733a205468652076657273696f6e20646f6573206e6f7420604082015264195e1a5cdd60da1b606082015260800190565b6020808252818101527f4f776e61626c653a2063616c6c6572206973206e6f7420746865206f776e6572604082015260600190565b6020808252601d908201527f4e6565647320746f20626520616e20616c6c6f776564206d696e746572000000604082015260600190565b60208082526031908201527f4552433732313a207472616e736665722063616c6c6572206973206e6f74206f6040820152701ddb995c881b9bdc88185c1c1c9bdd9959607a1b606082015260800190565b604080519081016001600160401b0381118282101715613ea257613ea261405c565b60405290565b604051601f8201601f191681016001600160401b0381118282101715613ed057613ed061405c565b604052919050565b60006001600160401b03821115613ef157613ef161405c565b5060051b60200190565b60006001600160401b03821115613f1457613f1461405c565b50601f01601f191660200190565b60008219821115613f3557613f3561401a565b500190565b600082613f4957613f49614030565b500490565b6000816000190483118215151615613f6857613f6861401a565b500290565b600082821015613f7f57613f7f61401a565b500390565b60005b83811015613f9f578181015183820152602001613f87565b838111156116355750506000910152565b600181811c90821680613fc457607f821691505b60208210811415613fe557634e487b7160e01b600052602260045260246000fd5b50919050565b6000600019821415613fff57613fff61401a565b5060010190565b60008261401557614015614030565b500690565b634e487b7160e01b600052601160045260246000fd5b634e487b7160e01b600052601260045260246000fd5b634e487b7160e01b600052603260045260246000fd5b634e487b7160e01b600052604160045260246000fd5b6001600160a01b0381168114610dd657600080fd5b6001600160e01b031981168114610dd657600080fdfeddf252ad1be2c89b69c2b068fc378daa952ba7f163c4a11628f55a4df523b3efa26469706673582212206500e6745a44dd0c899f40339d7413664ddc4711fe19f7226cb7a08b2b12eeb964736f6c63430008060033",
  "devdoc": {
    "author": "george baldwin Repository: https://github.com/olta-art/olta-nft-editions",
    "details": "This allows creators to mint a unique serial edition of the same media within a custom contract",
    "kind": "dev",
    "methods": {
      "addVersion(((string,bytes32)[],uint8[3]))": {
        "details": "Adds new version of the media updating the urls rendered in the metadata. The order added determins order stored, the label has no effect.",
        "params": {
          "_version": "The version to be added consisting of urls, hashes and a label"
        }
      },
      "approve(address,uint256)": {
        "details": "See {IERC721-approve}."
      },
      "balanceOf(address)": {
        "details": "See {IERC721-balanceOf}."
      },
      "burn(uint256)": {
        "params": {
          "tokenId": "Token ID to burn User burn function for token id"
        }
      },
      "finalizeEditionSize()": {
        "details": "if edition size was set to zero on initialization this allows the owner of the contract to set the edition size to the total supply"
      },
      "getApproved(uint256)": {
        "details": "See {IERC721-getApproved}."
      },
      "getURIs()": {
        "details": "Get URIs for edition NFT Will get URIs from the last version added",
        "returns": {
          "_0": "imageUrl, imageHash, animationUrl, animationHash"
        }
      },
      "getURIsOfVersion(uint8[3])": {
        "details": "Get URIs for edition NFT of a version Will get URIs from the last version added",
        "params": {
          "label": "The label of the version"
        },
        "returns": {
          "_0": "imageUrl, imageHash, animationUrl, animationHash"
        }
      },
      "initialize(address,string,string,string,((string,bytes32)[],uint8[3]),uint256,uint256)": {
        "details": "Function to create a new project. Can only be called by the allowed creator Sets the only allowed minter to the address that creates/owns the project. This can be re-assigned or updated later",
        "params": {
          "_description": "Description of project, used in the description field of the NFT",
          "_editionSize": "Number of editions that can be minted in total. If 0, unlimited editions can be minted.",
          "_name": "Name of project, used in the title as \"$NAME NUMBER/TOTAL\"",
          "_owner": "User that owns and can mint the project, gets royalty and sales payouts and can update the base url if needed.",
          "_royaltyBPS": "BPS of the royalty set on the contract. Can be 0 for no royalty.",
          "_symbol": "Symbol of the new token contract",
          "_version": "Version of the media consisting of urls and hashes of animation and image content"
        }
      },
      "isApprovedForAll(address,address)": {
        "details": "See {IERC721-isApprovedForAll}."
      },
      "mintEdition(address)": {
        "details": "This mints one edition to the given address by an allowed minter on the edition instance.",
        "params": {
          "to": "address to send the newly minted edition to"
        }
      },
      "mintEditions(address[])": {
        "details": "This mints multiple editions to the given list of addresses.",
        "params": {
          "recipients": "list of addresses to send the newly minted editions to"
        }
      },
      "name()": {
        "details": "See {IERC721Metadata-name}."
      },
      "ownerOf(uint256)": {
        "details": "See {IERC721-ownerOf}."
      },
      "purchase()": {
        "details": "This allows the user to purchase an edition at the given price in the contract."
      },
      "renounceOwnership()": {
        "details": "Leaves the contract without owner. It will not be possible to call `onlyOwner` functions anymore. Can only be called by the current owner. NOTE: Renouncing ownership will leave the contract without an owner, thereby removing any functionality that is only available to the owner."
      },
      "royaltyInfo(uint256,uint256)": {
        "details": "Get royalty information for token",
        "params": {
          "_salePrice": "Sale price for the token"
        }
      },
      "safeTransferFrom(address,address,uint256)": {
        "details": "See {IERC721-safeTransferFrom}."
      },
      "safeTransferFrom(address,address,uint256,bytes)": {
        "details": "See {IERC721-safeTransferFrom}."
      },
      "setApprovalForAll(address,bool)": {
        "details": "See {IERC721-setApprovalForAll}."
      },
      "setApprovedMinter(address,bool)": {
        "details": "Sets the approved minting status of the given address. This requires that msg.sender is the owner of the given edition id. If the ZeroAddress (address(0x0)) is set as a minter, anyone will be allowed to mint. This setup is similar to setApprovalForAll in the ERC721 spec.",
        "params": {
          "allowed": "boolean if that address is allowed to mint",
          "minter": "address to set approved minting status for"
        }
      },
      "setRoyaltyFundsRecipient(address)": {
        "params": {
          "newRecipientAddress": "the new address where royalties will be sent"
        }
      },
      "setSalePrice(uint256)": {
        "details": "This sets a simple ETH sales price Setting a sales price allows users to mint editions until the project sells out. For more granular sales, use an external sales contract.",
        "params": {
          "_salePrice": "if sale price is 0 sale is stopped, otherwise that amount of ETH is needed to start the sale."
        }
      },
      "symbol()": {
        "details": "See {IERC721Metadata-symbol}."
      },
      "tokenURI(uint256)": {
        "details": "Get URI for given token id Will get URIs from the last version added",
        "params": {
          "tokenId": "token id to get uri for"
        },
        "returns": {
          "_0": "base64-encoded json metadata object"
        }
      },
      "tokenURIOfVersion(uint256,uint8[3])": {
        "details": "Get URI for given token id of version",
        "params": {
          "label": "the label of the version",
          "tokenId": "token id to get uri for"
        },
        "returns": {
          "_0": "base64-encoded json metadata object"
        }
      },
      "totalSupply()": {
        "details": "returns the number of minted editions within the project"
      },
      "transferFrom(address,address,uint256)": {
        "details": "See {IERC721-transferFrom}."
      },
      "transferOwnership(address)": {
        "details": "Transfers ownership of the contract to a new account (`newOwner`). Can only be called by the current owner."
      },
      "updateVersionURL(uint8[3],uint8,string)": {
        "details": "Updates a url of specified version by the owner of the edition. Only URLs can be updated (data-uris are supported), hashes cannot be updated.",
        "params": {
          "_label": "The label of the specified version",
          "_url": "The url to be updated to",
          "_urlKey": "The index of the url to update 0=animation, 1=image"
        }
      },
      "withdraw()": {
        "details": "This withdraws ETH from the contract to the contract owner."
      }
    },
    "version": 1
  },
  "userdoc": {
    "kind": "user",
    "methods": {
      "finalizeEditionSize()": {
        "notice": "allows the creator to finalise the edition size to the total minted"
      },
      "numberCanMint()": {
        "notice": "Returns the number of editions allowed to mint (max_uint256 when open edition)"
      },
      "owner()": {
        "notice": "Simple override for owner interface."
      },
      "setRoyaltyFundsRecipient(address)": {
        "notice": "sets a different royalty funds recipient"
      }
    },
    "notice": "This is a smart contract for handling dynamic contract minting. The contract is based on Zora NFT Editions: https://github.com/ourzora/nft-editions - Content urls are versioned allowing for updatable content preserving history - The project contract address is included in edition url for easyier access to query the graph from within the NFT - SupportsInterface function includes project implementation interface",
    "version": 1
  },
  "storageLayout": {
    "storage": [
      {
        "astId": 232,
        "contract": "contracts/Projects/Standard.sol:StandardProject",
        "label": "_initialized",
        "offset": 0,
        "slot": "0",
        "type": "t_bool"
      },
      {
        "astId": 235,
        "contract": "contracts/Projects/Standard.sol:StandardProject",
        "label": "_initializing",
        "offset": 1,
        "slot": "0",
        "type": "t_bool"
      },
      {
        "astId": 1567,
        "contract": "contracts/Projects/Standard.sol:StandardProject",
        "label": "__gap",
        "offset": 0,
        "slot": "1",
        "type": "t_array(t_uint256)50_storage"
      },
      {
        "astId": 1890,
        "contract": "contracts/Projects/Standard.sol:StandardProject",
        "label": "__gap",
        "offset": 0,
        "slot": "51",
        "type": "t_array(t_uint256)50_storage"
      },
      {
        "astId": 301,
        "contract": "contracts/Projects/Standard.sol:StandardProject",
        "label": "_name",
        "offset": 0,
        "slot": "101",
        "type": "t_string_storage"
      },
      {
        "astId": 303,
        "contract": "contracts/Projects/Standard.sol:StandardProject",
        "label": "_symbol",
        "offset": 0,
        "slot": "102",
        "type": "t_string_storage"
      },
      {
        "astId": 307,
        "contract": "contracts/Projects/Standard.sol:StandardProject",
        "label": "_owners",
        "offset": 0,
        "slot": "103",
        "type": "t_mapping(t_uint256,t_address)"
      },
      {
        "astId": 311,
        "contract": "contracts/Projects/Standard.sol:StandardProject",
        "label": "_balances",
        "offset": 0,
        "slot": "104",
        "type": "t_mapping(t_address,t_uint256)"
      },
      {
        "astId": 315,
        "contract": "contracts/Projects/Standard.sol:StandardProject",
        "label": "_tokenApprovals",
        "offset": 0,
        "slot": "105",
        "type": "t_mapping(t_uint256,t_address)"
      },
      {
        "astId": 321,
        "contract": "contracts/Projects/Standard.sol:StandardProject",
        "label": "_operatorApprovals",
        "offset": 0,
        "slot": "106",
        "type": "t_mapping(t_address,t_mapping(t_address,t_bool))"
      },
      {
        "astId": 1117,
        "contract": "contracts/Projects/Standard.sol:StandardProject",
        "label": "__gap",
        "offset": 0,
        "slot": "107",
        "type": "t_array(t_uint256)44_storage"
      },
      {
        "astId": 10,
        "contract": "contracts/Projects/Standard.sol:StandardProject",
        "label": "_owner",
        "offset": 0,
        "slot": "151",
        "type": "t_address"
      },
      {
        "astId": 123,
        "contract": "contracts/Projects/Standard.sol:StandardProject",
        "label": "__gap",
        "offset": 0,
        "slot": "152",
        "type": "t_array(t_uint256)49_storage"
      },
      {
        "astId": 3652,
        "contract": "contracts/Projects/Standard.sol:StandardProject",
        "label": "description",
        "offset": 0,
        "slot": "201",
        "type": "t_string_storage"
      },
      {
        "astId": 3659,
        "contract": "contracts/Projects/Standard.sol:StandardProject",
        "label": "versions",
        "offset": 0,
        "slot": "202",
        "type": "t_struct(Set)5325_storage"
      },
      {
        "astId": 3661,
        "contract": "contracts/Projects/Standard.sol:StandardProject",
        "label": "editionSize",
        "offset": 0,
        "slot": "204",
        "type": "t_uint256"
      },
      {
        "astId": 3664,
        "contract": "contracts/Projects/Standard.sol:StandardProject",
        "label": "atEditionId",
        "offset": 0,
        "slot": "205",
        "type": "t_struct(Counter)1574_storage"
      },
      {
        "astId": 3666,
        "contract": "contracts/Projects/Standard.sol:StandardProject",
        "label": "royaltyBPS",
        "offset": 0,
        "slot": "206",
        "type": "t_uint256"
      },
      {
        "astId": 3670,
        "contract": "contracts/Projects/Standard.sol:StandardProject",
        "label": "allowedMinters",
        "offset": 0,
        "slot": "207",
        "type": "t_mapping(t_address,t_bool)"
      },
      {
        "astId": 3672,
        "contract": "contracts/Projects/Standard.sol:StandardProject",
        "label": "salePrice",
        "offset": 0,
        "slot": "208",
        "type": "t_uint256"
      },
      {
        "astId": 3677,
        "contract": "contracts/Projects/Standard.sol:StandardProject",
        "label": "royaltyFundsRecipient",
        "offset": 0,
        "slot": "209",
        "type": "t_address_payable"
      }
    ],
    "types": {
      "t_address": {
        "encoding": "inplace",
        "label": "address",
        "numberOfBytes": "20"
      },
      "t_address_payable": {
        "encoding": "inplace",
        "label": "address payable",
        "numberOfBytes": "20"
      },
      "t_array(t_string_storage)dyn_storage": {
        "base": "t_string_storage",
        "encoding": "dynamic_array",
        "label": "string[]",
        "numberOfBytes": "32"
      },
      "t_array(t_struct(UrlHashPair)5307_storage)dyn_storage": {
        "base": "t_struct(UrlHashPair)5307_storage",
        "encoding": "dynamic_array",
        "label": "struct Versions.UrlHashPair[]",
        "numberOfBytes": "32"
      },
      "t_array(t_uint256)44_storage": {
        "base": "t_uint256",
        "encoding": "inplace",
        "label": "uint256[44]",
        "numberOfBytes": "1408"
      },
      "t_array(t_uint256)49_storage": {
        "base": "t_uint256",
        "encoding": "inplace",
        "label": "uint256[49]",
        "numberOfBytes": "1568"
      },
      "t_array(t_uint256)50_storage": {
        "base": "t_uint256",
        "encoding": "inplace",
        "label": "uint256[50]",
        "numberOfBytes": "1600"
      },
      "t_array(t_uint8)3_storage": {
        "base": "t_uint8",
        "encoding": "inplace",
        "label": "uint8[3]",
        "numberOfBytes": "32"
      },
      "t_bool": {
        "encoding": "inplace",
        "label": "bool",
        "numberOfBytes": "1"
      },
      "t_bytes32": {
        "encoding": "inplace",
        "label": "bytes32",
        "numberOfBytes": "32"
      },
      "t_mapping(t_address,t_bool)": {
        "encoding": "mapping",
        "key": "t_address",
        "label": "mapping(address => bool)",
        "numberOfBytes": "32",
        "value": "t_bool"
      },
      "t_mapping(t_address,t_mapping(t_address,t_bool))": {
        "encoding": "mapping",
        "key": "t_address",
        "label": "mapping(address => mapping(address => bool))",
        "numberOfBytes": "32",
        "value": "t_mapping(t_address,t_bool)"
      },
      "t_mapping(t_address,t_uint256)": {
        "encoding": "mapping",
        "key": "t_address",
        "label": "mapping(address => uint256)",
        "numberOfBytes": "32",
        "value": "t_uint256"
      },
      "t_mapping(t_string_memory_ptr,t_struct(Version)5316_storage)": {
        "encoding": "mapping",
        "key": "t_string_memory_ptr",
        "label": "mapping(string => struct Versions.Version)",
        "numberOfBytes": "32",
        "value": "t_struct(Version)5316_storage"
      },
      "t_mapping(t_uint256,t_address)": {
        "encoding": "mapping",
        "key": "t_uint256",
        "label": "mapping(uint256 => address)",
        "numberOfBytes": "32",
        "value": "t_address"
      },
      "t_string_memory_ptr": {
        "encoding": "bytes",
        "label": "string",
        "numberOfBytes": "32"
      },
      "t_string_storage": {
        "encoding": "bytes",
        "label": "string",
        "numberOfBytes": "32"
      },
      "t_struct(Counter)1574_storage": {
        "encoding": "inplace",
        "label": "struct CountersUpgradeable.Counter",
        "members": [
          {
            "astId": 1573,
            "contract": "contracts/Projects/Standard.sol:StandardProject",
            "label": "_value",
            "offset": 0,
            "slot": "0",
            "type": "t_uint256"
          }
        ],
        "numberOfBytes": "32"
      },
      "t_struct(Set)5325_storage": {
        "encoding": "inplace",
        "label": "struct Versions.Set",
        "members": [
          {
            "astId": 5319,
            "contract": "contracts/Projects/Standard.sol:StandardProject",
            "label": "labels",
            "offset": 0,
            "slot": "0",
            "type": "t_array(t_string_storage)dyn_storage"
          },
          {
            "astId": 5324,
            "contract": "contracts/Projects/Standard.sol:StandardProject",
            "label": "versions",
            "offset": 0,
            "slot": "1",
            "type": "t_mapping(t_string_memory_ptr,t_struct(Version)5316_storage)"
          }
        ],
        "numberOfBytes": "64"
      },
      "t_struct(UrlHashPair)5307_storage": {
        "encoding": "inplace",
        "label": "struct Versions.UrlHashPair",
        "members": [
          {
            "astId": 5304,
            "contract": "contracts/Projects/Standard.sol:StandardProject",
            "label": "url",
            "offset": 0,
            "slot": "0",
            "type": "t_string_storage"
          },
          {
            "astId": 5306,
            "contract": "contracts/Projects/Standard.sol:StandardProject",
            "label": "sha256hash",
            "offset": 0,
            "slot": "1",
            "type": "t_bytes32"
          }
        ],
        "numberOfBytes": "64"
      },
      "t_struct(Version)5316_storage": {
        "encoding": "inplace",
        "label": "struct Versions.Version",
        "members": [
          {
            "astId": 5311,
            "contract": "contracts/Projects/Standard.sol:StandardProject",
            "label": "urls",
            "offset": 0,
            "slot": "0",
            "type": "t_array(t_struct(UrlHashPair)5307_storage)dyn_storage"
          },
          {
            "astId": 5315,
            "contract": "contracts/Projects/Standard.sol:StandardProject",
            "label": "label",
            "offset": 0,
            "slot": "1",
            "type": "t_array(t_uint8)3_storage"
          }
        ],
        "numberOfBytes": "64"
      },
      "t_uint256": {
        "encoding": "inplace",
        "label": "uint256",
        "numberOfBytes": "32"
      },
      "t_uint8": {
        "encoding": "inplace",
        "label": "uint8",
        "numberOfBytes": "1"
      }
    }
  }
}