{
  "address": "0x94e63759491B0EFfeAa2495d9e7D94A3fAB34579",
  "abi": [
    {
      "inputs": [
        {
          "internalType": "contract SharedNFTLogic",
          "name": "_sharedNFTLogic",
          "type": "address"
        }
      ],
      "stateMutability": "nonpayable",
      "type": "constructor"
    },
    {
      "anonymous": false,
      "inputs": [
        {
          "indexed": true,
          "internalType": "address",
          "name": "owner",
          "type": "address"
        },
        {
          "indexed": true,
          "internalType": "address",
          "name": "approved",
          "type": "address"
        },
        {
          "indexed": true,
          "internalType": "uint256",
          "name": "tokenId",
          "type": "uint256"
        }
      ],
      "name": "Approval",
      "type": "event"
    },
    {
      "anonymous": false,
      "inputs": [
        {
          "indexed": true,
          "internalType": "address",
          "name": "owner",
          "type": "address"
        },
        {
          "indexed": true,
          "internalType": "address",
          "name": "operator",
          "type": "address"
        },
        {
          "indexed": false,
          "internalType": "bool",
          "name": "approved",
          "type": "bool"
        }
      ],
      "name": "ApprovalForAll",
      "type": "event"
    },
    {
      "anonymous": false,
      "inputs": [
        {
          "indexed": true,
          "internalType": "address",
          "name": "owner",
          "type": "address"
        },
        {
          "indexed": true,
          "internalType": "address",
          "name": "minter",
          "type": "address"
        },
        {
          "indexed": false,
          "internalType": "bool",
          "name": "approved",
          "type": "bool"
        }
      ],
      "name": "ApprovedMinter",
      "type": "event"
    },
    {
      "anonymous": false,
      "inputs": [
        {
          "indexed": false,
          "internalType": "uint256",
          "name": "price",
          "type": "uint256"
        },
        {
          "indexed": false,
          "internalType": "address",
          "name": "owner",
          "type": "address"
        }
      ],
      "name": "EditionSold",
      "type": "event"
    },
    {
      "anonymous": false,
      "inputs": [
        {
          "indexed": true,
          "internalType": "address",
          "name": "previousOwner",
          "type": "address"
        },
        {
          "indexed": true,
          "internalType": "address",
          "name": "newOwner",
          "type": "address"
        }
      ],
      "name": "OwnershipTransferred",
      "type": "event"
    },
    {
      "anonymous": false,
      "inputs": [
        {
          "indexed": false,
          "internalType": "uint256",
          "name": "amount",
          "type": "uint256"
        }
      ],
      "name": "PriceChanged",
      "type": "event"
    },
    {
      "anonymous": false,
      "inputs": [
        {
          "indexed": true,
          "internalType": "address",
          "name": "from",
          "type": "address"
        },
        {
          "indexed": true,
          "internalType": "address",
          "name": "to",
          "type": "address"
        },
        {
          "indexed": true,
          "internalType": "uint256",
          "name": "tokenId",
          "type": "uint256"
        }
      ],
      "name": "Transfer",
      "type": "event"
    },
    {
      "anonymous": false,
      "inputs": [
        {
          "indexed": false,
          "internalType": "uint8[3]",
          "name": "label",
          "type": "uint8[3]"
        }
      ],
      "name": "VersionAdded",
      "type": "event"
    },
    {
      "anonymous": false,
      "inputs": [
        {
          "indexed": false,
          "internalType": "uint8[3]",
          "name": "label",
          "type": "uint8[3]"
        },
        {
          "indexed": false,
          "internalType": "uint8",
          "name": "index",
          "type": "uint8"
        },
        {
          "indexed": false,
          "internalType": "string",
          "name": "url",
          "type": "string"
        }
      ],
      "name": "VersionURLUpdated",
      "type": "event"
    },
    {
      "inputs": [
        {
          "components": [
            {
              "components": [
                {
                  "internalType": "string",
                  "name": "url",
                  "type": "string"
                },
                {
                  "internalType": "bytes32",
                  "name": "sha256hash",
                  "type": "bytes32"
                }
              ],
              "internalType": "struct Versions.UrlWithHash[]",
              "name": "urls",
              "type": "tuple[]"
            },
            {
              "internalType": "uint8[3]",
              "name": "label",
              "type": "uint8[3]"
            }
          ],
          "internalType": "struct Versions.Version",
          "name": "_version",
          "type": "tuple"
        }
      ],
      "name": "addVersion",
      "outputs": [],
      "stateMutability": "nonpayable",
      "type": "function"
    },
    {
      "inputs": [
        {
          "internalType": "address",
          "name": "to",
          "type": "address"
        },
        {
          "internalType": "uint256",
          "name": "tokenId",
          "type": "uint256"
        }
      ],
      "name": "approve",
      "outputs": [],
      "stateMutability": "nonpayable",
      "type": "function"
    },
    {
      "inputs": [
        {
          "internalType": "address",
          "name": "owner",
          "type": "address"
        }
      ],
      "name": "balanceOf",
      "outputs": [
        {
          "internalType": "uint256",
          "name": "",
          "type": "uint256"
        }
      ],
      "stateMutability": "view",
      "type": "function"
    },
    {
      "inputs": [
        {
          "internalType": "uint256",
          "name": "tokenId",
          "type": "uint256"
        }
      ],
      "name": "burn",
      "outputs": [],
      "stateMutability": "nonpayable",
      "type": "function"
    },
    {
      "inputs": [],
      "name": "description",
      "outputs": [
        {
          "internalType": "string",
          "name": "",
          "type": "string"
        }
      ],
      "stateMutability": "view",
      "type": "function"
    },
    {
      "inputs": [],
      "name": "editionSize",
      "outputs": [
        {
          "internalType": "uint256",
          "name": "",
          "type": "uint256"
        }
      ],
      "stateMutability": "view",
      "type": "function"
    },
    {
      "inputs": [
        {
          "internalType": "uint256",
          "name": "tokenId",
          "type": "uint256"
        }
      ],
      "name": "getApproved",
      "outputs": [
        {
          "internalType": "address",
          "name": "",
          "type": "address"
        }
      ],
      "stateMutability": "view",
      "type": "function"
    },
    {
      "inputs": [],
      "name": "getURIs",
      "outputs": [
        {
          "internalType": "string",
          "name": "",
          "type": "string"
        },
        {
          "internalType": "bytes32",
          "name": "",
          "type": "bytes32"
        },
        {
          "internalType": "string",
          "name": "",
          "type": "string"
        },
        {
          "internalType": "bytes32",
          "name": "",
          "type": "bytes32"
        }
      ],
      "stateMutability": "view",
      "type": "function"
    },
    {
      "inputs": [
        {
          "internalType": "uint8[3]",
          "name": "label",
          "type": "uint8[3]"
        }
      ],
      "name": "getURIsOfVersion",
      "outputs": [
        {
          "internalType": "string",
          "name": "",
          "type": "string"
        },
        {
          "internalType": "bytes32",
          "name": "",
          "type": "bytes32"
        },
        {
          "internalType": "string",
          "name": "",
          "type": "string"
        },
        {
          "internalType": "bytes32",
          "name": "",
          "type": "bytes32"
        }
      ],
      "stateMutability": "view",
      "type": "function"
    },
    {
      "inputs": [],
      "name": "getVersionHistory",
      "outputs": [
        {
          "components": [
            {
              "components": [
                {
                  "internalType": "string",
                  "name": "url",
                  "type": "string"
                },
                {
                  "internalType": "bytes32",
                  "name": "sha256hash",
                  "type": "bytes32"
                }
              ],
              "internalType": "struct Versions.UrlWithHash[]",
              "name": "urls",
              "type": "tuple[]"
            },
            {
              "internalType": "uint8[3]",
              "name": "label",
              "type": "uint8[3]"
            }
          ],
          "internalType": "struct Versions.Version[]",
          "name": "",
          "type": "tuple[]"
        }
      ],
      "stateMutability": "view",
      "type": "function"
    },
    {
      "inputs": [
        {
          "internalType": "address",
          "name": "_owner",
          "type": "address"
        },
        {
          "internalType": "string",
          "name": "_name",
          "type": "string"
        },
        {
          "internalType": "string",
          "name": "_symbol",
          "type": "string"
        },
        {
          "internalType": "string",
          "name": "_description",
          "type": "string"
        },
        {
          "components": [
            {
              "components": [
                {
                  "internalType": "string",
                  "name": "url",
                  "type": "string"
                },
                {
                  "internalType": "bytes32",
                  "name": "sha256hash",
                  "type": "bytes32"
                }
              ],
              "internalType": "struct Versions.UrlWithHash[]",
              "name": "urls",
              "type": "tuple[]"
            },
            {
              "internalType": "uint8[3]",
              "name": "label",
              "type": "uint8[3]"
            }
          ],
          "internalType": "struct Versions.Version",
          "name": "_version",
          "type": "tuple"
        },
        {
          "internalType": "uint256",
          "name": "_editionSize",
          "type": "uint256"
        },
        {
          "internalType": "uint256",
          "name": "_royaltyBPS",
          "type": "uint256"
        }
      ],
      "name": "initialize",
      "outputs": [],
      "stateMutability": "nonpayable",
      "type": "function"
    },
    {
      "inputs": [
        {
          "internalType": "address",
          "name": "owner",
          "type": "address"
        },
        {
          "internalType": "address",
          "name": "operator",
          "type": "address"
        }
      ],
      "name": "isApprovedForAll",
      "outputs": [
        {
          "internalType": "bool",
          "name": "",
          "type": "bool"
        }
      ],
      "stateMutability": "view",
      "type": "function"
    },
    {
      "inputs": [
        {
          "internalType": "address",
          "name": "to",
          "type": "address"
        },
        {
          "internalType": "uint256",
          "name": "seed",
          "type": "uint256"
        }
      ],
      "name": "mintEdition",
      "outputs": [
        {
          "internalType": "uint256",
          "name": "",
          "type": "uint256"
        }
      ],
      "stateMutability": "nonpayable",
      "type": "function"
    },
    {
      "inputs": [
        {
          "components": [
            {
              "internalType": "address",
              "name": "to",
              "type": "address"
            },
            {
              "internalType": "uint256",
              "name": "seed",
              "type": "uint256"
            }
          ],
          "internalType": "struct MintData[]",
          "name": "recipients",
          "type": "tuple[]"
        }
      ],
      "name": "mintEditions",
      "outputs": [
        {
          "internalType": "uint256",
          "name": "",
          "type": "uint256"
        }
      ],
      "stateMutability": "nonpayable",
      "type": "function"
    },
    {
      "inputs": [],
      "name": "name",
      "outputs": [
        {
          "internalType": "string",
          "name": "",
          "type": "string"
        }
      ],
      "stateMutability": "view",
      "type": "function"
    },
    {
      "inputs": [],
      "name": "numberCanMint",
      "outputs": [
        {
          "internalType": "uint256",
          "name": "",
          "type": "uint256"
        }
      ],
      "stateMutability": "view",
      "type": "function"
    },
    {
      "inputs": [],
      "name": "owner",
      "outputs": [
        {
          "internalType": "address",
          "name": "",
          "type": "address"
        }
      ],
      "stateMutability": "view",
      "type": "function"
    },
    {
      "inputs": [
        {
          "internalType": "uint256",
          "name": "tokenId",
          "type": "uint256"
        }
      ],
      "name": "ownerOf",
      "outputs": [
        {
          "internalType": "address",
          "name": "",
          "type": "address"
        }
      ],
      "stateMutability": "view",
      "type": "function"
    },
    {
      "inputs": [
        {
          "internalType": "uint256",
          "name": "seed",
          "type": "uint256"
        }
      ],
      "name": "purchase",
      "outputs": [
        {
          "internalType": "uint256",
          "name": "",
          "type": "uint256"
        }
      ],
      "stateMutability": "payable",
      "type": "function"
    },
    {
      "inputs": [],
      "name": "renounceOwnership",
      "outputs": [],
      "stateMutability": "nonpayable",
      "type": "function"
    },
    {
      "inputs": [],
      "name": "royaltyBPS",
      "outputs": [
        {
          "internalType": "uint256",
          "name": "",
          "type": "uint256"
        }
      ],
      "stateMutability": "view",
      "type": "function"
    },
    {
      "inputs": [
        {
          "internalType": "uint256",
          "name": "",
          "type": "uint256"
        },
        {
          "internalType": "uint256",
          "name": "_salePrice",
          "type": "uint256"
        }
      ],
      "name": "royaltyInfo",
      "outputs": [
        {
          "internalType": "address",
          "name": "receiver",
          "type": "address"
        },
        {
          "internalType": "uint256",
          "name": "royaltyAmount",
          "type": "uint256"
        }
      ],
      "stateMutability": "view",
      "type": "function"
    },
    {
      "inputs": [
        {
          "internalType": "address",
          "name": "from",
          "type": "address"
        },
        {
          "internalType": "address",
          "name": "to",
          "type": "address"
        },
        {
          "internalType": "uint256",
          "name": "tokenId",
          "type": "uint256"
        }
      ],
      "name": "safeTransferFrom",
      "outputs": [],
      "stateMutability": "nonpayable",
      "type": "function"
    },
    {
      "inputs": [
        {
          "internalType": "address",
          "name": "from",
          "type": "address"
        },
        {
          "internalType": "address",
          "name": "to",
          "type": "address"
        },
        {
          "internalType": "uint256",
          "name": "tokenId",
          "type": "uint256"
        },
        {
          "internalType": "bytes",
          "name": "_data",
          "type": "bytes"
        }
      ],
      "name": "safeTransferFrom",
      "outputs": [],
      "stateMutability": "nonpayable",
      "type": "function"
    },
    {
      "inputs": [],
      "name": "salePrice",
      "outputs": [
        {
          "internalType": "uint256",
          "name": "",
          "type": "uint256"
        }
      ],
      "stateMutability": "view",
      "type": "function"
    },
    {
      "inputs": [
        {
          "internalType": "uint256",
          "name": "",
          "type": "uint256"
        }
      ],
      "name": "seedOfTokens",
      "outputs": [
        {
          "internalType": "uint256",
          "name": "",
          "type": "uint256"
        }
      ],
      "stateMutability": "view",
      "type": "function"
    },
    {
      "inputs": [
        {
          "internalType": "uint256",
          "name": "",
          "type": "uint256"
        }
      ],
      "name": "seedsUsed",
      "outputs": [
        {
          "internalType": "bool",
          "name": "",
          "type": "bool"
        }
      ],
      "stateMutability": "view",
      "type": "function"
    },
    {
      "inputs": [
        {
          "internalType": "address",
          "name": "operator",
          "type": "address"
        },
        {
          "internalType": "bool",
          "name": "approved",
          "type": "bool"
        }
      ],
      "name": "setApprovalForAll",
      "outputs": [],
      "stateMutability": "nonpayable",
      "type": "function"
    },
    {
      "inputs": [
        {
          "internalType": "address",
          "name": "minter",
          "type": "address"
        },
        {
          "internalType": "bool",
          "name": "allowed",
          "type": "bool"
        }
      ],
      "name": "setApprovedMinter",
      "outputs": [],
      "stateMutability": "nonpayable",
      "type": "function"
    },
    {
      "inputs": [
        {
          "internalType": "uint256",
          "name": "_salePrice",
          "type": "uint256"
        }
      ],
      "name": "setSalePrice",
      "outputs": [],
      "stateMutability": "nonpayable",
      "type": "function"
    },
    {
      "inputs": [
        {
          "internalType": "bytes4",
          "name": "interfaceId",
          "type": "bytes4"
        }
      ],
      "name": "supportsInterface",
      "outputs": [
        {
          "internalType": "bool",
          "name": "",
          "type": "bool"
        }
      ],
      "stateMutability": "view",
      "type": "function"
    },
    {
      "inputs": [],
      "name": "symbol",
      "outputs": [
        {
          "internalType": "string",
          "name": "",
          "type": "string"
        }
      ],
      "stateMutability": "view",
      "type": "function"
    },
    {
      "inputs": [
        {
          "internalType": "uint256",
          "name": "tokenId",
          "type": "uint256"
        }
      ],
      "name": "tokenURI",
      "outputs": [
        {
          "internalType": "string",
          "name": "",
          "type": "string"
        }
      ],
      "stateMutability": "view",
      "type": "function"
    },
    {
      "inputs": [
        {
          "internalType": "uint256",
          "name": "tokenId",
          "type": "uint256"
        },
        {
          "internalType": "uint8[3]",
          "name": "label",
          "type": "uint8[3]"
        }
      ],
      "name": "tokenURIOfVersion",
      "outputs": [
        {
          "internalType": "string",
          "name": "",
          "type": "string"
        }
      ],
      "stateMutability": "view",
      "type": "function"
    },
    {
      "inputs": [],
      "name": "totalSupply",
      "outputs": [
        {
          "internalType": "uint256",
          "name": "",
          "type": "uint256"
        }
      ],
      "stateMutability": "view",
      "type": "function"
    },
    {
      "inputs": [
        {
          "internalType": "address",
          "name": "from",
          "type": "address"
        },
        {
          "internalType": "address",
          "name": "to",
          "type": "address"
        },
        {
          "internalType": "uint256",
          "name": "tokenId",
          "type": "uint256"
        }
      ],
      "name": "transferFrom",
      "outputs": [],
      "stateMutability": "nonpayable",
      "type": "function"
    },
    {
      "inputs": [
        {
          "internalType": "address",
          "name": "newOwner",
          "type": "address"
        }
      ],
      "name": "transferOwnership",
      "outputs": [],
      "stateMutability": "nonpayable",
      "type": "function"
    },
    {
      "inputs": [
        {
          "internalType": "uint8[3]",
          "name": "_label",
          "type": "uint8[3]"
        },
        {
          "internalType": "uint8",
          "name": "_urlKey",
          "type": "uint8"
        },
        {
          "internalType": "string",
          "name": "_url",
          "type": "string"
        }
      ],
      "name": "updateVersionURL",
      "outputs": [],
      "stateMutability": "nonpayable",
      "type": "function"
    },
    {
      "inputs": [],
      "name": "withdraw",
      "outputs": [],
      "stateMutability": "nonpayable",
      "type": "function"
    }
  ],
  "transactionHash": "0x3d416a375918d907ffc37450ef05ac76c05bfeb3af2d0ce66bff3be6a787b982",
  "args": [
    "0xC1Cec8b6f07FF45fe6Fba64A898c43e50694FE0E"
  ],
  "solcInputHash": "56169438e4bb47f778d0edd9e861ea14",
  "bytecode": "0x60a06040523480156200001157600080fd5b506040516200402c3803806200402c83398101604081905262000034916200004a565b60601b6001600160601b0319166080526200007c565b6000602082840312156200005d57600080fd5b81516001600160a01b03811681146200007557600080fd5b9392505050565b60805160601c613f8a620000a26000396000818161125901526113f20152613f8a6000f3fe6080604052600436106102205760003560e01c806370a082311161012e578063b9c9d93a116100ab578063efef39a11161006f578063efef39a114610690578063f2fde38b146106a3578063f4ed0f46146106c3578063f51f96dd146106d9578063f92094ea146106ef57600080fd5b8063b9c9d93a146105f8578063c87b56dd1461060e578063d709b1981461062e578063e969327414610650578063e985e9c51461067057600080fd5b806395d89b41116100f257806395d89b4114610563578063a22cb46514610578578063b21d81ae14610598578063b6ddcd52146105b8578063b88d4fde146105d857600080fd5b806370a08231146104d4578063715018a6146104f45780637284e4161461050957806378b4e8971461051e5780638da5cb5b1461054e57600080fd5b806328c5440f116101bc57806342966c681161018057806342966c68146104275780634b0f033b1461044757806351ec35f91461047457806359e59708146104945780636352211e146104b457600080fd5b806328c5440f1461036e57806329ec16dd146103935780632a55205a146103b35780633ccfd60b146103f257806342842e0e1461040757600080fd5b806301ffc9a71461022557806306fdde031461025a578063081812fc1461027c578063095ea7b3146102b45780630b65b6e7146102d657806313d2de32146102f957806318160ddd146103195780631919fed71461032e57806323b872dd1461034e575b600080fd5b34801561023157600080fd5b50610245610240366004613646565b61070f565b60405190151581526020015b60405180910390f35b34801561026657600080fd5b5061026f610755565b6040516102519190613a44565b34801561028857600080fd5b5061029c61029736600461372a565b6107e7565b6040516001600160a01b039091168152602001610251565b3480156102c057600080fd5b506102d46102cf3660046134e1565b610874565b005b3480156102e257600080fd5b506102eb610985565b604051908152602001610251565b34801561030557600080fd5b506102d4610314366004613411565b6109b9565b34801561032557600080fd5b506102eb610ab9565b34801561033a57600080fd5b506102d461034936600461372a565b610ac6565b34801561035a57600080fd5b506102d461036936600461331e565b610b31565b34801561037a57600080fd5b50610383610b63565b6040516102519493929190613a57565b34801561039f57600080fd5b506102d46103ae3660046133d5565b610c0e565b3480156103bf57600080fd5b506103d36103ce366004613767565b610caa565b604080516001600160a01b039093168352602083019190915201610251565b3480156103fe57600080fd5b506102d4610d07565b34801561041357600080fd5b506102d461042236600461331e565b610d49565b34801561043357600080fd5b506102d461044236600461372a565b610d64565b34801561045357600080fd5b506102eb61046236600461372a565b60d16020526000908152604090205481565b34801561048057600080fd5b506102d461048f3660046136f6565b610db4565b3480156104a057600080fd5b506102eb6104af3660046134e1565b610e21565b3480156104c057600080fd5b5061029c6104cf36600461372a565b610ed4565b3480156104e057600080fd5b506102eb6104ef3660046132d0565b610f4b565b34801561050057600080fd5b506102d4610fd2565b34801561051557600080fd5b5061026f61100b565b34801561052a57600080fd5b5061024561053936600461372a565b60d06020526000908152604090205460ff1681565b34801561055a57600080fd5b5061029c611099565b34801561056f57600080fd5b5061026f6110ad565b34801561058457600080fd5b506102d46105933660046133d5565b6110bc565b3480156105a457600080fd5b506103836105b33660046135cc565b611176565b3480156105c457600080fd5b5061026f6105d3366004613743565b611221565b3480156105e457600080fd5b506102d46105f336600461335a565b611383565b34801561060457600080fd5b506102eb60ce5481565b34801561061a57600080fd5b5061026f61062936600461372a565b6113bb565b34801561063a57600080fd5b50610643611523565b6040516102519190613943565b34801561065c57600080fd5b506102d461066b3660046135e8565b61152f565b34801561067c57600080fd5b5061024561068b3660046132eb565b6115ae565b6102eb61069e36600461372a565b6115dc565b3480156106af57600080fd5b506102d46106be3660046132d0565b61172f565b3480156106cf57600080fd5b506102eb60cc5481565b3480156106e557600080fd5b506102eb60d25481565b3480156106fb57600080fd5b506102eb61070a36600461350b565b6117cc565b6000631302bf2f60e11b6001600160e01b031983161480610740575063152a902d60e11b6001600160e01b03198316145b8061074f575061074f826117fb565b92915050565b60606065805461076490613e5c565b80601f016020809104026020016040519081016040528092919081815260200182805461079090613e5c565b80156107dd5780601f106107b2576101008083540402835291602001916107dd565b820191906000526020600020905b8154815290600101906020018083116107c057829003601f168201915b5050505050905090565b60006107f28261184b565b6108585760405162461bcd60e51b815260206004820152602c60248201527f4552433732313a20617070726f76656420717565727920666f72206e6f6e657860448201526b34b9ba32b73a103a37b5b2b760a11b60648201526084015b60405180910390fd5b506000908152606960205260409020546001600160a01b031690565b600061087f82610ed4565b9050806001600160a01b0316836001600160a01b031614156108ed5760405162461bcd60e51b815260206004820152602160248201527f4552433732313a20617070726f76616c20746f2063757272656e74206f776e656044820152603960f91b606482015260840161084f565b336001600160a01b0382161480610909575061090981336115ae565b6109765760405162461bcd60e51b815260206004820152603860248201527f4552433732313a20617070726f76652063616c6c6572206973206e6f74206f776044820152771b995c881b9bdc88185c1c1c9bdd995908199bdc88185b1b60421b606482015260840161084f565b6109808383611868565b505050565b600060cc5460001415610999575060001990565b60cd5460cc546109aa906001613dce565b6109b49190613e19565b905090565b600054610100900460ff16806109d2575060005460ff16155b6109ee5760405162461bcd60e51b815260040161084f90613bdc565b600054610100900460ff16158015610a10576000805461ffff19166101011790555b610a1a87876118d6565b610a2261195d565b610a2b8861172f565b8451610a3e9060c9906020880190612f5a565b5060cc83905560ce829055610a5760cd80546001019055565b610a6260ca856119d8565b7f166b7e506b0600a3fd1259824a1311e569ddb4194c483361dbd1888632897dfa8460200151604051610a959190613a0d565b60405180910390a18015610aaf576000805461ff00191690555b5050505050505050565b600060016109aa60cd5490565b33610acf611099565b6001600160a01b031614610af55760405162461bcd60e51b815260040161084f90613c6f565b60d28190556040518181527fa6dc15bdb68da224c66db4b3838d9a2b205138e8cff6774e57d0af91e196d622906020015b60405180910390a150565b610b3c335b82611b6d565b610b585760405162461bcd60e51b815260040161084f90613cdb565b610980838383611c2f565b606060006060600080610b7660ca611dbd565b8051909150600060ff1681518110610b9057610b90613ef2565b60209081029190910101515181518051600090610baf57610baf613ef2565b6020908102919091018101510151825180516001908110610bd257610bd2613ef2565b602090810291909101015151835180516001908110610bf357610bf3613ef2565b60200260200101516020015194509450945094505090919293565b33610c17611099565b6001600160a01b031614610c3d5760405162461bcd60e51b815260040161084f90613c6f565b6001600160a01b038216600081815260cf60205260409020805460ff1916831515179055336001600160a01b03167f8cd75c8017bbe4f4552de2caa02ab21b1e3918c4693ab35db62125a620999fcc83604051610c9e911515815260200190565b60405180910390a35050565b60008080610cb6611099565b6001600160a01b03161415610cd857610ccd611099565b600091509150610d00565b610ce0611099565b61271060ce5485610cf19190613dfa565b610cfb9190613de6565b915091505b9250929050565b33610d10611099565b6001600160a01b031614610d365760405162461bcd60e51b815260040161084f90613c6f565b610d47610d41611099565b47611fb2565b565b61098083838360405180602001604052806000815250611383565b610d6d33610b36565b610da85760405162461bcd60e51b815260206004820152600c60248201526b139bdd08185c1c1c9bdd995960a21b604482015260640161084f565b610db1816120cb565b50565b33610dbd611099565b6001600160a01b031614610de35760405162461bcd60e51b815260040161084f90613c6f565b610dee60ca826119d8565b7f166b7e506b0600a3fd1259824a1311e569ddb4194c483361dbd1888632897dfa8160200151604051610b269190613a0d565b6000610e2b612154565b610e475760405162461bcd60e51b815260040161084f90613ca4565b604080516001808252818301909252600091816020015b6040805180820190915260008082526020820152815260200190600190039081610e5e5790505090506040518060400160405280856001600160a01b031681526020018481525081600081518110610eb857610eb8613ef2565b6020026020010181905250610ecc816121c4565b949350505050565b6000818152606760205260408120546001600160a01b03168061074f5760405162461bcd60e51b815260206004820152602960248201527f4552433732313a206f776e657220717565727920666f72206e6f6e657869737460448201526832b73a103a37b5b2b760b91b606482015260840161084f565b60006001600160a01b038216610fb65760405162461bcd60e51b815260206004820152602a60248201527f4552433732313a2062616c616e636520717565727920666f7220746865207a65604482015269726f206164647265737360b01b606482015260840161084f565b506001600160a01b031660009081526068602052604090205490565b33610fdb611099565b6001600160a01b0316146110015760405162461bcd60e51b815260040161084f90613c6f565b610d4760006122ea565b60c9805461101890613e5c565b80601f016020809104026020016040519081016040528092919081815260200182805461104490613e5c565b80156110915780601f1061106657610100808354040283529160200191611091565b820191906000526020600020905b81548152906001019060200180831161107457829003601f168201915b505050505081565b60006109b46097546001600160a01b031690565b60606066805461076490613e5c565b6001600160a01b0382163314156111115760405162461bcd60e51b815260206004820152601960248201527822a9219b99189d1030b8383937bb32903a379031b0b63632b960391b604482015260640161084f565b336000818152606a602090815260408083206001600160a01b03871680855290835292819020805460ff191686151590811790915590519081529192917f17307eab39ab6107e8899845ad3d59bd9653f200f220920489ca2b5937696c319101610c9e565b6060600081818061118860ca8761233c565b8051909150600060ff16815181106111a2576111a2613ef2565b602090810291909101015151815180516000906111c1576111c1613ef2565b60209081029190910181015101518251805160019081106111e4576111e4613ef2565b60209081029190910101515183518051600190811061120557611205613ef2565b6020026020010151602001519450945094509450509193509193565b606061122c8361184b565b6112485760405162461bcd60e51b815260040161084f90613bba565b600061125560ca8461233c565b90507f00000000000000000000000000000000000000000000000000000000000000006001600160a01b0316634309a53961128e610755565b60408051606081019091528451805160c9929182916000906112b2576112b2613ef2565b6020908102919091018101515182528751910190600160ff16815181106112db576112db613ef2565b602002602001015160000151815260200186602001518152508860cc543060d160008d8152602001908152602001600020546040518863ffffffff1660e01b815260040161132f9796959493929190613a94565b60006040518083038186803b15801561134757600080fd5b505afa15801561135b573d6000803e3d6000fd5b505050506040513d6000823e601f3d908101601f19168201604052610ecc9190810190613680565b61138d3383611b6d565b6113a95760405162461bcd60e51b815260040161084f90613cdb565b6113b5848484846124e1565b50505050565b60606113c68261184b565b6113e25760405162461bcd60e51b815260040161084f90613bba565b60006113ee60ca611dbd565b90507f00000000000000000000000000000000000000000000000000000000000000006001600160a01b0316634309a539611427610755565b60408051606081019091528451805160c99291829160009061144b5761144b613ef2565b6020908102919091018101515182528751910190600160ff168151811061147457611474613ef2565b602002602001015160000151815260200186602001518152508760cc543060d160008c8152602001908152602001600020546040518863ffffffff1660e01b81526004016114c89796959493929190613a94565b60006040518083038186803b1580156114e057600080fd5b505afa1580156114f4573d6000803e3d6000fd5b505050506040513d6000823e601f3d908101601f1916820160405261151c9190810190613680565b9392505050565b60606109b460ca612514565b33611538611099565b6001600160a01b03161461155e5760405162461bcd60e51b815260040161084f90613c6f565b61156e60ca8460ff8516846125f3565b7f3cdb3b7fee8bd4227020e3bde799a81de9023d479ba5c7825521fd3b8242af468383836040516115a193929190613a1b565b60405180910390a1505050565b6001600160a01b039182166000908152606a6020908152604080832093909416825291909152205460ff1690565b60008060d2541161161e5760405162461bcd60e51b815260206004820152600c60248201526b4e6f7420666f722073616c6560a01b604482015260640161084f565b60d254341461165d5760405162461bcd60e51b815260206004820152600b60248201526a57726f6e6720707269636560a81b604482015260640161084f565b604080516001808252818301909252600091816020015b60408051808201909152600080825260208201528152602001906001900390816116745790505090506040518060400160405280336001600160a01b0316815260200184815250816000815181106116ce576116ce613ef2565b60200260200101819052507f60a6c75698fadb72223808131f9f9bb9db3afa32122db6d94fb8fc985a504baa60d2543360405161171e9291909182526001600160a01b0316602082015260400190565b60405180910390a161151c816121c4565b33611738611099565b6001600160a01b03161461175e5760405162461bcd60e51b815260040161084f90613c6f565b6001600160a01b0381166117c35760405162461bcd60e51b815260206004820152602660248201527f4f776e61626c653a206e6577206f776e657220697320746865207a65726f206160448201526564647265737360d01b606482015260840161084f565b610db1816122ea565b60006117d6612154565b6117f25760405162461bcd60e51b815260040161084f90613ca4565b61074f826121c4565b60006001600160e01b031982166380ac58cd60e01b148061182c57506001600160e01b03198216635b5e139f60e01b145b8061074f57506301ffc9a760e01b6001600160e01b031983161461074f565b6000908152606760205260409020546001600160a01b0316151590565b600081815260696020526040902080546001600160a01b0319166001600160a01b038416908117909155819061189d82610ed4565b6001600160a01b03167f8c5be1e5ebec7d5bd14f71427d1e84f3dd0314c0f7b2291e5b200ac8c7c3b92560405160405180910390a45050565b600054610100900460ff16806118ef575060005460ff16155b61190b5760405162461bcd60e51b815260040161084f90613bdc565b600054610100900460ff1615801561192d576000805461ffff19166101011790555b611935612729565b61193d612729565b6119478383612793565b8015610980576000805461ff0019169055505050565b600054610100900460ff1680611976575060005460ff16155b6119925760405162461bcd60e51b815260040161084f90613bdc565b600054610100900460ff161580156119b4576000805461ffff19166101011790555b6119bc612729565b6119c4612828565b8015610db1576000805461ff001916905550565b60006119e78260200151612888565b905082600101816040516119fb919061381e565b9081526040519081900360200190205415611a745760405162461bcd60e51b815260206004820152603360248201527f2356657273696f6e733a20412076657273696f6e20776974682074686174206c6044820152726162656c20616c72656164792065786973747360681b606482015260840161084f565b825460018101845560008481526020908190208351611a9a939190910191840190612f5a565b5060005b825151811015611b36578360010182604051611aba919061381e565b9081526040519081900360200190208351805183908110611add57611add613ef2565b602090810291909101810151825460018101845560009384529282902081518051929460020290910192611b1692849290910190612f5a565b506020820151816001015550508080611b2e90613e97565b915050611a9e565b5081602001518360010182604051611b4e919061381e565b90815260200160405180910390206001019060036113b5929190612fde565b6000611b788261184b565b611bd95760405162461bcd60e51b815260206004820152602c60248201527f4552433732313a206f70657261746f7220717565727920666f72206e6f6e657860448201526b34b9ba32b73a103a37b5b2b760a11b606482015260840161084f565b6000611be483610ed4565b9050806001600160a01b0316846001600160a01b03161480611c1f5750836001600160a01b0316611c14846107e7565b6001600160a01b0316145b80610ecc5750610ecc81856115ae565b826001600160a01b0316611c4282610ed4565b6001600160a01b031614611caa5760405162461bcd60e51b815260206004820152602960248201527f4552433732313a207472616e73666572206f6620746f6b656e2074686174206960448201526839903737ba1037bbb760b91b606482015260840161084f565b6001600160a01b038216611d0c5760405162461bcd60e51b8152602060048201526024808201527f4552433732313a207472616e7366657220746f20746865207a65726f206164646044820152637265737360e01b606482015260840161084f565b611d17600082611868565b6001600160a01b0383166000908152606860205260408120805460019290611d40908490613e19565b90915550506001600160a01b0382166000908152606860205260408120805460019290611d6e908490613dce565b909155505060008181526067602052604080822080546001600160a01b0319166001600160a01b038681169182179092559151849391871691600080516020613f3583398151915291a4505050565b611dc561306c565b8154611e135760405162461bcd60e51b815260206004820152601c60248201527f2356657273696f6e733a204e6f2076657273696f6e7320657869737400000000604482015260640161084f565b81546001808401918491611e2691613e19565b81548110611e3657611e36613ef2565b90600052602060002001604051611e4d9190613894565b908152604080519182900360209081018320805460609281028501830184529284018381529092849284919060009085015b82821015611f4d5783829060005260206000209060020201604051806040016040529081600082018054611eb290613e5c565b80601f0160208091040260200160405190810160405280929190818152602001828054611ede90613e5c565b8015611f2b5780601f10611f0057610100808354040283529160200191611f2b565b820191906000526020600020905b815481529060010190602001808311611f0e57829003601f168201915b5050505050815260200160018201548152505081526020019060010190611e7f565b50505090825250604080516060810191829052602090920191906001840190600390826000855b825461010083900a900460ff16815260206001928301818104948501949093039092029101808411611f745790505050505050815250509050919050565b804710156120025760405162461bcd60e51b815260206004820152601d60248201527f416464726573733a20696e73756666696369656e742062616c616e6365000000604482015260640161084f565b6000826001600160a01b03168260405160006040518083038185875af1925050503d806000811461204f576040519150601f19603f3d011682016040523d82523d6000602084013e612054565b606091505b50509050806109805760405162461bcd60e51b815260206004820152603a60248201527f416464726573733a20756e61626c6520746f2073656e642076616c75652c207260448201527f6563697069656e74206d61792068617665207265766572746564000000000000606482015260840161084f565b60006120d682610ed4565b90506120e3600083611868565b6001600160a01b038116600090815260686020526040812080546001929061210c908490613e19565b909155505060008281526067602052604080822080546001600160a01b0319169055518391906001600160a01b03841690600080516020613f35833981519152908390a45050565b60003361215f611099565b6001600160a01b031614156121745750600190565b6000805260cf6020527fe02c59459e6ae69bba35526a32783b104c6119df0d640a9ac4990ec2f8d493a95460ff16156121ad5750600190565b5033600090815260cf602052604090205460ff1690565b6000806121d060cd5490565b9050600060018451836121e39190613dce565b6121ed9190613e19565b905060cc5460001480612202575060cc548111155b6122395760405162461bcd60e51b815260206004820152600860248201526714dbdb19081bdd5d60c21b604482015260640161084f565b8061224360cd5490565b116122df5761228a61225460cd5490565b858461225f60cd5490565b6122699190613e19565b8151811061227957612279613ef2565b6020026020010151602001516128dc565b6122cc848361229860cd5490565b6122a29190613e19565b815181106122b2576122b2613ef2565b6020026020010151600001516122c760cd5490565b6129a2565b6122da60cd80546001019055565b612239565b60cd54949350505050565b609780546001600160a01b038381166001600160a01b0319831681179093556040519116919082907f8be0079c531659141344cd1fd0a4f28419497f9722a3daafe3b4186f6b6457e090600090a35050565b61234461306c565b60008360010161235384612888565b604051612360919061381e565b908152604080519182900360209081018320805460609281028501830184529284018381529092849284919060009085015b8282101561246057838290600052602060002090600202016040518060400160405290816000820180546123c590613e5c565b80601f01602080910402602001604051908101604052809291908181526020018280546123f190613e5c565b801561243e5780601f106124135761010080835404028352916020019161243e565b820191906000526020600020905b81548152906001019060200180831161242157829003601f168201915b5050505050815260200160018201548152505081526020019060010190612392565b50505090825250604080516060810191829052602090920191906001840190600390826000855b825461010083900a900460ff168152602060019283018181049485019490930390920291018084116124875790505050509190925250508151519192505061151c5760405162461bcd60e51b815260040161084f90613c2a565b6124ec848484611c2f565b6124f884848484612ac3565b6113b55760405162461bcd60e51b815260040161084f90613b68565b606061074f8283600001805480602002602001604051908101604052809291908181526020016000905b828210156125ea57838290600052602060002001805461255d90613e5c565b80601f016020809104026020016040519081016040528092919081815260200182805461258990613e5c565b80156125d65780601f106125ab576101008083540402835291602001916125d6565b820191906000526020600020905b8154815290600101906020018083116125b957829003601f168201915b50505050508152602001906001019061253e565b50505050612bd0565b60006125fe84612888565b90508460010181604051612612919061381e565b9081526040519081900360200190205461263e5760405162461bcd60e51b815260040161084f90613c2a565b828560010182604051612651919061381e565b90815260405190819003602001902054116126c85760405162461bcd60e51b815260206004820152603160248201527f2356657273696f6e733a205468652075726c20646f6573206e6f7420657869736044820152703a1037b7103a3430ba103b32b939b4b7b760791b606482015260840161084f565b8185600101826040516126db919061381e565b908152602001604051809103902060000184815481106126fd576126fd613ef2565b90600052602060002090600202016000019080519060200190612721929190612f5a565b505050505050565b600054610100900460ff1680612742575060005460ff16155b61275e5760405162461bcd60e51b815260040161084f90613bdc565b600054610100900460ff161580156119c4576000805461ffff19166101011790558015610db1576000805461ff001916905550565b600054610100900460ff16806127ac575060005460ff16155b6127c85760405162461bcd60e51b815260040161084f90613bdc565b600054610100900460ff161580156127ea576000805461ffff19166101011790555b82516127fd906065906020860190612f5a565b508151612811906066906020850190612f5a565b508015610980576000805461ff0019169055505050565b600054610100900460ff1680612841575060005460ff16155b61285d5760405162461bcd60e51b815260040161084f90613bdc565b600054610100900460ff1615801561287f576000805461ffff19166101011790555b6119c4336122ea565b606061289e8260005b602002015160ff16612e48565b6128a9836001612891565b6128b4846002612891565b6040516020016128c69392919061383a565b6040516020818303038152906040529050919050565b600081815260d0602052604090205460ff161561292f5760405162461bcd60e51b815260206004820152601160248201527014d9595908185b1c9958591e481d5cd959607a1b604482015260640161084f565b61293881612f45565b6129785760405162461bcd60e51b815260206004820152601160248201527053656564206f7574206f662072616e676560781b604482015260640161084f565b600081815260d060209081526040808320805460ff1916600117905593825260d190529190912055565b6001600160a01b0382166129f85760405162461bcd60e51b815260206004820181905260248201527f4552433732313a206d696e7420746f20746865207a65726f2061646472657373604482015260640161084f565b612a018161184b565b15612a4e5760405162461bcd60e51b815260206004820152601c60248201527f4552433732313a20746f6b656e20616c7265616479206d696e74656400000000604482015260640161084f565b6001600160a01b0382166000908152606860205260408120805460019290612a77908490613dce565b909155505060008181526067602052604080822080546001600160a01b0319166001600160a01b0386169081179091559051839290600080516020613f35833981519152908290a45050565b60006001600160a01b0384163b15612bc557604051630a85bd0160e11b81526001600160a01b0385169063150b7a0290612b07903390899088908890600401613906565b602060405180830381600087803b158015612b2157600080fd5b505af1925050508015612b51575060408051601f3d908101601f19168201909252612b4e91810190613663565b60015b612bab573d808015612b7f576040519150601f19603f3d011682016040523d82523d6000602084013e612b84565b606091505b508051612ba35760405162461bcd60e51b815260040161084f90613b68565b805181602001fd5b6001600160e01b031916630a85bd0160e11b149050610ecc565b506001949350505050565b6060815160001415612c245760405162461bcd60e51b815260206004820152601d60248201527f2356657273696f6e733a204e6f206c6162656c732070726f7669646564000000604482015260640161084f565b600082516001600160401b03811115612c3f57612c3f613f08565b604051908082528060200260200182016040528015612c7857816020015b612c6561306c565b815260200190600190039081612c5d5790505b50905060005b8351811015612e405784600101848281518110612c9d57612c9d613ef2565b6020026020010151604051612cb2919061381e565b908152604080519182900360209081018320805460609281028501830184529284018381529092849284919060009085015b82821015612db25783829060005260206000209060020201604051806040016040529081600082018054612d1790613e5c565b80601f0160208091040260200160405190810160405280929190818152602001828054612d4390613e5c565b8015612d905780601f10612d6557610100808354040283529160200191612d90565b820191906000526020600020905b815481529060010190602001808311612d7357829003601f168201915b5050505050815260200160018201548152505081526020019060010190612ce4565b50505090825250604080516060810191829052602090920191906001840190600390826000855b825461010083900a900460ff16815260206001928301818104948501949093039092029101808411612dd9579050505050505081525050828281518110612e2257612e22613ef2565b60200260200101819052508080612e3890613e97565b915050612c7e565b509392505050565b606081612e6c5750506040805180820190915260018152600360fc1b602082015290565b8160005b8115612e965780612e8081613e97565b9150612e8f9050600a83613de6565b9150612e70565b6000816001600160401b03811115612eb057612eb0613f08565b6040519080825280601f01601f191660200182016040528015612eda576020820181803683370190505b5090505b8415610ecc57612eef600183613e19565b9150612efc600a86613eb2565b612f07906030613dce565b60f81b818381518110612f1c57612f1c613ef2565b60200101906001600160f81b031916908160001a905350612f3e600a86613de6565b9450612ede565b6000808211801561074f57505060cc54101590565b828054612f6690613e5c565b90600052602060002090601f016020900481019282612f885760008555612fce565b82601f10612fa157805160ff1916838001178555612fce565b82800160010185558215612fce579182015b82811115612fce578251825591602001919060010190612fb3565b50612fda92915061308b565b5090565b600183019183908215612fce5791602002820160005b8382111561303257835183826101000a81548160ff021916908360ff1602179055509260200192600101602081600001049283019260010302612ff4565b801561305f5782816101000a81549060ff0219169055600101602081600001049283019260010302613032565b5050612fda92915061308b565b6040518060400160405280606081526020016130866130a0565b905290565b5b80821115612fda576000815560010161308c565b60405180606001604052806003906020820280368337509192915050565b60006130d16130cc84613da7565b613d54565b90508281528383830111156130e557600080fd5b828260208301376000602084830101529392505050565b80356001600160a01b038116811461311357600080fd5b919050565b600082601f83011261312957600080fd5b604051606081018181106001600160401b038211171561314b5761314b613f08565b60405280836060810186101561316057600080fd5b60005b600381101561318a57613175826132bf565b83526020928301929190910190600101613163565b509195945050505050565b600082601f8301126131a657600080fd5b61151c838335602085016130be565b6000608082840312156131c757600080fd5b6131cf613d2c565b905081356001600160401b03808211156131e857600080fd5b818401915084601f8301126131fc57600080fd5b8135602061320c6130cc83613d84565b80838252828201915082860189848660051b890101111561322c57600080fd5b60005b858110156132a05781358781111561324657600080fd5b88016040818d03601f190181131561325d57600080fd5b613265613d2c565b878301358a81111561327657600080fd5b6132848f8a83870101613195565b825250910135868201528452928401929084019060010161322f565b50508652506132b187878301613118565b818601525050505092915050565b803560ff8116811461311357600080fd5b6000602082840312156132e257600080fd5b61151c826130fc565b600080604083850312156132fe57600080fd5b613307836130fc565b9150613315602084016130fc565b90509250929050565b60008060006060848603121561333357600080fd5b61333c846130fc565b925061334a602085016130fc565b9150604084013590509250925092565b6000806000806080858703121561337057600080fd5b613379856130fc565b9350613387602086016130fc565b92506040850135915060608501356001600160401b038111156133a957600080fd5b8501601f810187136133ba57600080fd5b6133c9878235602084016130be565b91505092959194509250565b600080604083850312156133e857600080fd5b6133f1836130fc565b91506020830135801515811461340657600080fd5b809150509250929050565b600080600080600080600060e0888a03121561342c57600080fd5b613435886130fc565b965060208801356001600160401b038082111561345157600080fd5b61345d8b838c01613195565b975060408a013591508082111561347357600080fd5b61347f8b838c01613195565b965060608a013591508082111561349557600080fd5b6134a18b838c01613195565b955060808a01359150808211156134b757600080fd5b506134c48a828b016131b5565b93505060a0880135915060c0880135905092959891949750929550565b600080604083850312156134f457600080fd5b6134fd836130fc565b946020939093013593505050565b6000602080838503121561351e57600080fd5b82356001600160401b0381111561353457600080fd5b8301601f8101851361354557600080fd5b80356135536130cc82613d84565b80828252848201915084840188868560061b870101111561357357600080fd5b60009450845b848110156135be57604080838c031215613591578687fd5b613599613d2c565b6135a2846130fc565b8152838901358982015285529387019390910190600101613579565b509098975050505050505050565b6000606082840312156135de57600080fd5b61151c8383613118565b600080600060a084860312156135fd57600080fd5b6136078585613118565b9250613615606085016132bf565b915060808401356001600160401b0381111561363057600080fd5b61363c86828701613195565b9150509250925092565b60006020828403121561365857600080fd5b813561151c81613f1e565b60006020828403121561367557600080fd5b815161151c81613f1e565b60006020828403121561369257600080fd5b81516001600160401b038111156136a857600080fd5b8201601f810184136136b957600080fd5b80516136c76130cc82613da7565b8181528560208385010111156136dc57600080fd5b6136ed826020830160208601613e30565b95945050505050565b60006020828403121561370857600080fd5b81356001600160401b0381111561371e57600080fd5b610ecc848285016131b5565b60006020828403121561373c57600080fd5b5035919050565b6000806080838503121561375657600080fd5b823591506133158460208501613118565b6000806040838503121561377a57600080fd5b50508035926020909101359150565b8060005b60038110156113b557815160ff1684526020938401939091019060010161378d565b600081518084526137c7816020860160208601613e30565b601f01601f19169290920160200192915050565b6000815160a084526137f060a08501826137af565b90506020830151848203602086015261380982826137af565b9150506040830151612e406040860182613789565b60008251613830818460208701613e30565b9190910192915050565b6000845161384c818460208901613e30565b8083019050601760f91b808252855161386c816001850160208a01613e30565b60019201918201528351613887816002840160208801613e30565b0160020195945050505050565b60008083546138a281613e5c565b600182811680156138ba57600181146138cb576138fa565b60ff198416875282870194506138fa565b8760005260208060002060005b858110156138f15781548a8201529084019082016138d8565b50505082870194505b50929695505050505050565b6001600160a01b0385811682528416602082015260408101839052608060608201819052600090613939908301846137af565b9695505050505050565b60006020808301818452808551808352604092508286019150828160051b87010184880160005b838110156135be57888303603f19018552815180516080808652815190860181905260a080870192600583901b880190910191908b019060005b818110156139e557888403609f19018552825180518d86526139c88e8701826137af565b918f0151958f0195909552948d01949350918c01916001016139a4565b50505091890151916139f9868b0184613789565b96890196945050509086019060010161396a565b6060810161074f8284613789565b613a258185613789565b60ff8316606082015260a0608082015260006136ed60a08301846137af565b60208152600061151c60208301846137af565b608081526000613a6a60808301876137af565b8560208401528281036040840152613a8281866137af565b91505082606083015295945050505050565b60e081526000613aa760e083018a6137af565b60208382038185015260008a54613abd81613e5c565b80855260018281168015613ad85760018114613aec57613b1a565b60ff19841687870152604087019450613b1a565b8e6000528560002060005b84811015613b12578154898201890152908301908701613af7565b880187019550505b505050508481036040860152613b30818b6137db565b9350505050856060830152846080830152613b5660a08301856001600160a01b03169052565b8260c083015298975050505050505050565b60208082526032908201527f4552433732313a207472616e7366657220746f206e6f6e20455243373231526560408201527131b2b4bb32b91034b6b83632b6b2b73a32b960711b606082015260800190565b6020808252600890820152672737903a37b5b2b760c11b604082015260600190565b6020808252602e908201527f496e697469616c697a61626c653a20636f6e747261637420697320616c72656160408201526d191e481a5b9a5d1a585b1a5e995960921b606082015260800190565b60208082526025908201527f2356657273696f6e733a205468652076657273696f6e20646f6573206e6f7420604082015264195e1a5cdd60da1b606082015260800190565b6020808252818101527f4f776e61626c653a2063616c6c6572206973206e6f7420746865206f776e6572604082015260600190565b6020808252601d908201527f4e6565647320746f20626520616e20616c6c6f776564206d696e746572000000604082015260600190565b60208082526031908201527f4552433732313a207472616e736665722063616c6c6572206973206e6f74206f6040820152701ddb995c881b9bdc88185c1c1c9bdd9959607a1b606082015260800190565b604080519081016001600160401b0381118282101715613d4e57613d4e613f08565b60405290565b604051601f8201601f191681016001600160401b0381118282101715613d7c57613d7c613f08565b604052919050565b60006001600160401b03821115613d9d57613d9d613f08565b5060051b60200190565b60006001600160401b03821115613dc057613dc0613f08565b50601f01601f191660200190565b60008219821115613de157613de1613ec6565b500190565b600082613df557613df5613edc565b500490565b6000816000190483118215151615613e1457613e14613ec6565b500290565b600082821015613e2b57613e2b613ec6565b500390565b60005b83811015613e4b578181015183820152602001613e33565b838111156113b55750506000910152565b600181811c90821680613e7057607f821691505b60208210811415613e9157634e487b7160e01b600052602260045260246000fd5b50919050565b6000600019821415613eab57613eab613ec6565b5060010190565b600082613ec157613ec1613edc565b500690565b634e487b7160e01b600052601160045260246000fd5b634e487b7160e01b600052601260045260246000fd5b634e487b7160e01b600052603260045260246000fd5b634e487b7160e01b600052604160045260246000fd5b6001600160e01b031981168114610db157600080fdfeddf252ad1be2c89b69c2b068fc378daa952ba7f163c4a11628f55a4df523b3efa2646970667358221220e12651f86287ef5be290d6a5a0147cc9019e0ee976a273f125de424d8fb0b28664736f6c63430008060033",
  "devdoc": {
    "author": "iain nash Repository: https://github.com/ourzora/nft-editions",
    "details": "This allows creators to mint a unique serial edition of the same media within a custom contract",
    "events": {
      "ApprovedMinter(address,address,bool)": {
        "params": {
          "approved": "a boolean indicating the approval status",
          "minter": "the address of the approved minter",
          "owner": "the address of the owner of the editions contract"
        }
      },
      "VersionAdded(uint8[3])": {
        "params": {
          "label": "the semantic version label added"
        }
      },
      "VersionURLUpdated(uint8[3],uint8,string)": {
        "params": {
          "index": "the url index 0 = image, 1 = animation",
          "label": "the semantic version label that the url is being updated",
          "url": "the url to be updated to"
        }
      }
    },
    "kind": "dev",
    "methods": {
      "addVersion(((string,bytes32)[],uint8[3]))": {
        "details": "Adds new version of the media updating the urls rendered in the metadata. The order added determins order stored, the label has no effect.",
        "params": {
          "_version": "The version to be added consisting of urls, hashes and a label"
        }
      },
      "approve(address,uint256)": {
        "details": "See {IERC721-approve}."
      },
      "balanceOf(address)": {
        "details": "See {IERC721-balanceOf}."
      },
      "burn(uint256)": {
        "details": "burns token id if owner or approved owner",
        "params": {
          "tokenId": "Token ID to burn"
        }
      },
      "getApproved(uint256)": {
        "details": "See {IERC721-getApproved}."
      },
      "getURIs()": {
        "details": "Get URIs for edition NFT, will retrieve URIs from the last added version",
        "returns": {
          "_0": "imageUrl The url of the image",
          "_1": "imageHash  A sha-256 hash of the content on the imageUrl, will be zero address if url blank",
          "_2": "animationUrl The url of the animation",
          "_3": "animationHash A sha-256 hash of the content on the animationUrl, will be zero address if url blank"
        }
      },
      "getURIsOfVersion(uint8[3])": {
        "details": "Get URIs for edition NFT of a version Will get URIs from the last version added",
        "params": {
          "label": "The label of the version"
        },
        "returns": {
          "_0": "imageUrl",
          "_1": "imageHash",
          "_2": "animationUrl",
          "_3": "animationHash"
        }
      },
      "initialize(address,string,string,string,((string,bytes32)[],uint8[3]),uint256,uint256)": {
        "details": "Function to create a new edition. Can only be called by the allowed creator Sets the only allowed minter to the address that creates/owns the edition. This can be re-assigned or updated later",
        "params": {
          "_description": "Description of edition, used in the description field of the NFT",
          "_editionSize": "Number of editions that can be minted in total. If 0, unlimited editions can be minted.",
          "_name": "Name of edition, used in the title as \"$NAME NUMBER/TOTAL\"",
          "_owner": "User that owns and can mint the edition, gets royalty and sales payouts and can update the base url if needed.",
          "_royaltyBPS": "BPS of the royalty set on the contract. Can be 0 for no royalty.",
          "_symbol": "Symbol of the new token contract",
          "_version": "Version of the media consisting of urls and hashes of animation and image content"
        }
      },
      "isApprovedForAll(address,address)": {
        "details": "See {IERC721-isApprovedForAll}."
      },
      "mintEdition(address,uint256)": {
        "details": "This mints one edition to the given address by an allowed minter on the edition instance.",
        "params": {
          "seed": "number of the chosen seed",
          "to": "address to send the newly minted edition to"
        }
      },
      "mintEditions((address,uint256)[])": {
        "details": "This mints multiple editions to the given list of addresses.",
        "params": {
          "recipients": "list of addresses and seeds to send the newly minted editions to"
        }
      },
      "name()": {
        "details": "See {IERC721Metadata-name}."
      },
      "numberCanMint()": {
        "details": "returns the number of editions allowed to mint (max_uint256 when open edition)",
        "returns": {
          "_0": "allowedToMint the number of editions allowed to mint"
        }
      },
      "ownerOf(uint256)": {
        "details": "See {IERC721-ownerOf}."
      },
      "purchase(uint256)": {
        "details": "This allows the user to purchase a edition edition at the given price in the contract.",
        "params": {
          "seed": "the chosen seed number"
        }
      },
      "renounceOwnership()": {
        "details": "Leaves the contract without owner. It will not be possible to call `onlyOwner` functions anymore. Can only be called by the current owner. NOTE: Renouncing ownership will leave the contract without an owner, thereby removing any functionality that is only available to the owner."
      },
      "royaltyInfo(uint256,uint256)": {
        "details": "Get royalty information for token",
        "params": {
          "_salePrice": "Sale price for the token"
        }
      },
      "safeTransferFrom(address,address,uint256)": {
        "details": "See {IERC721-safeTransferFrom}."
      },
      "safeTransferFrom(address,address,uint256,bytes)": {
        "details": "See {IERC721-safeTransferFrom}."
      },
      "setApprovalForAll(address,bool)": {
        "details": "See {IERC721-setApprovalForAll}."
      },
      "setApprovedMinter(address,bool)": {
        "details": "Sets the approved minting status of the given address. This requires that msg.sender is the owner of the given edition id. If the ZeroAddress (address(0x0)) is set as a minter, anyone will be allowed to mint. This setup is similar to setApprovalForAll in the ERC721 spec.",
        "params": {
          "allowed": "boolean if that address is allowed to mint",
          "minter": "address to set approved minting status for"
        }
      },
      "setSalePrice(uint256)": {
        "details": "This sets a simple ETH sales price Setting a sales price allows users to mint the edition until it sells out. For more granular sales, use an external sales contract.",
        "params": {
          "_salePrice": "if sale price is 0 sale is stopped, otherwise that amount  of ETH is needed to start the sale."
        }
      },
      "symbol()": {
        "details": "See {IERC721Metadata-symbol}."
      },
      "tokenURI(uint256)": {
        "details": "Get URI for given token id, will retrieve URIs from the last added version",
        "params": {
          "tokenId": "token id to get uri for"
        },
        "returns": {
          "_0": "metadata base64-encoded json metadata object"
        }
      },
      "tokenURIOfVersion(uint256,uint8[3])": {
        "details": "Get URI for given token id of given version",
        "params": {
          "label": "the label of the version",
          "tokenId": "token id to get uri for"
        },
        "returns": {
          "_0": "metadata base64-encoded json metadata object"
        }
      },
      "totalSupply()": {
        "details": "returns the number of minted tokens within the edition"
      },
      "transferFrom(address,address,uint256)": {
        "details": "See {IERC721-transferFrom}."
      },
      "transferOwnership(address)": {
        "details": "Transfers ownership of the contract to a new account (`newOwner`). Can only be called by the current owner."
      },
      "updateVersionURL(uint8[3],uint8,string)": {
        "details": "Updates a url of specified version by the owner of the edition. Only URLs can be updated (data-uris are supported), hashes cannot be updated.",
        "params": {
          "_label": "The label of the specified version",
          "_url": "The url to be updated to",
          "_urlKey": "The index of the url to update 0=animation, 1=image"
        }
      },
      "withdraw()": {
        "details": "This withdraws ETH from the contract to the contract owner."
      }
    },
    "version": 1
  },
  "userdoc": {
    "kind": "user",
    "methods": {
      "owner()": {
        "notice": "Simple override for owner interface."
      }
    },
    "notice": "This is a smart contract for handling dynamic contract minting. This is a fork of Zora NFT Editions changes: - Media urls are versioned allowing for updatable content preserving history - The NFT contract address is included in edition url query for easyier access to query the graph from within the NFT - SupportsInterface function includes IEditionSingleMintable",
    "version": 1
  },
  "storageLayout": {
    "storage": [
      {
        "astId": 232,
        "contract": "contracts/SeededSingleEditionMintable.sol:SeededSingleEditionMintable",
        "label": "_initialized",
        "offset": 0,
        "slot": "0",
        "type": "t_bool"
      },
      {
        "astId": 235,
        "contract": "contracts/SeededSingleEditionMintable.sol:SeededSingleEditionMintable",
        "label": "_initializing",
        "offset": 1,
        "slot": "0",
        "type": "t_bool"
      },
      {
        "astId": 1567,
        "contract": "contracts/SeededSingleEditionMintable.sol:SeededSingleEditionMintable",
        "label": "__gap",
        "offset": 0,
        "slot": "1",
        "type": "t_array(t_uint256)50_storage"
      },
      {
        "astId": 1890,
        "contract": "contracts/SeededSingleEditionMintable.sol:SeededSingleEditionMintable",
        "label": "__gap",
        "offset": 0,
        "slot": "51",
        "type": "t_array(t_uint256)50_storage"
      },
      {
        "astId": 301,
        "contract": "contracts/SeededSingleEditionMintable.sol:SeededSingleEditionMintable",
        "label": "_name",
        "offset": 0,
        "slot": "101",
        "type": "t_string_storage"
      },
      {
        "astId": 303,
        "contract": "contracts/SeededSingleEditionMintable.sol:SeededSingleEditionMintable",
        "label": "_symbol",
        "offset": 0,
        "slot": "102",
        "type": "t_string_storage"
      },
      {
        "astId": 307,
        "contract": "contracts/SeededSingleEditionMintable.sol:SeededSingleEditionMintable",
        "label": "_owners",
        "offset": 0,
        "slot": "103",
        "type": "t_mapping(t_uint256,t_address)"
      },
      {
        "astId": 311,
        "contract": "contracts/SeededSingleEditionMintable.sol:SeededSingleEditionMintable",
        "label": "_balances",
        "offset": 0,
        "slot": "104",
        "type": "t_mapping(t_address,t_uint256)"
      },
      {
        "astId": 315,
        "contract": "contracts/SeededSingleEditionMintable.sol:SeededSingleEditionMintable",
        "label": "_tokenApprovals",
        "offset": 0,
        "slot": "105",
        "type": "t_mapping(t_uint256,t_address)"
      },
      {
        "astId": 321,
        "contract": "contracts/SeededSingleEditionMintable.sol:SeededSingleEditionMintable",
        "label": "_operatorApprovals",
        "offset": 0,
        "slot": "106",
        "type": "t_mapping(t_address,t_mapping(t_address,t_bool))"
      },
      {
        "astId": 1117,
        "contract": "contracts/SeededSingleEditionMintable.sol:SeededSingleEditionMintable",
        "label": "__gap",
        "offset": 0,
        "slot": "107",
        "type": "t_array(t_uint256)44_storage"
      },
      {
        "astId": 10,
        "contract": "contracts/SeededSingleEditionMintable.sol:SeededSingleEditionMintable",
        "label": "_owner",
        "offset": 0,
        "slot": "151",
        "type": "t_address"
      },
      {
        "astId": 123,
        "contract": "contracts/SeededSingleEditionMintable.sol:SeededSingleEditionMintable",
        "label": "__gap",
        "offset": 0,
        "slot": "152",
        "type": "t_array(t_uint256)49_storage"
      },
      {
        "astId": 2122,
        "contract": "contracts/SeededSingleEditionMintable.sol:SeededSingleEditionMintable",
        "label": "description",
        "offset": 0,
        "slot": "201",
        "type": "t_string_storage"
      },
      {
        "astId": 2128,
        "contract": "contracts/SeededSingleEditionMintable.sol:SeededSingleEditionMintable",
        "label": "versions",
        "offset": 0,
        "slot": "202",
        "type": "t_struct(Set)4791_storage"
      },
      {
        "astId": 2130,
        "contract": "contracts/SeededSingleEditionMintable.sol:SeededSingleEditionMintable",
        "label": "editionSize",
        "offset": 0,
        "slot": "204",
        "type": "t_uint256"
      },
      {
        "astId": 2133,
        "contract": "contracts/SeededSingleEditionMintable.sol:SeededSingleEditionMintable",
        "label": "atEditionId",
        "offset": 0,
        "slot": "205",
        "type": "t_struct(Counter)1574_storage"
      },
      {
        "astId": 2135,
        "contract": "contracts/SeededSingleEditionMintable.sol:SeededSingleEditionMintable",
        "label": "royaltyBPS",
        "offset": 0,
        "slot": "206",
        "type": "t_uint256"
      },
      {
        "astId": 2139,
        "contract": "contracts/SeededSingleEditionMintable.sol:SeededSingleEditionMintable",
        "label": "allowedMinters",
        "offset": 0,
        "slot": "207",
        "type": "t_mapping(t_address,t_bool)"
      },
      {
        "astId": 2143,
        "contract": "contracts/SeededSingleEditionMintable.sol:SeededSingleEditionMintable",
        "label": "seedsUsed",
        "offset": 0,
        "slot": "208",
        "type": "t_mapping(t_uint256,t_bool)"
      },
      {
        "astId": 2147,
        "contract": "contracts/SeededSingleEditionMintable.sol:SeededSingleEditionMintable",
        "label": "seedOfTokens",
        "offset": 0,
        "slot": "209",
        "type": "t_mapping(t_uint256,t_uint256)"
      },
      {
        "astId": 2149,
        "contract": "contracts/SeededSingleEditionMintable.sol:SeededSingleEditionMintable",
        "label": "salePrice",
        "offset": 0,
        "slot": "210",
        "type": "t_uint256"
      }
    ],
    "types": {
      "t_address": {
        "encoding": "inplace",
        "label": "address",
        "numberOfBytes": "20"
      },
      "t_array(t_string_storage)dyn_storage": {
        "base": "t_string_storage",
        "encoding": "dynamic_array",
        "label": "string[]",
        "numberOfBytes": "32"
      },
      "t_array(t_struct(UrlWithHash)4773_storage)dyn_storage": {
        "base": "t_struct(UrlWithHash)4773_storage",
        "encoding": "dynamic_array",
        "label": "struct Versions.UrlWithHash[]",
        "numberOfBytes": "32"
      },
      "t_array(t_uint256)44_storage": {
        "base": "t_uint256",
        "encoding": "inplace",
        "label": "uint256[44]",
        "numberOfBytes": "1408"
      },
      "t_array(t_uint256)49_storage": {
        "base": "t_uint256",
        "encoding": "inplace",
        "label": "uint256[49]",
        "numberOfBytes": "1568"
      },
      "t_array(t_uint256)50_storage": {
        "base": "t_uint256",
        "encoding": "inplace",
        "label": "uint256[50]",
        "numberOfBytes": "1600"
      },
      "t_array(t_uint8)3_storage": {
        "base": "t_uint8",
        "encoding": "inplace",
        "label": "uint8[3]",
        "numberOfBytes": "32"
      },
      "t_bool": {
        "encoding": "inplace",
        "label": "bool",
        "numberOfBytes": "1"
      },
      "t_bytes32": {
        "encoding": "inplace",
        "label": "bytes32",
        "numberOfBytes": "32"
      },
      "t_mapping(t_address,t_bool)": {
        "encoding": "mapping",
        "key": "t_address",
        "label": "mapping(address => bool)",
        "numberOfBytes": "32",
        "value": "t_bool"
      },
      "t_mapping(t_address,t_mapping(t_address,t_bool))": {
        "encoding": "mapping",
        "key": "t_address",
        "label": "mapping(address => mapping(address => bool))",
        "numberOfBytes": "32",
        "value": "t_mapping(t_address,t_bool)"
      },
      "t_mapping(t_address,t_uint256)": {
        "encoding": "mapping",
        "key": "t_address",
        "label": "mapping(address => uint256)",
        "numberOfBytes": "32",
        "value": "t_uint256"
      },
      "t_mapping(t_string_memory_ptr,t_struct(Version)4782_storage)": {
        "encoding": "mapping",
        "key": "t_string_memory_ptr",
        "label": "mapping(string => struct Versions.Version)",
        "numberOfBytes": "32",
        "value": "t_struct(Version)4782_storage"
      },
      "t_mapping(t_uint256,t_address)": {
        "encoding": "mapping",
        "key": "t_uint256",
        "label": "mapping(uint256 => address)",
        "numberOfBytes": "32",
        "value": "t_address"
      },
      "t_mapping(t_uint256,t_bool)": {
        "encoding": "mapping",
        "key": "t_uint256",
        "label": "mapping(uint256 => bool)",
        "numberOfBytes": "32",
        "value": "t_bool"
      },
      "t_mapping(t_uint256,t_uint256)": {
        "encoding": "mapping",
        "key": "t_uint256",
        "label": "mapping(uint256 => uint256)",
        "numberOfBytes": "32",
        "value": "t_uint256"
      },
      "t_string_memory_ptr": {
        "encoding": "bytes",
        "label": "string",
        "numberOfBytes": "32"
      },
      "t_string_storage": {
        "encoding": "bytes",
        "label": "string",
        "numberOfBytes": "32"
      },
      "t_struct(Counter)1574_storage": {
        "encoding": "inplace",
        "label": "struct CountersUpgradeable.Counter",
        "members": [
          {
            "astId": 1573,
            "contract": "contracts/SeededSingleEditionMintable.sol:SeededSingleEditionMintable",
            "label": "_value",
            "offset": 0,
            "slot": "0",
            "type": "t_uint256"
          }
        ],
        "numberOfBytes": "32"
      },
      "t_struct(Set)4791_storage": {
        "encoding": "inplace",
        "label": "struct Versions.Set",
        "members": [
          {
            "astId": 4785,
            "contract": "contracts/SeededSingleEditionMintable.sol:SeededSingleEditionMintable",
            "label": "labels",
            "offset": 0,
            "slot": "0",
            "type": "t_array(t_string_storage)dyn_storage"
          },
          {
            "astId": 4790,
            "contract": "contracts/SeededSingleEditionMintable.sol:SeededSingleEditionMintable",
            "label": "versions",
            "offset": 0,
            "slot": "1",
            "type": "t_mapping(t_string_memory_ptr,t_struct(Version)4782_storage)"
          }
        ],
        "numberOfBytes": "64"
      },
      "t_struct(UrlWithHash)4773_storage": {
        "encoding": "inplace",
        "label": "struct Versions.UrlWithHash",
        "members": [
          {
            "astId": 4770,
            "contract": "contracts/SeededSingleEditionMintable.sol:SeededSingleEditionMintable",
            "label": "url",
            "offset": 0,
            "slot": "0",
            "type": "t_string_storage"
          },
          {
            "astId": 4772,
            "contract": "contracts/SeededSingleEditionMintable.sol:SeededSingleEditionMintable",
            "label": "sha256hash",
            "offset": 0,
            "slot": "1",
            "type": "t_bytes32"
          }
        ],
        "numberOfBytes": "64"
      },
      "t_struct(Version)4782_storage": {
        "encoding": "inplace",
        "label": "struct Versions.Version",
        "members": [
          {
            "astId": 4777,
            "contract": "contracts/SeededSingleEditionMintable.sol:SeededSingleEditionMintable",
            "label": "urls",
            "offset": 0,
            "slot": "0",
            "type": "t_array(t_struct(UrlWithHash)4773_storage)dyn_storage"
          },
          {
            "astId": 4781,
            "contract": "contracts/SeededSingleEditionMintable.sol:SeededSingleEditionMintable",
            "label": "label",
            "offset": 0,
            "slot": "1",
            "type": "t_array(t_uint8)3_storage"
          }
        ],
        "numberOfBytes": "64"
      },
      "t_uint256": {
        "encoding": "inplace",
        "label": "uint256",
        "numberOfBytes": "32"
      },
      "t_uint8": {
        "encoding": "inplace",
        "label": "uint8",
        "numberOfBytes": "1"
      }
    }
  }
}