{
  "address": "0x68fB534dEb2f592C3025a9Ad448A16A3F9A41b58",
  "abi": [
    {
      "inputs": [
        {
          "internalType": "contract SharedNFTLogic",
          "name": "_sharedNFTLogic",
          "type": "address"
        }
      ],
      "stateMutability": "nonpayable",
      "type": "constructor"
    },
    {
      "anonymous": false,
      "inputs": [
        {
          "indexed": true,
          "internalType": "address",
          "name": "owner",
          "type": "address"
        },
        {
          "indexed": true,
          "internalType": "address",
          "name": "approved",
          "type": "address"
        },
        {
          "indexed": true,
          "internalType": "uint256",
          "name": "tokenId",
          "type": "uint256"
        }
      ],
      "name": "Approval",
      "type": "event"
    },
    {
      "anonymous": false,
      "inputs": [
        {
          "indexed": true,
          "internalType": "address",
          "name": "owner",
          "type": "address"
        },
        {
          "indexed": true,
          "internalType": "address",
          "name": "operator",
          "type": "address"
        },
        {
          "indexed": false,
          "internalType": "bool",
          "name": "approved",
          "type": "bool"
        }
      ],
      "name": "ApprovalForAll",
      "type": "event"
    },
    {
      "anonymous": false,
      "inputs": [
        {
          "indexed": true,
          "internalType": "address",
          "name": "owner",
          "type": "address"
        },
        {
          "indexed": true,
          "internalType": "address",
          "name": "minter",
          "type": "address"
        },
        {
          "indexed": false,
          "internalType": "bool",
          "name": "approved",
          "type": "bool"
        }
      ],
      "name": "ApprovedMinter",
      "type": "event"
    },
    {
      "anonymous": false,
      "inputs": [
        {
          "indexed": false,
          "internalType": "uint256",
          "name": "editionSize",
          "type": "uint256"
        }
      ],
      "name": "EditionSizeFinalized",
      "type": "event"
    },
    {
      "anonymous": false,
      "inputs": [
        {
          "indexed": false,
          "internalType": "uint256",
          "name": "price",
          "type": "uint256"
        },
        {
          "indexed": false,
          "internalType": "address",
          "name": "owner",
          "type": "address"
        }
      ],
      "name": "EditionSold",
      "type": "event"
    },
    {
      "anonymous": false,
      "inputs": [
        {
          "indexed": true,
          "internalType": "address",
          "name": "previousOwner",
          "type": "address"
        },
        {
          "indexed": true,
          "internalType": "address",
          "name": "newOwner",
          "type": "address"
        }
      ],
      "name": "OwnershipTransferred",
      "type": "event"
    },
    {
      "anonymous": false,
      "inputs": [
        {
          "indexed": false,
          "internalType": "uint256",
          "name": "amount",
          "type": "uint256"
        }
      ],
      "name": "PriceChanged",
      "type": "event"
    },
    {
      "anonymous": false,
      "inputs": [
        {
          "indexed": false,
          "internalType": "address",
          "name": "newRecipientAddress",
          "type": "address"
        }
      ],
      "name": "RoyaltyFundsRecipientChanged",
      "type": "event"
    },
    {
      "anonymous": false,
      "inputs": [
        {
          "indexed": true,
          "internalType": "address",
          "name": "from",
          "type": "address"
        },
        {
          "indexed": true,
          "internalType": "address",
          "name": "to",
          "type": "address"
        },
        {
          "indexed": true,
          "internalType": "uint256",
          "name": "tokenId",
          "type": "uint256"
        }
      ],
      "name": "Transfer",
      "type": "event"
    },
    {
      "anonymous": false,
      "inputs": [
        {
          "indexed": false,
          "internalType": "uint8[3]",
          "name": "label",
          "type": "uint8[3]"
        }
      ],
      "name": "VersionAdded",
      "type": "event"
    },
    {
      "anonymous": false,
      "inputs": [
        {
          "indexed": false,
          "internalType": "uint8[3]",
          "name": "label",
          "type": "uint8[3]"
        },
        {
          "indexed": false,
          "internalType": "uint8",
          "name": "index",
          "type": "uint8"
        },
        {
          "indexed": false,
          "internalType": "string",
          "name": "url",
          "type": "string"
        }
      ],
      "name": "VersionURLUpdated",
      "type": "event"
    },
    {
      "inputs": [
        {
          "components": [
            {
              "components": [
                {
                  "internalType": "string",
                  "name": "url",
                  "type": "string"
                },
                {
                  "internalType": "bytes32",
                  "name": "sha256hash",
                  "type": "bytes32"
                }
              ],
              "internalType": "struct Versions.UrlHashPair[]",
              "name": "urls",
              "type": "tuple[]"
            },
            {
              "internalType": "uint8[3]",
              "name": "label",
              "type": "uint8[3]"
            }
          ],
          "internalType": "struct Versions.Version",
          "name": "_version",
          "type": "tuple"
        }
      ],
      "name": "addVersion",
      "outputs": [],
      "stateMutability": "nonpayable",
      "type": "function"
    },
    {
      "inputs": [
        {
          "internalType": "address",
          "name": "to",
          "type": "address"
        },
        {
          "internalType": "uint256",
          "name": "tokenId",
          "type": "uint256"
        }
      ],
      "name": "approve",
      "outputs": [],
      "stateMutability": "nonpayable",
      "type": "function"
    },
    {
      "inputs": [
        {
          "internalType": "address",
          "name": "owner",
          "type": "address"
        }
      ],
      "name": "balanceOf",
      "outputs": [
        {
          "internalType": "uint256",
          "name": "",
          "type": "uint256"
        }
      ],
      "stateMutability": "view",
      "type": "function"
    },
    {
      "inputs": [
        {
          "internalType": "uint256",
          "name": "tokenId",
          "type": "uint256"
        }
      ],
      "name": "burn",
      "outputs": [],
      "stateMutability": "nonpayable",
      "type": "function"
    },
    {
      "inputs": [],
      "name": "description",
      "outputs": [
        {
          "internalType": "string",
          "name": "",
          "type": "string"
        }
      ],
      "stateMutability": "view",
      "type": "function"
    },
    {
      "inputs": [],
      "name": "editionSize",
      "outputs": [
        {
          "internalType": "uint256",
          "name": "",
          "type": "uint256"
        }
      ],
      "stateMutability": "view",
      "type": "function"
    },
    {
      "inputs": [],
      "name": "finalizeEditionSize",
      "outputs": [],
      "stateMutability": "nonpayable",
      "type": "function"
    },
    {
      "inputs": [
        {
          "internalType": "uint256",
          "name": "tokenId",
          "type": "uint256"
        }
      ],
      "name": "getApproved",
      "outputs": [
        {
          "internalType": "address",
          "name": "",
          "type": "address"
        }
      ],
      "stateMutability": "view",
      "type": "function"
    },
    {
      "inputs": [],
      "name": "getURIs",
      "outputs": [
        {
          "internalType": "string",
          "name": "",
          "type": "string"
        },
        {
          "internalType": "bytes32",
          "name": "",
          "type": "bytes32"
        },
        {
          "internalType": "string",
          "name": "",
          "type": "string"
        },
        {
          "internalType": "bytes32",
          "name": "",
          "type": "bytes32"
        },
        {
          "internalType": "string",
          "name": "",
          "type": "string"
        },
        {
          "internalType": "bytes32",
          "name": "",
          "type": "bytes32"
        }
      ],
      "stateMutability": "view",
      "type": "function"
    },
    {
      "inputs": [
        {
          "internalType": "uint8[3]",
          "name": "label",
          "type": "uint8[3]"
        }
      ],
      "name": "getURIsOfVersion",
      "outputs": [
        {
          "internalType": "string",
          "name": "",
          "type": "string"
        },
        {
          "internalType": "bytes32",
          "name": "",
          "type": "bytes32"
        },
        {
          "internalType": "string",
          "name": "",
          "type": "string"
        },
        {
          "internalType": "bytes32",
          "name": "",
          "type": "bytes32"
        },
        {
          "internalType": "string",
          "name": "",
          "type": "string"
        },
        {
          "internalType": "bytes32",
          "name": "",
          "type": "bytes32"
        }
      ],
      "stateMutability": "view",
      "type": "function"
    },
    {
      "inputs": [],
      "name": "getVersionHistory",
      "outputs": [
        {
          "components": [
            {
              "components": [
                {
                  "internalType": "string",
                  "name": "url",
                  "type": "string"
                },
                {
                  "internalType": "bytes32",
                  "name": "sha256hash",
                  "type": "bytes32"
                }
              ],
              "internalType": "struct Versions.UrlHashPair[]",
              "name": "urls",
              "type": "tuple[]"
            },
            {
              "internalType": "uint8[3]",
              "name": "label",
              "type": "uint8[3]"
            }
          ],
          "internalType": "struct Versions.Version[]",
          "name": "",
          "type": "tuple[]"
        }
      ],
      "stateMutability": "view",
      "type": "function"
    },
    {
      "inputs": [
        {
          "internalType": "address payable",
          "name": "_owner",
          "type": "address"
        },
        {
          "internalType": "string",
          "name": "_name",
          "type": "string"
        },
        {
          "internalType": "string",
          "name": "_symbol",
          "type": "string"
        },
        {
          "internalType": "string",
          "name": "_description",
          "type": "string"
        },
        {
          "components": [
            {
              "components": [
                {
                  "internalType": "string",
                  "name": "url",
                  "type": "string"
                },
                {
                  "internalType": "bytes32",
                  "name": "sha256hash",
                  "type": "bytes32"
                }
              ],
              "internalType": "struct Versions.UrlHashPair[]",
              "name": "urls",
              "type": "tuple[]"
            },
            {
              "internalType": "uint8[3]",
              "name": "label",
              "type": "uint8[3]"
            }
          ],
          "internalType": "struct Versions.Version",
          "name": "_version",
          "type": "tuple"
        },
        {
          "internalType": "uint256",
          "name": "_editionSize",
          "type": "uint256"
        },
        {
          "internalType": "uint256",
          "name": "_royaltyBPS",
          "type": "uint256"
        }
      ],
      "name": "initialize",
      "outputs": [],
      "stateMutability": "nonpayable",
      "type": "function"
    },
    {
      "inputs": [
        {
          "internalType": "address",
          "name": "owner",
          "type": "address"
        },
        {
          "internalType": "address",
          "name": "operator",
          "type": "address"
        }
      ],
      "name": "isApprovedForAll",
      "outputs": [
        {
          "internalType": "bool",
          "name": "",
          "type": "bool"
        }
      ],
      "stateMutability": "view",
      "type": "function"
    },
    {
      "inputs": [
        {
          "internalType": "address",
          "name": "to",
          "type": "address"
        },
        {
          "internalType": "uint256",
          "name": "seed",
          "type": "uint256"
        }
      ],
      "name": "mintEdition",
      "outputs": [
        {
          "internalType": "uint256",
          "name": "",
          "type": "uint256"
        }
      ],
      "stateMutability": "nonpayable",
      "type": "function"
    },
    {
      "inputs": [
        {
          "components": [
            {
              "internalType": "address",
              "name": "to",
              "type": "address"
            },
            {
              "internalType": "uint256",
              "name": "seed",
              "type": "uint256"
            }
          ],
          "internalType": "struct MintData[]",
          "name": "recipients",
          "type": "tuple[]"
        }
      ],
      "name": "mintEditions",
      "outputs": [
        {
          "internalType": "uint256",
          "name": "",
          "type": "uint256"
        }
      ],
      "stateMutability": "nonpayable",
      "type": "function"
    },
    {
      "inputs": [],
      "name": "name",
      "outputs": [
        {
          "internalType": "string",
          "name": "",
          "type": "string"
        }
      ],
      "stateMutability": "view",
      "type": "function"
    },
    {
      "inputs": [],
      "name": "numberCanMint",
      "outputs": [
        {
          "internalType": "uint256",
          "name": "",
          "type": "uint256"
        }
      ],
      "stateMutability": "view",
      "type": "function"
    },
    {
      "inputs": [],
      "name": "owner",
      "outputs": [
        {
          "internalType": "address",
          "name": "",
          "type": "address"
        }
      ],
      "stateMutability": "view",
      "type": "function"
    },
    {
      "inputs": [
        {
          "internalType": "uint256",
          "name": "tokenId",
          "type": "uint256"
        }
      ],
      "name": "ownerOf",
      "outputs": [
        {
          "internalType": "address",
          "name": "",
          "type": "address"
        }
      ],
      "stateMutability": "view",
      "type": "function"
    },
    {
      "inputs": [
        {
          "internalType": "uint256",
          "name": "seed",
          "type": "uint256"
        }
      ],
      "name": "purchase",
      "outputs": [
        {
          "internalType": "uint256",
          "name": "",
          "type": "uint256"
        }
      ],
      "stateMutability": "payable",
      "type": "function"
    },
    {
      "inputs": [],
      "name": "renounceOwnership",
      "outputs": [],
      "stateMutability": "nonpayable",
      "type": "function"
    },
    {
      "inputs": [],
      "name": "royaltyBPS",
      "outputs": [
        {
          "internalType": "uint256",
          "name": "",
          "type": "uint256"
        }
      ],
      "stateMutability": "view",
      "type": "function"
    },
    {
      "inputs": [
        {
          "internalType": "uint256",
          "name": "",
          "type": "uint256"
        },
        {
          "internalType": "uint256",
          "name": "_salePrice",
          "type": "uint256"
        }
      ],
      "name": "royaltyInfo",
      "outputs": [
        {
          "internalType": "address",
          "name": "receiver",
          "type": "address"
        },
        {
          "internalType": "uint256",
          "name": "royaltyAmount",
          "type": "uint256"
        }
      ],
      "stateMutability": "view",
      "type": "function"
    },
    {
      "inputs": [
        {
          "internalType": "address",
          "name": "from",
          "type": "address"
        },
        {
          "internalType": "address",
          "name": "to",
          "type": "address"
        },
        {
          "internalType": "uint256",
          "name": "tokenId",
          "type": "uint256"
        }
      ],
      "name": "safeTransferFrom",
      "outputs": [],
      "stateMutability": "nonpayable",
      "type": "function"
    },
    {
      "inputs": [
        {
          "internalType": "address",
          "name": "from",
          "type": "address"
        },
        {
          "internalType": "address",
          "name": "to",
          "type": "address"
        },
        {
          "internalType": "uint256",
          "name": "tokenId",
          "type": "uint256"
        },
        {
          "internalType": "bytes",
          "name": "_data",
          "type": "bytes"
        }
      ],
      "name": "safeTransferFrom",
      "outputs": [],
      "stateMutability": "nonpayable",
      "type": "function"
    },
    {
      "inputs": [],
      "name": "salePrice",
      "outputs": [
        {
          "internalType": "uint256",
          "name": "",
          "type": "uint256"
        }
      ],
      "stateMutability": "view",
      "type": "function"
    },
    {
      "inputs": [
        {
          "internalType": "uint256",
          "name": "",
          "type": "uint256"
        }
      ],
      "name": "seedOfTokens",
      "outputs": [
        {
          "internalType": "uint256",
          "name": "",
          "type": "uint256"
        }
      ],
      "stateMutability": "view",
      "type": "function"
    },
    {
      "inputs": [
        {
          "internalType": "uint256",
          "name": "",
          "type": "uint256"
        }
      ],
      "name": "seedsUsed",
      "outputs": [
        {
          "internalType": "bool",
          "name": "",
          "type": "bool"
        }
      ],
      "stateMutability": "view",
      "type": "function"
    },
    {
      "inputs": [
        {
          "internalType": "address",
          "name": "operator",
          "type": "address"
        },
        {
          "internalType": "bool",
          "name": "approved",
          "type": "bool"
        }
      ],
      "name": "setApprovalForAll",
      "outputs": [],
      "stateMutability": "nonpayable",
      "type": "function"
    },
    {
      "inputs": [
        {
          "internalType": "address",
          "name": "minter",
          "type": "address"
        },
        {
          "internalType": "bool",
          "name": "allowed",
          "type": "bool"
        }
      ],
      "name": "setApprovedMinter",
      "outputs": [],
      "stateMutability": "nonpayable",
      "type": "function"
    },
    {
      "inputs": [
        {
          "internalType": "address payable",
          "name": "newRecipientAddress",
          "type": "address"
        }
      ],
      "name": "setRoyaltyFundsRecipient",
      "outputs": [],
      "stateMutability": "nonpayable",
      "type": "function"
    },
    {
      "inputs": [
        {
          "internalType": "uint256",
          "name": "_salePrice",
          "type": "uint256"
        }
      ],
      "name": "setSalePrice",
      "outputs": [],
      "stateMutability": "nonpayable",
      "type": "function"
    },
    {
      "inputs": [
        {
          "internalType": "bytes4",
          "name": "interfaceId",
          "type": "bytes4"
        }
      ],
      "name": "supportsInterface",
      "outputs": [
        {
          "internalType": "bool",
          "name": "",
          "type": "bool"
        }
      ],
      "stateMutability": "view",
      "type": "function"
    },
    {
      "inputs": [],
      "name": "symbol",
      "outputs": [
        {
          "internalType": "string",
          "name": "",
          "type": "string"
        }
      ],
      "stateMutability": "view",
      "type": "function"
    },
    {
      "inputs": [
        {
          "internalType": "uint256",
          "name": "tokenId",
          "type": "uint256"
        }
      ],
      "name": "tokenURI",
      "outputs": [
        {
          "internalType": "string",
          "name": "",
          "type": "string"
        }
      ],
      "stateMutability": "view",
      "type": "function"
    },
    {
      "inputs": [
        {
          "internalType": "uint256",
          "name": "tokenId",
          "type": "uint256"
        },
        {
          "internalType": "uint8[3]",
          "name": "label",
          "type": "uint8[3]"
        }
      ],
      "name": "tokenURIOfVersion",
      "outputs": [
        {
          "internalType": "string",
          "name": "",
          "type": "string"
        }
      ],
      "stateMutability": "view",
      "type": "function"
    },
    {
      "inputs": [],
      "name": "totalSupply",
      "outputs": [
        {
          "internalType": "uint256",
          "name": "",
          "type": "uint256"
        }
      ],
      "stateMutability": "view",
      "type": "function"
    },
    {
      "inputs": [
        {
          "internalType": "address",
          "name": "from",
          "type": "address"
        },
        {
          "internalType": "address",
          "name": "to",
          "type": "address"
        },
        {
          "internalType": "uint256",
          "name": "tokenId",
          "type": "uint256"
        }
      ],
      "name": "transferFrom",
      "outputs": [],
      "stateMutability": "nonpayable",
      "type": "function"
    },
    {
      "inputs": [
        {
          "internalType": "address",
          "name": "newOwner",
          "type": "address"
        }
      ],
      "name": "transferOwnership",
      "outputs": [],
      "stateMutability": "nonpayable",
      "type": "function"
    },
    {
      "inputs": [
        {
          "internalType": "uint8[3]",
          "name": "_label",
          "type": "uint8[3]"
        },
        {
          "internalType": "uint8",
          "name": "_urlKey",
          "type": "uint8"
        },
        {
          "internalType": "string",
          "name": "_url",
          "type": "string"
        }
      ],
      "name": "updateVersionURL",
      "outputs": [],
      "stateMutability": "nonpayable",
      "type": "function"
    },
    {
      "inputs": [],
      "name": "withdraw",
      "outputs": [],
      "stateMutability": "nonpayable",
      "type": "function"
    }
  ],
  "transactionHash": "0xf848772cd41e767fdaa5c903f8e9026fc88aa6fe31d36efa6885eecfc552cfc3",
  "args": [
    "0x2027aad42ea8eed8050a93919e5ad0849a7b144b"
  ],
  "solcInputHash": "d06f5f4b79ec3b175bd8784a69dabb71",
  "bytecode": "0x60a06040523480156200001157600080fd5b50604051620043f5380380620043f583398101604081905262000034916200004a565b60601b6001600160601b0319166080526200007c565b6000602082840312156200005d57600080fd5b81516001600160a01b03811681146200007557600080fd5b9392505050565b60805160601c61434c620000a96000396000818161142e015281816115f00152611c34015261434c6000f3fe6080604052600436106102465760003560e01c806370a0823111610139578063b88d4fde116100b6578063e985e9c51161007a578063e985e9c5146106cd578063efef39a1146106ed578063f2fde38b14610700578063f4ed0f4614610720578063f51f96dd14610736578063f92094ea1461074c57600080fd5b8063b88d4fde14610635578063b9c9d93a14610655578063c87b56dd1461066b578063d709b1981461068b578063e9693274146106ad57600080fd5b806395d89b41116100fd57806395d89b41146105ab578063a22cb465146105c0578063ac486c1e146105e0578063b21d81ae146105f5578063b6ddcd521461061557600080fd5b806370a082311461051c578063715018a61461053c5780637284e4161461055157806378b4e897146105665780638da5cb5b1461059657600080fd5b806329ec16dd116101c75780634b0f033b1161018b5780634b0f033b1461046f57806351ec35f91461049c57806359e59708146104bc5780636352211e146104dc578063659786ea146104fc57600080fd5b806329ec16dd146103bb5780632a55205a146103db5780633ccfd60b1461041a57806342842e0e1461042f57806342966c681461044f57600080fd5b806313d2de321161020e57806313d2de321461031f57806318160ddd1461033f5780631919fed71461035457806323b872dd1461037457806328c5440f1461039457600080fd5b806301ffc9a71461024b57806306fdde0314610280578063081812fc146102a2578063095ea7b3146102da5780630b65b6e7146102fc575b600080fd5b34801561025757600080fd5b5061026b6102663660046139b4565b61076c565b60405190151581526020015b60405180910390f35b34801561028c57600080fd5b506102956107b2565b6040516102779190613dd5565b3480156102ae57600080fd5b506102c26102bd366004613a98565b610844565b6040516001600160a01b039091168152602001610277565b3480156102e657600080fd5b506102fa6102f536600461384b565b6108d1565b005b34801561030857600080fd5b506103116109e2565b604051908152602001610277565b34801561032b57600080fd5b506102fa61033a36600461364f565b610a16565b34801561034b57600080fd5b50610311610af4565b34801561036057600080fd5b506102fa61036f366004613a98565b610afe565b34801561038057600080fd5b506102fa61038f366004613758565b610b69565b3480156103a057600080fd5b506103a9610b9b565b60405161027796959493929190613de8565b3480156103c757600080fd5b506102fa6103d6366004613818565b610c94565b3480156103e757600080fd5b506103fb6103f6366004613ade565b610d30565b604080516001600160a01b039093168352602083019190915201610277565b34801561042657600080fd5b506102fa610d90565b34801561043b57600080fd5b506102fa61044a366004613758565b610dd2565b34801561045b57600080fd5b506102fa61046a366004613a98565b610ded565b34801561047b57600080fd5b5061031161048a366004613a98565b60d16020526000908152604090205481565b3480156104a857600080fd5b506102fa6104b7366004613a64565b610e3d565b3480156104c857600080fd5b506103116104d736600461384b565b610e75565b3480156104e857600080fd5b506102c26104f7366004613a98565b610f28565b34801561050857600080fd5b506102fa610517366004613632565b610f9f565b34801561052857600080fd5b50610311610537366004613632565b61101c565b34801561054857600080fd5b506102fa6110a3565b34801561055d57600080fd5b506102956110dc565b34801561057257600080fd5b5061026b610581366004613a98565b60d06020526000908152604090205460ff1681565b3480156105a257600080fd5b506102c261116a565b3480156105b757600080fd5b5061029561117e565b3480156105cc57600080fd5b506102fa6105db366004613818565b61118d565b3480156105ec57600080fd5b506102fa611247565b34801561060157600080fd5b506103a961061036600461393a565b6112ff565b34801561062157600080fd5b50610295610630366004613ab1565b6113f6565b34801561064157600080fd5b506102fa610650366004613799565b611581565b34801561066157600080fd5b5061031160ce5481565b34801561067757600080fd5b50610295610686366004613a98565b6115b9565b34801561069757600080fd5b506106a061174a565b6040516102779190613cd4565b3480156106b957600080fd5b506102fa6106c8366004613956565b611756565b3480156106d957600080fd5b5061026b6106e836600461371f565b6117d5565b6103116106fb366004613a98565b611803565b34801561070c57600080fd5b506102fa61071b366004613632565b611956565b34801561072c57600080fd5b5061031160cc5481565b34801561074257600080fd5b5061031160d25481565b34801561075857600080fd5b50610311610767366004613877565b6119f3565b6000631302bf2f60e11b6001600160e01b03198316148061079d575063152a902d60e11b6001600160e01b03198316145b806107ac57506107ac82611a22565b92915050565b6060606580546107c190614209565b80601f01602080910402602001604051908101604052809291908181526020018280546107ed90614209565b801561083a5780601f1061080f5761010080835404028352916020019161083a565b820191906000526020600020905b81548152906001019060200180831161081d57829003601f168201915b5050505050905090565b600061084f82611a72565b6108b55760405162461bcd60e51b815260206004820152602c60248201527f4552433732313a20617070726f76656420717565727920666f72206e6f6e657860448201526b34b9ba32b73a103a37b5b2b760a11b60648201526084015b60405180910390fd5b506000908152606960205260409020546001600160a01b031690565b60006108dc82610f28565b9050806001600160a01b0316836001600160a01b0316141561094a5760405162461bcd60e51b815260206004820152602160248201527f4552433732313a20617070726f76616c20746f2063757272656e74206f776e656044820152603960f91b60648201526084016108ac565b336001600160a01b0382161480610966575061096681336117d5565b6109d35760405162461bcd60e51b815260206004820152603860248201527f4552433732313a20617070726f76652063616c6c6572206973206e6f74206f776044820152771b995c881b9bdc88185c1c1c9bdd995908199bdc88185b1b60421b60648201526084016108ac565b6109dd8383611a8f565b505050565b600060cc54600014156109f6575060001990565b60cd5460cc54610a0790600161417b565b610a1191906141c6565b905090565b600054610100900460ff1680610a2f575060005460ff16155b610a4b5760405162461bcd60e51b81526004016108ac90613f89565b600054610100900460ff16158015610a6d576000805461ffff19166101011790555b610a778787611afd565b610a7f611b84565b610a8888611956565b8451610a9b9060c99060208801906132cc565b5060cc83905560ce829055610ab460cd80546001019055565b60d380546001600160a01b0319166001600160a01b038a16179055610ad884611bff565b8015610aea576000805461ff00191690555b5050505050505050565b6000610a11611d3d565b33610b0761116a565b6001600160a01b031614610b2d5760405162461bcd60e51b81526004016108ac9061401c565b60d28190556040518181527fa6dc15bdb68da224c66db4b3838d9a2b205138e8cff6774e57d0af91e196d622906020015b60405180910390a150565b610b74335b82611d4a565b610b905760405162461bcd60e51b81526004016108ac90614088565b6109dd838383611e0c565b60606000606060006060600080610bb260ca611f9a565b8051909150600060ff1681518110610bcc57610bcc61429f565b60209081029190910101515181518051600090610beb57610beb61429f565b6020908102919091018101510151825180516001908110610c0e57610c0e61429f565b602090810291909101015151835180516001908110610c2f57610c2f61429f565b6020908102919091018101510151845180516002908110610c5257610c5261429f565b602090810291909101015151855180516002908110610c7357610c7361429f565b60200260200101516020015196509650965096509650965050909192939495565b33610c9d61116a565b6001600160a01b031614610cc35760405162461bcd60e51b81526004016108ac9061401c565b6001600160a01b038216600081815260cf60205260409020805460ff1916831515179055336001600160a01b03167f8cd75c8017bbe4f4552de2caa02ab21b1e3918c4693ab35db62125a620999fcc83604051610d24911515815260200190565b60405180910390a35050565b60d35460009081906001600160a01b0316610d5a57505060d3546001600160a01b03166000610d89565b60d35460ce546001600160a01b039091169061271090610d7a90866141a7565b610d849190614193565b915091505b9250929050565b33610d9961116a565b6001600160a01b031614610dbf5760405162461bcd60e51b81526004016108ac9061401c565b610dd0610dca61116a565b4761218f565b565b6109dd83838360405180602001604052806000815250611581565b610df633610b6e565b610e315760405162461bcd60e51b815260206004820152600c60248201526b139bdd08185c1c1c9bdd995960a21b60448201526064016108ac565b610e3a816122a8565b50565b33610e4661116a565b6001600160a01b031614610e6c5760405162461bcd60e51b81526004016108ac9061401c565b610e3a81611bff565b6000610e7f612331565b610e9b5760405162461bcd60e51b81526004016108ac90614051565b604080516001808252818301909252600091816020015b6040805180820190915260008082526020820152815260200190600190039081610eb25790505090506040518060400160405280856001600160a01b031681526020018481525081600081518110610f0c57610f0c61429f565b6020026020010181905250610f20816123a1565b949350505050565b6000818152606760205260408120546001600160a01b0316806107ac5760405162461bcd60e51b815260206004820152602960248201527f4552433732313a206f776e657220717565727920666f72206e6f6e657869737460448201526832b73a103a37b5b2b760b91b60648201526084016108ac565b33610fa861116a565b6001600160a01b031614610fce5760405162461bcd60e51b81526004016108ac9061401c565b60d380546001600160a01b0319166001600160a01b0383169081179091556040519081527ffa92addb00b86a2d8f76a9a3213317d95a3a5ef70fe02927ac60a7431fcf554390602001610b5e565b60006001600160a01b0382166110875760405162461bcd60e51b815260206004820152602a60248201527f4552433732313a2062616c616e636520717565727920666f7220746865207a65604482015269726f206164647265737360b01b60648201526084016108ac565b506001600160a01b031660009081526068602052604090205490565b336110ac61116a565b6001600160a01b0316146110d25760405162461bcd60e51b81526004016108ac9061401c565b610dd060006124c7565b60c980546110e990614209565b80601f016020809104026020016040519081016040528092919081815260200182805461111590614209565b80156111625780601f1061113757610100808354040283529160200191611162565b820191906000526020600020905b81548152906001019060200180831161114557829003601f168201915b505050505081565b6000610a116097546001600160a01b031690565b6060606680546107c190614209565b6001600160a01b0382163314156111e25760405162461bcd60e51b815260206004820152601960248201527822a9219b99189d1030b8383937bb32903a379031b0b63632b960391b60448201526064016108ac565b336000818152606a602090815260408083206001600160a01b03871680855290835292819020805460ff191686151590811790915590519081529192917f17307eab39ab6107e8899845ad3d59bd9653f200f220920489ca2b5937696c319101610d24565b3361125061116a565b6001600160a01b0316146112765760405162461bcd60e51b81526004016108ac9061401c565b60cc54156112bd5760405162461bcd60e51b815260206004820152601460248201527326bab9ba1031329037b832b71032b234ba34b7b760611b60448201526064016108ac565b6112c5611d3d565b60cc8190556040519081527f7606964e2812572286840c4625acbe2358fde96abb23114de1cbd342fb9f5d139060200160405180910390a1565b60606000818181818061131360ca89612519565b8051909150600060ff168151811061132d5761132d61429f565b6020908102919091010151518151805160009061134c5761134c61429f565b602090810291909101810151015182518051600190811061136f5761136f61429f565b6020908102919091010151518351805160019081106113905761139061429f565b60209081029190910181015101518451805160029081106113b3576113b361429f565b6020908102919091010151518551805160029081106113d4576113d461429f565b6020026020010151602001519650965096509650965096505091939550919395565b606061140183611a72565b61141d5760405162461bcd60e51b81526004016108ac90613f67565b600061142a60ca84612519565b90507f00000000000000000000000000000000000000000000000000000000000000006001600160a01b0316634f29f99f6114636107b2565b60408051608081019091528451805160c9929182916000906114875761148761429f565b6020908102919091018101515182528751910190600160ff16815181106114b0576114b061429f565b6020908102919091018101515182528751910190600260ff16815181106114d9576114d961429f565b602002602001015160000151815260200186602001518152508860cc543060d160008d8152602001908152602001600020546040518863ffffffff1660e01b815260040161152d9796959493929190613e41565b60006040518083038186803b15801561154557600080fd5b505afa158015611559573d6000803e3d6000fd5b505050506040513d6000823e601f3d908101601f19168201604052610f2091908101906139ee565b61158b3383611d4a565b6115a75760405162461bcd60e51b81526004016108ac90614088565b6115b3848484846126be565b50505050565b60606115c482611a72565b6115e05760405162461bcd60e51b81526004016108ac90613f67565b60006115ec60ca611f9a565b90507f00000000000000000000000000000000000000000000000000000000000000006001600160a01b0316634f29f99f6116256107b2565b60408051608081019091528451805160c9929182916000906116495761164961429f565b6020908102919091018101515182528751910190600160ff16815181106116725761167261429f565b6020908102919091018101515182528751910190600260ff168151811061169b5761169b61429f565b602002602001015160000151815260200186602001518152508760cc543060d160008c8152602001908152602001600020546040518863ffffffff1660e01b81526004016116ef9796959493929190613e41565b60006040518083038186803b15801561170757600080fd5b505afa15801561171b573d6000803e3d6000fd5b505050506040513d6000823e601f3d908101601f1916820160405261174391908101906139ee565b9392505050565b6060610a1160ca6126f1565b3361175f61116a565b6001600160a01b0316146117855760405162461bcd60e51b81526004016108ac9061401c565b61179560ca8460ff8516846127d0565b7f3cdb3b7fee8bd4227020e3bde799a81de9023d479ba5c7825521fd3b8242af468383836040516117c893929190613dac565b60405180910390a1505050565b6001600160a01b039182166000908152606a6020908152604080832093909416825291909152205460ff1690565b60008060d254116118455760405162461bcd60e51b815260206004820152600c60248201526b4e6f7420666f722073616c6560a01b60448201526064016108ac565b60d25434146118845760405162461bcd60e51b815260206004820152600b60248201526a57726f6e6720707269636560a81b60448201526064016108ac565b604080516001808252818301909252600091816020015b604080518082019091526000808252602082015281526020019060019003908161189b5790505090506040518060400160405280336001600160a01b0316815260200184815250816000815181106118f5576118f561429f565b60200260200101819052507f60a6c75698fadb72223808131f9f9bb9db3afa32122db6d94fb8fc985a504baa60d254336040516119459291909182526001600160a01b0316602082015260400190565b60405180910390a1611743816123a1565b3361195f61116a565b6001600160a01b0316146119855760405162461bcd60e51b81526004016108ac9061401c565b6001600160a01b0381166119ea5760405162461bcd60e51b815260206004820152602660248201527f4f776e61626c653a206e6577206f776e657220697320746865207a65726f206160448201526564647265737360d01b60648201526084016108ac565b610e3a816124c7565b60006119fd612331565b611a195760405162461bcd60e51b81526004016108ac90614051565b6107ac826123a1565b60006001600160e01b031982166380ac58cd60e01b1480611a5357506001600160e01b03198216635b5e139f60e01b145b806107ac57506301ffc9a760e01b6001600160e01b03198316146107ac565b6000908152606760205260409020546001600160a01b0316151590565b600081815260696020526040902080546001600160a01b0319166001600160a01b0384169081179091558190611ac482610f28565b6001600160a01b03167f8c5be1e5ebec7d5bd14f71427d1e84f3dd0314c0f7b2291e5b200ac8c7c3b92560405160405180910390a45050565b600054610100900460ff1680611b16575060005460ff16155b611b325760405162461bcd60e51b81526004016108ac90613f89565b600054610100900460ff16158015611b54576000805461ffff19166101011790555b611b5c612906565b611b64612906565b611b6e8383612970565b80156109dd576000805461ff0019169055505050565b600054610100900460ff1680611b9d575060005460ff16155b611bb95760405162461bcd60e51b81526004016108ac90613f89565b600054610100900460ff16158015611bdb576000805461ffff19166101011790555b611be3612906565b611beb612a05565b8015610e3a576000805461ff001916905550565b611c0a60ca82612a65565b80515160031115611d0a57602081015160405163612d071760e01b81526000916001600160a01b037f0000000000000000000000000000000000000000000000000000000000000000169163612d071791611c6791600401613d9e565b60006040518083038186803b158015611c7f57600080fd5b505afa158015611c93573d6000803e3d6000fd5b505050506040513d6000823e601f3d908101601f19168201604052611cbb91908101906139ee565b8251519091505b6003811015611d075760405160cb90611cdc908490613baf565b9081526040519081900360200190208054600101815560005280611cff81614244565b915050611cc2565b50505b7f166b7e506b0600a3fd1259824a1311e569ddb4194c483361dbd1888632897dfa8160200151604051610b5e9190613d9e565b60006001610a0760cd5490565b6000611d5582611a72565b611db65760405162461bcd60e51b815260206004820152602c60248201527f4552433732313a206f70657261746f7220717565727920666f72206e6f6e657860448201526b34b9ba32b73a103a37b5b2b760a11b60648201526084016108ac565b6000611dc183610f28565b9050806001600160a01b0316846001600160a01b03161480611dfc5750836001600160a01b0316611df184610844565b6001600160a01b0316145b80610f205750610f2081856117d5565b826001600160a01b0316611e1f82610f28565b6001600160a01b031614611e875760405162461bcd60e51b815260206004820152602960248201527f4552433732313a207472616e73666572206f6620746f6b656e2074686174206960448201526839903737ba1037bbb760b91b60648201526084016108ac565b6001600160a01b038216611ee95760405162461bcd60e51b8152602060048201526024808201527f4552433732313a207472616e7366657220746f20746865207a65726f206164646044820152637265737360e01b60648201526084016108ac565b611ef4600082611a8f565b6001600160a01b0383166000908152606860205260408120805460019290611f1d9084906141c6565b90915550506001600160a01b0382166000908152606860205260408120805460019290611f4b90849061417b565b909155505060008181526067602052604080822080546001600160a01b0319166001600160a01b0386811691821790925591518493918716916000805160206142f783398151915291a4505050565b611fa2613350565b8154611ff05760405162461bcd60e51b815260206004820152601c60248201527f2356657273696f6e733a204e6f2076657273696f6e732065786973740000000060448201526064016108ac565b81546001808401918491612003916141c6565b815481106120135761201361429f565b9060005260206000200160405161202a9190613c25565b908152604080519182900360209081018320805460609281028501830184529284018381529092849284919060009085015b8282101561212a578382906000526020600020906002020160405180604001604052908160008201805461208f90614209565b80601f01602080910402602001604051908101604052809291908181526020018280546120bb90614209565b80156121085780601f106120dd57610100808354040283529160200191612108565b820191906000526020600020905b8154815290600101906020018083116120eb57829003601f168201915b505050505081526020016001820154815250508152602001906001019061205c565b50505090825250604080516060810191829052602090920191906001840190600390826000855b825461010083900a900460ff168152602060019283018181049485019490930390920291018084116121515790505050505050815250509050919050565b804710156121df5760405162461bcd60e51b815260206004820152601d60248201527f416464726573733a20696e73756666696369656e742062616c616e636500000060448201526064016108ac565b6000826001600160a01b03168260405160006040518083038185875af1925050503d806000811461222c576040519150601f19603f3d011682016040523d82523d6000602084013e612231565b606091505b50509050806109dd5760405162461bcd60e51b815260206004820152603a60248201527f416464726573733a20756e61626c6520746f2073656e642076616c75652c207260448201527f6563697069656e74206d6179206861766520726576657274656400000000000060648201526084016108ac565b60006122b382610f28565b90506122c0600083611a8f565b6001600160a01b03811660009081526068602052604081208054600192906122e99084906141c6565b909155505060008281526067602052604080822080546001600160a01b0319169055518391906001600160a01b038416906000805160206142f7833981519152908390a45050565b60003361233c61116a565b6001600160a01b031614156123515750600190565b6000805260cf6020527fe02c59459e6ae69bba35526a32783b104c6119df0d640a9ac4990ec2f8d493a95460ff161561238a5750600190565b5033600090815260cf602052604090205460ff1690565b6000806123ad60cd5490565b9050600060018451836123c0919061417b565b6123ca91906141c6565b905060cc54600014806123df575060cc548111155b6124165760405162461bcd60e51b815260206004820152600860248201526714dbdb19081bdd5d60c21b60448201526064016108ac565b8061242060cd5490565b116124bc5761246761243160cd5490565b858461243c60cd5490565b61244691906141c6565b815181106124565761245661429f565b602002602001015160200151612bfa565b6124a9848361247560cd5490565b61247f91906141c6565b8151811061248f5761248f61429f565b6020026020010151600001516124a460cd5490565b612cc0565b6124b760cd80546001019055565b612416565b60cd54949350505050565b609780546001600160a01b038381166001600160a01b0319831681179093556040519116919082907f8be0079c531659141344cd1fd0a4f28419497f9722a3daafe3b4186f6b6457e090600090a35050565b612521613350565b60008360010161253084612de1565b60405161253d9190613baf565b908152604080519182900360209081018320805460609281028501830184529284018381529092849284919060009085015b8282101561263d57838290600052602060002090600202016040518060400160405290816000820180546125a290614209565b80601f01602080910402602001604051908101604052809291908181526020018280546125ce90614209565b801561261b5780601f106125f05761010080835404028352916020019161261b565b820191906000526020600020905b8154815290600101906020018083116125fe57829003601f168201915b505050505081526020016001820154815250508152602001906001019061256f565b50505090825250604080516060810191829052602090920191906001840190600390826000855b825461010083900a900460ff16815260206001928301818104948501949093039092029101808411612664579050505050919092525050815151919250506117435760405162461bcd60e51b81526004016108ac90613fd7565b6126c9848484611e0c565b6126d584848484612e35565b6115b35760405162461bcd60e51b81526004016108ac90613f15565b60606107ac8283600001805480602002602001604051908101604052809291908181526020016000905b828210156127c757838290600052602060002001805461273a90614209565b80601f016020809104026020016040519081016040528092919081815260200182805461276690614209565b80156127b35780601f10612788576101008083540402835291602001916127b3565b820191906000526020600020905b81548152906001019060200180831161279657829003601f168201915b50505050508152602001906001019061271b565b50505050612f42565b60006127db84612de1565b905084600101816040516127ef9190613baf565b9081526040519081900360200190205461281b5760405162461bcd60e51b81526004016108ac90613fd7565b82856001018260405161282e9190613baf565b90815260405190819003602001902054116128a55760405162461bcd60e51b815260206004820152603160248201527f2356657273696f6e733a205468652075726c20646f6573206e6f7420657869736044820152703a1037b7103a3430ba103b32b939b4b7b760791b60648201526084016108ac565b8185600101826040516128b89190613baf565b908152602001604051809103902060000184815481106128da576128da61429f565b906000526020600020906002020160000190805190602001906128fe9291906132cc565b505050505050565b600054610100900460ff168061291f575060005460ff16155b61293b5760405162461bcd60e51b81526004016108ac90613f89565b600054610100900460ff16158015611beb576000805461ffff19166101011790558015610e3a576000805461ff001916905550565b600054610100900460ff1680612989575060005460ff16155b6129a55760405162461bcd60e51b81526004016108ac90613f89565b600054610100900460ff161580156129c7576000805461ffff19166101011790555b82516129da9060659060208601906132cc565b5081516129ee9060669060208501906132cc565b5080156109dd576000805461ff0019169055505050565b600054610100900460ff1680612a1e575060005460ff16155b612a3a5760405162461bcd60e51b81526004016108ac90613f89565b600054610100900460ff16158015612a5c576000805461ffff19166101011790555b611beb336124c7565b6000612a748260200151612de1565b90508260010181604051612a889190613baf565b9081526040519081900360200190205415612b015760405162461bcd60e51b815260206004820152603360248201527f2356657273696f6e733a20412076657273696f6e20776974682074686174206c6044820152726162656c20616c72656164792065786973747360681b60648201526084016108ac565b825460018101845560008481526020908190208351612b279391909101918401906132cc565b5060005b825151811015612bc3578360010182604051612b479190613baf565b9081526040519081900360200190208351805183908110612b6a57612b6a61429f565b602090810291909101810151825460018101845560009384529282902081518051929460020290910192612ba3928492909101906132cc565b506020820151816001015550508080612bbb90614244565b915050612b2b565b5081602001518360010182604051612bdb9190613baf565b90815260200160405180910390206001019060036115b392919061336f565b600081815260d0602052604090205460ff1615612c4d5760405162461bcd60e51b815260206004820152601160248201527014d9595908185b1c9958591e481d5cd959607a1b60448201526064016108ac565b612c56816131ba565b612c965760405162461bcd60e51b815260206004820152601160248201527053656564206f7574206f662072616e676560781b60448201526064016108ac565b600081815260d060209081526040808320805460ff1916600117905593825260d190529190912055565b6001600160a01b038216612d165760405162461bcd60e51b815260206004820181905260248201527f4552433732313a206d696e7420746f20746865207a65726f206164647265737360448201526064016108ac565b612d1f81611a72565b15612d6c5760405162461bcd60e51b815260206004820152601c60248201527f4552433732313a20746f6b656e20616c7265616479206d696e7465640000000060448201526064016108ac565b6001600160a01b0382166000908152606860205260408120805460019290612d9590849061417b565b909155505060008181526067602052604080822080546001600160a01b0319166001600160a01b03861690811790915590518392906000805160206142f7833981519152908290a45050565b6060612df78260005b602002015160ff166131cf565b612e02836001612dea565b612e0d846002612dea565b604051602001612e1f93929190613bcb565b6040516020818303038152906040529050919050565b60006001600160a01b0384163b15612f3757604051630a85bd0160e11b81526001600160a01b0385169063150b7a0290612e79903390899088908890600401613c97565b602060405180830381600087803b158015612e9357600080fd5b505af1925050508015612ec3575060408051601f3d908101601f19168201909252612ec0918101906139d1565b60015b612f1d573d808015612ef1576040519150601f19603f3d011682016040523d82523d6000602084013e612ef6565b606091505b508051612f155760405162461bcd60e51b81526004016108ac90613f15565b805181602001fd5b6001600160e01b031916630a85bd0160e11b149050610f20565b506001949350505050565b6060815160001415612f965760405162461bcd60e51b815260206004820152601d60248201527f2356657273696f6e733a204e6f206c6162656c732070726f766964656400000060448201526064016108ac565b600082516001600160401b03811115612fb157612fb16142b5565b604051908082528060200260200182016040528015612fea57816020015b612fd7613350565b815260200190600190039081612fcf5790505b50905060005b83518110156131b2578460010184828151811061300f5761300f61429f565b60200260200101516040516130249190613baf565b908152604080519182900360209081018320805460609281028501830184529284018381529092849284919060009085015b82821015613124578382906000526020600020906002020160405180604001604052908160008201805461308990614209565b80601f01602080910402602001604051908101604052809291908181526020018280546130b590614209565b80156131025780601f106130d757610100808354040283529160200191613102565b820191906000526020600020905b8154815290600101906020018083116130e557829003601f168201915b5050505050815260200160018201548152505081526020019060010190613056565b50505090825250604080516060810191829052602090920191906001840190600390826000855b825461010083900a900460ff1681526020600192830181810494850194909303909202910180841161314b5790505050505050815250508282815181106131945761319461429f565b602002602001018190525080806131aa90614244565b915050612ff0565b509392505050565b600080821180156107ac57505060cc54101590565b6060816131f35750506040805180820190915260018152600360fc1b602082015290565b8160005b811561321d578061320781614244565b91506132169050600a83614193565b91506131f7565b6000816001600160401b03811115613237576132376142b5565b6040519080825280601f01601f191660200182016040528015613261576020820181803683370190505b5090505b8415610f20576132766001836141c6565b9150613283600a8661425f565b61328e90603061417b565b60f81b8183815181106132a3576132a361429f565b60200101906001600160f81b031916908160001a9053506132c5600a86614193565b9450613265565b8280546132d890614209565b90600052602060002090601f0160209004810192826132fa5760008555613340565b82601f1061331357805160ff1916838001178555613340565b82800160010185558215613340579182015b82811115613340578251825591602001919060010190613325565b5061334c9291506133f9565b5090565b60405180604001604052806060815260200161336a61340e565b905290565b6001830191839082156133405791602002820160005b838211156133c357835183826101000a81548160ff021916908360ff1602179055509260200192600101602081600001049283019260010302613385565b80156133f05782816101000a81549060ff02191690556001016020816000010492830192600103026133c3565b505061334c9291505b5b8082111561334c57600081556001016133fa565b60405180606001604052806003906020820280368337509192915050565b600061343f61343a84614154565b614101565b905082815283838301111561345357600080fd5b828260208301376000602084830101529392505050565b8035613475816142cb565b919050565b600082601f83011261348b57600080fd5b604051606081018181106001600160401b03821117156134ad576134ad6142b5565b6040528083606081018610156134c257600080fd5b60005b60038110156134ec576134d782613621565b835260209283019291909101906001016134c5565b509195945050505050565b600082601f83011261350857600080fd5b6117438383356020850161342c565b60006080828403121561352957600080fd5b6135316140d9565b905081356001600160401b038082111561354a57600080fd5b818401915084601f83011261355e57600080fd5b8135602061356e61343a83614131565b80838252828201915082860189848660051b890101111561358e57600080fd5b60005b85811015613602578135878111156135a857600080fd5b88016040818d03601f19018113156135bf57600080fd5b6135c76140d9565b878301358a8111156135d857600080fd5b6135e68f8a838701016134f7565b8252509101358682015284529284019290840190600101613591565b50508652506136138787830161347a565b818601525050505092915050565b803560ff8116811461347557600080fd5b60006020828403121561364457600080fd5b8135611743816142cb565b600080600080600080600060e0888a03121561366a57600080fd5b6136738861346a565b965060208801356001600160401b038082111561368f57600080fd5b61369b8b838c016134f7565b975060408a01359150808211156136b157600080fd5b6136bd8b838c016134f7565b965060608a01359150808211156136d357600080fd5b6136df8b838c016134f7565b955060808a01359150808211156136f557600080fd5b506137028a828b01613517565b93505060a0880135915060c0880135905092959891949750929550565b6000806040838503121561373257600080fd5b823561373d816142cb565b9150602083013561374d816142cb565b809150509250929050565b60008060006060848603121561376d57600080fd5b8335613778816142cb565b92506020840135613788816142cb565b929592945050506040919091013590565b600080600080608085870312156137af57600080fd5b84356137ba816142cb565b935060208501356137ca816142cb565b92506040850135915060608501356001600160401b038111156137ec57600080fd5b8501601f810187136137fd57600080fd5b61380c8782356020840161342c565b91505092959194509250565b6000806040838503121561382b57600080fd5b8235613836816142cb565b91506020830135801515811461374d57600080fd5b6000806040838503121561385e57600080fd5b8235613869816142cb565b946020939093013593505050565b6000602080838503121561388a57600080fd5b82356001600160401b038111156138a057600080fd5b8301601f810185136138b157600080fd5b80356138bf61343a82614131565b80828252848201915084840188868560061b87010111156138df57600080fd5b60009450845b8481101561392c57604080838c0312156138fd578687fd5b6139056140d9565b8335613910816142cb565b81528389013589820152855293870193909101906001016138e5565b509098975050505050505050565b60006060828403121561394c57600080fd5b611743838361347a565b600080600060a0848603121561396b57600080fd5b613975858561347a565b925061398360608501613621565b915060808401356001600160401b0381111561399e57600080fd5b6139aa868287016134f7565b9150509250925092565b6000602082840312156139c657600080fd5b8135611743816142e0565b6000602082840312156139e357600080fd5b8151611743816142e0565b600060208284031215613a0057600080fd5b81516001600160401b03811115613a1657600080fd5b8201601f81018413613a2757600080fd5b8051613a3561343a82614154565b818152856020838501011115613a4a57600080fd5b613a5b8260208301602086016141dd565b95945050505050565b600060208284031215613a7657600080fd5b81356001600160401b03811115613a8c57600080fd5b610f2084828501613517565b600060208284031215613aaa57600080fd5b5035919050565b60008060808385031215613ac457600080fd5b82359150613ad5846020850161347a565b90509250929050565b60008060408385031215613af157600080fd5b50508035926020909101359150565b8060005b60038110156115b357815160ff16845260209384019390910190600101613b04565b60008151808452613b3e8160208601602086016141dd565b601f01601f19169290920160200192915050565b6000815160c08452613b6760c0850182613b26565b905060208301518482036020860152613b808282613b26565b91505060408301518482036040860152613b9a8282613b26565b91505060608301516131b26060860182613b00565b60008251613bc18184602087016141dd565b9190910192915050565b60008451613bdd8184602089016141dd565b8083019050601760f91b8082528551613bfd816001850160208a016141dd565b60019201918201528351613c188160028401602088016141dd565b0160020195945050505050565b6000808354613c3381614209565b60018281168015613c4b5760018114613c5c57613c8b565b60ff19841687528287019450613c8b565b8760005260208060002060005b85811015613c825781548a820152908401908201613c69565b50505082870194505b50929695505050505050565b6001600160a01b0385811682528416602082015260408101839052608060608201819052600090613cca90830184613b26565b9695505050505050565b60006020808301818452808551808352604092508286019150828160051b87010184880160005b8381101561392c57888303603f19018552815180516080808652815190860181905260a080870192600583901b880190910191908b019060005b81811015613d7657888403609f19018552825180518d8652613d598e870182613b26565b918f0151958f0195909552948d01949350918c0191600101613d35565b5050509189015191613d8a868b0184613b00565b968901969450505090860190600101613cfb565b606081016107ac8284613b00565b613db68185613b00565b60ff8316606082015260a060808201526000613a5b60a0830184613b26565b6020815260006117436020830184613b26565b60c081526000613dfb60c0830189613b26565b8760208401528281036040840152613e138188613b26565b90508560608401528281036080840152613e2d8186613b26565b9150508260a0830152979650505050505050565b60e081526000613e5460e083018a613b26565b60208382038185015260008a54613e6a81614209565b80855260018281168015613e855760018114613e9957613ec7565b60ff19841687870152604087019450613ec7565b8e6000528560002060005b84811015613ebf578154898201890152908301908701613ea4565b880187019550505b505050508481036040860152613edd818b613b52565b9350505050856060830152846080830152613f0360a08301856001600160a01b03169052565b8260c083015298975050505050505050565b60208082526032908201527f4552433732313a207472616e7366657220746f206e6f6e20455243373231526560408201527131b2b4bb32b91034b6b83632b6b2b73a32b960711b606082015260800190565b6020808252600890820152672737903a37b5b2b760c11b604082015260600190565b6020808252602e908201527f496e697469616c697a61626c653a20636f6e747261637420697320616c72656160408201526d191e481a5b9a5d1a585b1a5e995960921b606082015260800190565b60208082526025908201527f2356657273696f6e733a205468652076657273696f6e20646f6573206e6f7420604082015264195e1a5cdd60da1b606082015260800190565b6020808252818101527f4f776e61626c653a2063616c6c6572206973206e6f7420746865206f776e6572604082015260600190565b6020808252601d908201527f4e6565647320746f20626520616e20616c6c6f776564206d696e746572000000604082015260600190565b60208082526031908201527f4552433732313a207472616e736665722063616c6c6572206973206e6f74206f6040820152701ddb995c881b9bdc88185c1c1c9bdd9959607a1b606082015260800190565b604080519081016001600160401b03811182821017156140fb576140fb6142b5565b60405290565b604051601f8201601f191681016001600160401b0381118282101715614129576141296142b5565b604052919050565b60006001600160401b0382111561414a5761414a6142b5565b5060051b60200190565b60006001600160401b0382111561416d5761416d6142b5565b50601f01601f191660200190565b6000821982111561418e5761418e614273565b500190565b6000826141a2576141a2614289565b500490565b60008160001904831182151516156141c1576141c1614273565b500290565b6000828210156141d8576141d8614273565b500390565b60005b838110156141f85781810151838201526020016141e0565b838111156115b35750506000910152565b600181811c9082168061421d57607f821691505b6020821081141561423e57634e487b7160e01b600052602260045260246000fd5b50919050565b600060001982141561425857614258614273565b5060010190565b60008261426e5761426e614289565b500690565b634e487b7160e01b600052601160045260246000fd5b634e487b7160e01b600052601260045260246000fd5b634e487b7160e01b600052603260045260246000fd5b634e487b7160e01b600052604160045260246000fd5b6001600160a01b0381168114610e3a57600080fd5b6001600160e01b031981168114610e3a57600080fdfeddf252ad1be2c89b69c2b068fc378daa952ba7f163c4a11628f55a4df523b3efa264697066735822122052ca89e2f767d80fa56a2a246f3a013347f45ff8b48715dfdd67a5e683e849fa64736f6c63430008060033",
  "devdoc": {
    "author": "iain nash Repository: https://github.com/ourzora/nft-editions",
    "details": "This allows creators to mint a unique serial edition of the same media within a custom contract",
    "events": {
      "ApprovedMinter(address,address,bool)": {
        "params": {
          "approved": "a boolean indicating the approval status",
          "minter": "the address of the approved minter",
          "owner": "the address of the owner of the project"
        }
      },
      "VersionAdded(uint8[3])": {
        "params": {
          "label": "the semantic version label added"
        }
      },
      "VersionURLUpdated(uint8[3],uint8,string)": {
        "params": {
          "index": "the url index 0 = image, 1 = animation",
          "label": "the semantic version label that the url is being updated",
          "url": "the url to be updated to"
        }
      }
    },
    "kind": "dev",
    "methods": {
      "addVersion(((string,bytes32)[],uint8[3]))": {
        "details": "Adds new version of the media updating the urls rendered in the metadata. The order added determins order stored, the label has no effect.",
        "params": {
          "_version": "The version to be added consisting of urls, hashes and a label"
        }
      },
      "approve(address,uint256)": {
        "details": "See {IERC721-approve}."
      },
      "balanceOf(address)": {
        "details": "See {IERC721-balanceOf}."
      },
      "burn(uint256)": {
        "details": "burns token id if owner or approved owner",
        "params": {
          "tokenId": "Token ID to burn"
        }
      },
      "finalizeEditionSize()": {
        "details": "if edition size was set to zero on initialization this allows the owner of the contract to set the edition size to the total supply"
      },
      "getApproved(uint256)": {
        "details": "See {IERC721-getApproved}."
      },
      "getURIs()": {
        "details": "Get URIs for project, will retrieve URIs from the last added version",
        "returns": {
          "_0": "imageUrl The url of the image",
          "_1": "imageHash  A sha-256 hash of the content on the imageUrl, will be zero address if url blank",
          "_2": "animationUrl The url of the animation",
          "_3": "animationHash A sha-256 hash of the content on the animationUrl, will be zero address if url blank"
        }
      },
      "getURIsOfVersion(uint8[3])": {
        "details": "Get URIs for edition NFT of a version Will get URIs from the last version added",
        "params": {
          "label": "The label of the version"
        },
        "returns": {
          "_0": "imageUrl",
          "_1": "imageHash",
          "_2": "animationUrl",
          "_3": "animationHash"
        }
      },
      "initialize(address,string,string,string,((string,bytes32)[],uint8[3]),uint256,uint256)": {
        "details": "Function to create a new project. Can only be called by the allowed creator Sets the only allowed minter to the address that creates/owns the project. This can be re-assigned or updated later",
        "params": {
          "_description": "Description of project, used in the description field of the NFT",
          "_editionSize": "Number of editions that can be minted in total. If 0, unlimited editions can be minted.",
          "_name": "Name of project, used in the title as \"$NAME NUMBER/TOTAL\"",
          "_owner": "User that owns and can mint the project, gets royalty and sales payouts and can update the base url if needed.",
          "_royaltyBPS": "BPS of the royalty set on the contract. Can be 0 for no royalty.",
          "_symbol": "Symbol of the project",
          "_version": "Version of the media consisting of urls and hashes of animation and image content"
        }
      },
      "isApprovedForAll(address,address)": {
        "details": "See {IERC721-isApprovedForAll}."
      },
      "mintEdition(address,uint256)": {
        "details": "This mints one edition to the given address by an allowed minter on the edition instance.",
        "params": {
          "seed": "number of the chosen seed",
          "to": "address to send the newly minted edition to"
        }
      },
      "mintEditions((address,uint256)[])": {
        "details": "This mints multiple editions to the given list of addresses.",
        "params": {
          "recipients": "list of addresses and seeds to send the newly minted editions to"
        }
      },
      "name()": {
        "details": "See {IERC721Metadata-name}."
      },
      "numberCanMint()": {
        "details": "returns the number of editions allowed to mint (max_uint256 when open edition)",
        "returns": {
          "_0": "allowedToMint the number of editions allowed to mint"
        }
      },
      "ownerOf(uint256)": {
        "details": "See {IERC721-ownerOf}."
      },
      "purchase(uint256)": {
        "details": "This allows the user to purchase an edition at the given price in the contract.",
        "params": {
          "seed": "the chosen seed number"
        }
      },
      "renounceOwnership()": {
        "details": "Leaves the contract without owner. It will not be possible to call `onlyOwner` functions anymore. Can only be called by the current owner. NOTE: Renouncing ownership will leave the contract without an owner, thereby removing any functionality that is only available to the owner."
      },
      "royaltyInfo(uint256,uint256)": {
        "details": "Get royalty information for token",
        "params": {
          "_salePrice": "Sale price for the token"
        }
      },
      "safeTransferFrom(address,address,uint256)": {
        "details": "See {IERC721-safeTransferFrom}."
      },
      "safeTransferFrom(address,address,uint256,bytes)": {
        "details": "See {IERC721-safeTransferFrom}."
      },
      "setApprovalForAll(address,bool)": {
        "details": "See {IERC721-setApprovalForAll}."
      },
      "setApprovedMinter(address,bool)": {
        "details": "Sets the approved minting status of the given address. This requires that msg.sender is the owner of the given project id. If the ZeroAddress (address(0x0)) is set as a minter, anyone will be allowed to mint. This setup is similar to setApprovalForAll in the ERC721 spec.",
        "params": {
          "allowed": "boolean if that address is allowed to mint",
          "minter": "address to set approved minting status for"
        }
      },
      "setRoyaltyFundsRecipient(address)": {
        "params": {
          "newRecipientAddress": "the new address where royalties will be sent"
        }
      },
      "setSalePrice(uint256)": {
        "details": "This sets a simple ETH sales price Setting a sales price allows users to mint the edition until it sells out. For more granular sales, use an external sales contract.",
        "params": {
          "_salePrice": "if sale price is 0 sale is stopped, otherwise that amount  of ETH is needed to start the sale."
        }
      },
      "symbol()": {
        "details": "See {IERC721Metadata-symbol}."
      },
      "tokenURI(uint256)": {
        "details": "Get URI for given token id, will retrieve URIs from the last added version",
        "params": {
          "tokenId": "token id to get uri for"
        },
        "returns": {
          "_0": "metadata base64-encoded json metadata object"
        }
      },
      "tokenURIOfVersion(uint256,uint8[3])": {
        "details": "Get URI for given token id of given version",
        "params": {
          "label": "the label of the version",
          "tokenId": "token id to get uri for"
        },
        "returns": {
          "_0": "metadata base64-encoded json metadata object"
        }
      },
      "totalSupply()": {
        "details": "returns the number of minted tokens within the edition"
      },
      "transferFrom(address,address,uint256)": {
        "details": "See {IERC721-transferFrom}."
      },
      "transferOwnership(address)": {
        "details": "Transfers ownership of the contract to a new account (`newOwner`). Can only be called by the current owner."
      },
      "updateVersionURL(uint8[3],uint8,string)": {
        "details": "Updates a url of specified version by the owner of the project. Only URLs can be updated (data-uris are supported), hashes cannot be updated.",
        "params": {
          "_label": "The label of the specified version",
          "_url": "The url to be updated to",
          "_urlKey": "The index of the url to update 0=animation, 1=image"
        }
      },
      "withdraw()": {
        "details": "This withdraws ETH from the contract to the contract owner."
      }
    },
    "version": 1
  },
  "userdoc": {
    "kind": "user",
    "methods": {
      "finalizeEditionSize()": {
        "notice": "allows the creator to finalise the edition size to the total minted"
      },
      "owner()": {
        "notice": "Simple override for owner interface."
      },
      "setRoyaltyFundsRecipient(address)": {
        "notice": "sets a different royalty funds recipient"
      }
    },
    "notice": "This is a smart contract for handling dynamic contract minting. This is a fork of Zora NFT Editions changes: - Media urls are versioned allowing for updatable content preserving history - The NFT contract address is included in edition url query for easyier access to query the graph from within the NFT - SupportsInterface function includes project implementation interface",
    "version": 1
  },
  "storageLayout": {
    "storage": [
      {
        "astId": 232,
        "contract": "contracts/Projects/Seeded.sol:SeededProject",
        "label": "_initialized",
        "offset": 0,
        "slot": "0",
        "type": "t_bool"
      },
      {
        "astId": 235,
        "contract": "contracts/Projects/Seeded.sol:SeededProject",
        "label": "_initializing",
        "offset": 1,
        "slot": "0",
        "type": "t_bool"
      },
      {
        "astId": 1567,
        "contract": "contracts/Projects/Seeded.sol:SeededProject",
        "label": "__gap",
        "offset": 0,
        "slot": "1",
        "type": "t_array(t_uint256)50_storage"
      },
      {
        "astId": 1890,
        "contract": "contracts/Projects/Seeded.sol:SeededProject",
        "label": "__gap",
        "offset": 0,
        "slot": "51",
        "type": "t_array(t_uint256)50_storage"
      },
      {
        "astId": 301,
        "contract": "contracts/Projects/Seeded.sol:SeededProject",
        "label": "_name",
        "offset": 0,
        "slot": "101",
        "type": "t_string_storage"
      },
      {
        "astId": 303,
        "contract": "contracts/Projects/Seeded.sol:SeededProject",
        "label": "_symbol",
        "offset": 0,
        "slot": "102",
        "type": "t_string_storage"
      },
      {
        "astId": 307,
        "contract": "contracts/Projects/Seeded.sol:SeededProject",
        "label": "_owners",
        "offset": 0,
        "slot": "103",
        "type": "t_mapping(t_uint256,t_address)"
      },
      {
        "astId": 311,
        "contract": "contracts/Projects/Seeded.sol:SeededProject",
        "label": "_balances",
        "offset": 0,
        "slot": "104",
        "type": "t_mapping(t_address,t_uint256)"
      },
      {
        "astId": 315,
        "contract": "contracts/Projects/Seeded.sol:SeededProject",
        "label": "_tokenApprovals",
        "offset": 0,
        "slot": "105",
        "type": "t_mapping(t_uint256,t_address)"
      },
      {
        "astId": 321,
        "contract": "contracts/Projects/Seeded.sol:SeededProject",
        "label": "_operatorApprovals",
        "offset": 0,
        "slot": "106",
        "type": "t_mapping(t_address,t_mapping(t_address,t_bool))"
      },
      {
        "astId": 1117,
        "contract": "contracts/Projects/Seeded.sol:SeededProject",
        "label": "__gap",
        "offset": 0,
        "slot": "107",
        "type": "t_array(t_uint256)44_storage"
      },
      {
        "astId": 10,
        "contract": "contracts/Projects/Seeded.sol:SeededProject",
        "label": "_owner",
        "offset": 0,
        "slot": "151",
        "type": "t_address"
      },
      {
        "astId": 123,
        "contract": "contracts/Projects/Seeded.sol:SeededProject",
        "label": "__gap",
        "offset": 0,
        "slot": "152",
        "type": "t_array(t_uint256)49_storage"
      },
      {
        "astId": 2507,
        "contract": "contracts/Projects/Seeded.sol:SeededProject",
        "label": "description",
        "offset": 0,
        "slot": "201",
        "type": "t_string_storage"
      },
      {
        "astId": 2514,
        "contract": "contracts/Projects/Seeded.sol:SeededProject",
        "label": "versions",
        "offset": 0,
        "slot": "202",
        "type": "t_struct(Set)5336_storage"
      },
      {
        "astId": 2516,
        "contract": "contracts/Projects/Seeded.sol:SeededProject",
        "label": "editionSize",
        "offset": 0,
        "slot": "204",
        "type": "t_uint256"
      },
      {
        "astId": 2519,
        "contract": "contracts/Projects/Seeded.sol:SeededProject",
        "label": "atEditionId",
        "offset": 0,
        "slot": "205",
        "type": "t_struct(Counter)1574_storage"
      },
      {
        "astId": 2521,
        "contract": "contracts/Projects/Seeded.sol:SeededProject",
        "label": "royaltyBPS",
        "offset": 0,
        "slot": "206",
        "type": "t_uint256"
      },
      {
        "astId": 2525,
        "contract": "contracts/Projects/Seeded.sol:SeededProject",
        "label": "allowedMinters",
        "offset": 0,
        "slot": "207",
        "type": "t_mapping(t_address,t_bool)"
      },
      {
        "astId": 2529,
        "contract": "contracts/Projects/Seeded.sol:SeededProject",
        "label": "seedsUsed",
        "offset": 0,
        "slot": "208",
        "type": "t_mapping(t_uint256,t_bool)"
      },
      {
        "astId": 2533,
        "contract": "contracts/Projects/Seeded.sol:SeededProject",
        "label": "seedOfTokens",
        "offset": 0,
        "slot": "209",
        "type": "t_mapping(t_uint256,t_uint256)"
      },
      {
        "astId": 2535,
        "contract": "contracts/Projects/Seeded.sol:SeededProject",
        "label": "salePrice",
        "offset": 0,
        "slot": "210",
        "type": "t_uint256"
      },
      {
        "astId": 2540,
        "contract": "contracts/Projects/Seeded.sol:SeededProject",
        "label": "royaltyFundsRecipient",
        "offset": 0,
        "slot": "211",
        "type": "t_address_payable"
      }
    ],
    "types": {
      "t_address": {
        "encoding": "inplace",
        "label": "address",
        "numberOfBytes": "20"
      },
      "t_address_payable": {
        "encoding": "inplace",
        "label": "address payable",
        "numberOfBytes": "20"
      },
      "t_array(t_string_storage)dyn_storage": {
        "base": "t_string_storage",
        "encoding": "dynamic_array",
        "label": "string[]",
        "numberOfBytes": "32"
      },
      "t_array(t_struct(UrlHashPair)5318_storage)dyn_storage": {
        "base": "t_struct(UrlHashPair)5318_storage",
        "encoding": "dynamic_array",
        "label": "struct Versions.UrlHashPair[]",
        "numberOfBytes": "32"
      },
      "t_array(t_uint256)44_storage": {
        "base": "t_uint256",
        "encoding": "inplace",
        "label": "uint256[44]",
        "numberOfBytes": "1408"
      },
      "t_array(t_uint256)49_storage": {
        "base": "t_uint256",
        "encoding": "inplace",
        "label": "uint256[49]",
        "numberOfBytes": "1568"
      },
      "t_array(t_uint256)50_storage": {
        "base": "t_uint256",
        "encoding": "inplace",
        "label": "uint256[50]",
        "numberOfBytes": "1600"
      },
      "t_array(t_uint8)3_storage": {
        "base": "t_uint8",
        "encoding": "inplace",
        "label": "uint8[3]",
        "numberOfBytes": "32"
      },
      "t_bool": {
        "encoding": "inplace",
        "label": "bool",
        "numberOfBytes": "1"
      },
      "t_bytes32": {
        "encoding": "inplace",
        "label": "bytes32",
        "numberOfBytes": "32"
      },
      "t_mapping(t_address,t_bool)": {
        "encoding": "mapping",
        "key": "t_address",
        "label": "mapping(address => bool)",
        "numberOfBytes": "32",
        "value": "t_bool"
      },
      "t_mapping(t_address,t_mapping(t_address,t_bool))": {
        "encoding": "mapping",
        "key": "t_address",
        "label": "mapping(address => mapping(address => bool))",
        "numberOfBytes": "32",
        "value": "t_mapping(t_address,t_bool)"
      },
      "t_mapping(t_address,t_uint256)": {
        "encoding": "mapping",
        "key": "t_address",
        "label": "mapping(address => uint256)",
        "numberOfBytes": "32",
        "value": "t_uint256"
      },
      "t_mapping(t_string_memory_ptr,t_struct(Version)5327_storage)": {
        "encoding": "mapping",
        "key": "t_string_memory_ptr",
        "label": "mapping(string => struct Versions.Version)",
        "numberOfBytes": "32",
        "value": "t_struct(Version)5327_storage"
      },
      "t_mapping(t_uint256,t_address)": {
        "encoding": "mapping",
        "key": "t_uint256",
        "label": "mapping(uint256 => address)",
        "numberOfBytes": "32",
        "value": "t_address"
      },
      "t_mapping(t_uint256,t_bool)": {
        "encoding": "mapping",
        "key": "t_uint256",
        "label": "mapping(uint256 => bool)",
        "numberOfBytes": "32",
        "value": "t_bool"
      },
      "t_mapping(t_uint256,t_uint256)": {
        "encoding": "mapping",
        "key": "t_uint256",
        "label": "mapping(uint256 => uint256)",
        "numberOfBytes": "32",
        "value": "t_uint256"
      },
      "t_string_memory_ptr": {
        "encoding": "bytes",
        "label": "string",
        "numberOfBytes": "32"
      },
      "t_string_storage": {
        "encoding": "bytes",
        "label": "string",
        "numberOfBytes": "32"
      },
      "t_struct(Counter)1574_storage": {
        "encoding": "inplace",
        "label": "struct CountersUpgradeable.Counter",
        "members": [
          {
            "astId": 1573,
            "contract": "contracts/Projects/Seeded.sol:SeededProject",
            "label": "_value",
            "offset": 0,
            "slot": "0",
            "type": "t_uint256"
          }
        ],
        "numberOfBytes": "32"
      },
      "t_struct(Set)5336_storage": {
        "encoding": "inplace",
        "label": "struct Versions.Set",
        "members": [
          {
            "astId": 5330,
            "contract": "contracts/Projects/Seeded.sol:SeededProject",
            "label": "labels",
            "offset": 0,
            "slot": "0",
            "type": "t_array(t_string_storage)dyn_storage"
          },
          {
            "astId": 5335,
            "contract": "contracts/Projects/Seeded.sol:SeededProject",
            "label": "versions",
            "offset": 0,
            "slot": "1",
            "type": "t_mapping(t_string_memory_ptr,t_struct(Version)5327_storage)"
          }
        ],
        "numberOfBytes": "64"
      },
      "t_struct(UrlHashPair)5318_storage": {
        "encoding": "inplace",
        "label": "struct Versions.UrlHashPair",
        "members": [
          {
            "astId": 5315,
            "contract": "contracts/Projects/Seeded.sol:SeededProject",
            "label": "url",
            "offset": 0,
            "slot": "0",
            "type": "t_string_storage"
          },
          {
            "astId": 5317,
            "contract": "contracts/Projects/Seeded.sol:SeededProject",
            "label": "sha256hash",
            "offset": 0,
            "slot": "1",
            "type": "t_bytes32"
          }
        ],
        "numberOfBytes": "64"
      },
      "t_struct(Version)5327_storage": {
        "encoding": "inplace",
        "label": "struct Versions.Version",
        "members": [
          {
            "astId": 5322,
            "contract": "contracts/Projects/Seeded.sol:SeededProject",
            "label": "urls",
            "offset": 0,
            "slot": "0",
            "type": "t_array(t_struct(UrlHashPair)5318_storage)dyn_storage"
          },
          {
            "astId": 5326,
            "contract": "contracts/Projects/Seeded.sol:SeededProject",
            "label": "label",
            "offset": 0,
            "slot": "1",
            "type": "t_array(t_uint8)3_storage"
          }
        ],
        "numberOfBytes": "64"
      },
      "t_uint256": {
        "encoding": "inplace",
        "label": "uint256",
        "numberOfBytes": "32"
      },
      "t_uint8": {
        "encoding": "inplace",
        "label": "uint8",
        "numberOfBytes": "1"
      }
    }
  }
}