{
  "address": "0x9b95e22Cd51A17Eda833d5a0596a08e111F792c8",
  "abi": [
    {
      "inputs": [
        {
          "internalType": "address[]",
          "name": "_implementations",
          "type": "address[]"
        }
      ],
      "stateMutability": "nonpayable",
      "type": "constructor"
    },
    {
      "anonymous": false,
      "inputs": [
        {
          "indexed": true,
          "internalType": "uint256",
          "name": "editionId",
          "type": "uint256"
        },
        {
          "indexed": true,
          "internalType": "address",
          "name": "creator",
          "type": "address"
        },
        {
          "indexed": false,
          "internalType": "uint256",
          "name": "editionSize",
          "type": "uint256"
        },
        {
          "indexed": false,
          "internalType": "address",
          "name": "editionContractAddress",
          "type": "address"
        },
        {
          "indexed": false,
          "internalType": "uint8",
          "name": "implementation",
          "type": "uint8"
        }
      ],
      "name": "CreatedEdition",
      "type": "event"
    },
    {
      "inputs": [
        {
          "components": [
            {
              "internalType": "string",
              "name": "name",
              "type": "string"
            },
            {
              "internalType": "string",
              "name": "symbol",
              "type": "string"
            },
            {
              "internalType": "string",
              "name": "description",
              "type": "string"
            },
            {
              "components": [
                {
                  "components": [
                    {
                      "internalType": "string",
                      "name": "url",
                      "type": "string"
                    },
                    {
                      "internalType": "bytes32",
                      "name": "sha256hash",
                      "type": "bytes32"
                    }
                  ],
                  "internalType": "struct Versions.UrlWithHash[]",
                  "name": "urls",
                  "type": "tuple[]"
                },
                {
                  "internalType": "uint8[3]",
                  "name": "label",
                  "type": "uint8[3]"
                }
              ],
              "internalType": "struct Versions.Version",
              "name": "version",
              "type": "tuple"
            },
            {
              "internalType": "uint256",
              "name": "editionSize",
              "type": "uint256"
            },
            {
              "internalType": "uint256",
              "name": "royaltyBPS",
              "type": "uint256"
            }
          ],
          "internalType": "struct SingleEditionMintableCreator.EditionData",
          "name": "editionData",
          "type": "tuple"
        },
        {
          "internalType": "uint8",
          "name": "implementation",
          "type": "uint8"
        }
      ],
      "name": "createEdition",
      "outputs": [
        {
          "internalType": "uint256",
          "name": "",
          "type": "uint256"
        }
      ],
      "stateMutability": "nonpayable",
      "type": "function"
    },
    {
      "inputs": [
        {
          "internalType": "uint256",
          "name": "editionId",
          "type": "uint256"
        },
        {
          "internalType": "uint8",
          "name": "implementation",
          "type": "uint8"
        }
      ],
      "name": "getEditionAtId",
      "outputs": [
        {
          "internalType": "address",
          "name": "",
          "type": "address"
        }
      ],
      "stateMutability": "view",
      "type": "function"
    },
    {
      "inputs": [
        {
          "internalType": "uint256",
          "name": "",
          "type": "uint256"
        }
      ],
      "name": "implementations",
      "outputs": [
        {
          "internalType": "address",
          "name": "",
          "type": "address"
        }
      ],
      "stateMutability": "view",
      "type": "function"
    }
  ],
  "transactionHash": "0x6441f3e02d06ba70f108042fb76a6b1359f98a3363ae4055e161fb9634e1b86c",
  "args": [
    [
      "0x20930978b2a6Db412c3C4281FEdFc68063f39262",
      "0x94e63759491B0EFfeAa2495d9e7D94A3fAB34579"
    ]
  ],
  "solcInputHash": "56169438e4bb47f778d0edd9e861ea14",
  "bytecode": "0x60806040523480156200001157600080fd5b5060405162000c4e38038062000c4e833981016040819052620000349162000133565b80600060ff16815181106200004d576200004d62000222565b60200260200101516002600060018111156200006d576200006d6200020c565b60ff166002811062000083576200008362000222565b0180546001600160a01b0319166001600160a01b039290921691909117905580600160ff1681518110620000bb57620000bb62000222565b60200260200101516002600180811115620000da57620000da6200020c565b60ff1660028110620000f057620000f062000222565b0180546001600160a01b0319166001600160a01b0392909216919091179055506200024e565b80516001600160a01b03811681146200012e57600080fd5b919050565b600060208083850312156200014757600080fd5b82516001600160401b03808211156200015f57600080fd5b818501915085601f8301126200017457600080fd5b81518181111562000189576200018962000238565b8060051b604051601f19603f83011681018181108582111715620001b157620001b162000238565b604052828152858101935084860182860187018a1015620001d157600080fd5b600095505b83861015620001ff57620001ea8162000116565b855260019590950194938601938601620001d6565b5098975050505050505050565b634e487b7160e01b600052602160045260246000fd5b634e487b7160e01b600052603260045260246000fd5b634e487b7160e01b600052604160045260246000fd5b6109f0806200025e6000396000f3fe608060405234801561001057600080fd5b50600436106100415760003560e01c80632c9d983e14610046578063845affc814610076578063eb8a4bbf14610089575b600080fd5b610059610054366004610762565b6100aa565b6040516001600160a01b0390911681526020015b60405180910390f35b610059610084366004610749565b61015f565b61009c61009736600461064a565b61017f565b60405190815260200161006d565b600061015660028360ff16600281106100c5576100c561098e565b015460408051602081018790526001600160a01b0390921691016040516020818303038152906040526100f790610967565b30604051733d602d80600a3d3981f3363d3d373d3d3d363d7360601b8152606093841b60148201526f5af43d82803e903d91602b57fd5bf3ff60801b6028820152921b6038830152604c8201526037808220606c830152605591012090565b90505b92915050565b6002816002811061016f57600080fd5b01546001600160a01b0316905081565b6000806101a060008460ff166002811061019b5761019b61098e565b015490565b905060006101f460028560ff16600281106101bd576101bd61098e565b015460408051602081018690526001600160a01b0390921691016040516020818303038152906040526101ef90610967565b61038d565b905060ff841661028157806001600160a01b03166313d2de32338760000151886020015189604001518a606001518b608001518c60a001516040518863ffffffff1660e01b815260040161024e97969594939291906107fe565b600060405180830381600087803b15801561026857600080fd5b505af115801561027c573d6000803e3d6000fd5b505050505b60ff84166001141561031057806001600160a01b03166313d2de32338760000151886020015189604001518a606001518b608001518c60a001516040518863ffffffff1660e01b81526004016102dd97969594939291906107fe565b600060405180830381600087803b1580156102f757600080fd5b505af115801561030b573d6000803e3d6000fd5b505050505b6080850151604080519182526001600160a01b038316602083015260ff86168282015251339184917fcfd3e3dbf384b4c0216fab858fcd7df222e7619305782382e905da08f0cb4b589181900360600190a361038560008560ff166002811061037b5761037b61098e565b0180546001019055565b509392505050565b6000604051733d602d80600a3d3981f3363d3d373d3d3d363d7360601b81528360601b60148201526e5af43d82803e903d91602b57fd5bf360881b6028820152826037826000f59150506001600160a01b0381166101595760405162461bcd60e51b8152602060048201526017602482015276115490cc4c4d8dce8818dc99585d194c8819985a5b1959604a1b604482015260640160405180910390fd5b600082601f83011261043c57600080fd5b604051606081018181106001600160401b038211171561045e5761045e6109a4565b60405280836060810186101561047357600080fd5b60005b600381101561049d5761048882610634565b83526020928301929190910190600101610476565b509195945050505050565b600082601f8301126104b957600080fd5b81356001600160401b038111156104d2576104d26109a4565b6104e5601f8201601f1916602001610937565b8181528460208386010111156104fa57600080fd5b816020850160208301376000918101602001919091529392505050565b60006080828403121561052957600080fd5b6105316108ed565b905081356001600160401b038082111561054a57600080fd5b818401915084601f83011261055e57600080fd5b8135602082821115610572576105726109a4565b8160051b610581828201610937565b8381528281019086840183880185018b101561059c57600080fd5b600093505b85841015610614578035878111156105b857600080fd5b88016040818d03601f19018113156105cf57600080fd5b6105d76108ed565b878301358a8111156105e857600080fd5b6105f68f8a838701016104a8565b825250910135868201528352600193909301929184019184016105a1565b5087525061062690508787830161042b565b818601525050505092915050565b803560ff8116811461064557600080fd5b919050565b6000806040838503121561065d57600080fd5b82356001600160401b038082111561067457600080fd5b9084019060c0828703121561068857600080fd5b610690610915565b82358281111561069f57600080fd5b6106ab888286016104a8565b8252506020830135828111156106c057600080fd5b6106cc888286016104a8565b6020830152506040830135828111156106e457600080fd5b6106f0888286016104a8565b60408301525060608301358281111561070857600080fd5b61071488828601610517565b6060830152506080830135608082015260a083013560a082015280945050505061074060208401610634565b90509250929050565b60006020828403121561075b57600080fd5b5035919050565b6000806040838503121561077557600080fd5b8235915061074060208401610634565b8060005b60038110156107ab57815160ff16845260209384019390910190600101610789565b50505050565b6000815180845260005b818110156107d7576020818501810151868301820152016107bb565b818111156107e9576000602083870101525b50601f01601f19169290920160200192915050565b6001600160a01b038816815260e060208083018290526000916108239084018a6107b1565b604084820381860152610836828b6107b1565b9150848203606086015261084a828a6107b1565b915084820360808601526080820188516080845281815180845260a08601915060a08160051b8701019350868301925060005b818110156108be57868503609f19018352835180518787526108a1888801826107b1565b918a0151968a01969096529450928701929187019160010161087d565b505050508389015191506108d484840183610785565b60a08601979097525050505060c0015295945050505050565b604080519081016001600160401b038111828210171561090f5761090f6109a4565b60405290565b60405160c081016001600160401b038111828210171561090f5761090f6109a4565b604051601f8201601f191681016001600160401b038111828210171561095f5761095f6109a4565b604052919050565b80516020808301519190811015610988576000198160200360031b1b821691505b50919050565b634e487b7160e01b600052603260045260246000fd5b634e487b7160e01b600052604160045260246000fdfea2646970667358221220137c8e1638373fc896581f0799709bfa0529ea6513213228708bc89c1adac1d964736f6c63430008060033",
  "devdoc": {
    "events": {
      "CreatedEdition(uint256,address,uint256,address,uint8)": {
        "params": {
          "editionId": "ID of newly created edition"
        }
      }
    },
    "kind": "dev",
    "methods": {
      "constructor": {
        "params": {
          "_implementations": "Array of addresse for implementations of SingleEditionMintable like contracts to clone"
        }
      },
      "createEdition((string,string,string,((string,bytes32)[],uint8[3]),uint256,uint256),uint8)": {
        "params": {
          "editionData": "EditionData of the edition contract",
          "implementation": "Implementation of the edition contract"
        }
      },
      "getEditionAtId(uint256,uint8)": {
        "params": {
          "editionId": "id of edition to get contract for"
        },
        "returns": {
          "_0": "SingleEditionMintable Edition NFT contract"
        }
      }
    },
    "version": 1
  },
  "userdoc": {
    "events": {
      "CreatedEdition(uint256,address,uint256,address,uint8)": {
        "notice": "Emitted when a edition is created reserving the corresponding token IDs."
      }
    },
    "kind": "user",
    "methods": {
      "constructor": {
        "notice": "Initializes factory with address of implementations logic"
      },
      "createEdition((string,string,string,((string,bytes32)[],uint8[3]),uint256,uint256),uint8)": {
        "notice": "Creates a new edition contract as a factory with a deterministic address"
      },
      "getEditionAtId(uint256,uint8)": {
        "notice": "Get edition given the created ID"
      },
      "implementations(uint256)": {
        "notice": "Address for implementation of SingleEditionMintable to clone"
      }
    },
    "version": 1
  },
  "storageLayout": {
    "storage": [
      {
        "astId": 4563,
        "contract": "contracts/SingleEditionMintableCreator.sol:SingleEditionMintableCreator",
        "label": "atContracts",
        "offset": 0,
        "slot": "0",
        "type": "t_array(t_struct(Counter)1574_storage)2_storage"
      },
      {
        "astId": 4568,
        "contract": "contracts/SingleEditionMintableCreator.sol:SingleEditionMintableCreator",
        "label": "implementations",
        "offset": 0,
        "slot": "2",
        "type": "t_array(t_address)2_storage"
      }
    ],
    "types": {
      "t_address": {
        "encoding": "inplace",
        "label": "address",
        "numberOfBytes": "20"
      },
      "t_array(t_address)2_storage": {
        "base": "t_address",
        "encoding": "inplace",
        "label": "address[2]",
        "numberOfBytes": "64"
      },
      "t_array(t_struct(Counter)1574_storage)2_storage": {
        "base": "t_struct(Counter)1574_storage",
        "encoding": "inplace",
        "label": "struct CountersUpgradeable.Counter[2]",
        "numberOfBytes": "64"
      },
      "t_struct(Counter)1574_storage": {
        "encoding": "inplace",
        "label": "struct CountersUpgradeable.Counter",
        "members": [
          {
            "astId": 1573,
            "contract": "contracts/SingleEditionMintableCreator.sol:SingleEditionMintableCreator",
            "label": "_value",
            "offset": 0,
            "slot": "0",
            "type": "t_uint256"
          }
        ],
        "numberOfBytes": "32"
      },
      "t_uint256": {
        "encoding": "inplace",
        "label": "uint256",
        "numberOfBytes": "32"
      }
    }
  }
}