{
  "address": "0x20930978b2a6Db412c3C4281FEdFc68063f39262",
  "abi": [
    {
      "inputs": [
        {
          "internalType": "contract SharedNFTLogic",
          "name": "_sharedNFTLogic",
          "type": "address"
        }
      ],
      "stateMutability": "nonpayable",
      "type": "constructor"
    },
    {
      "anonymous": false,
      "inputs": [
        {
          "indexed": true,
          "internalType": "address",
          "name": "owner",
          "type": "address"
        },
        {
          "indexed": true,
          "internalType": "address",
          "name": "approved",
          "type": "address"
        },
        {
          "indexed": true,
          "internalType": "uint256",
          "name": "tokenId",
          "type": "uint256"
        }
      ],
      "name": "Approval",
      "type": "event"
    },
    {
      "anonymous": false,
      "inputs": [
        {
          "indexed": true,
          "internalType": "address",
          "name": "owner",
          "type": "address"
        },
        {
          "indexed": true,
          "internalType": "address",
          "name": "operator",
          "type": "address"
        },
        {
          "indexed": false,
          "internalType": "bool",
          "name": "approved",
          "type": "bool"
        }
      ],
      "name": "ApprovalForAll",
      "type": "event"
    },
    {
      "anonymous": false,
      "inputs": [
        {
          "indexed": true,
          "internalType": "address",
          "name": "owner",
          "type": "address"
        },
        {
          "indexed": true,
          "internalType": "address",
          "name": "minter",
          "type": "address"
        },
        {
          "indexed": false,
          "internalType": "bool",
          "name": "approved",
          "type": "bool"
        }
      ],
      "name": "ApprovedMinter",
      "type": "event"
    },
    {
      "anonymous": false,
      "inputs": [
        {
          "indexed": false,
          "internalType": "uint256",
          "name": "price",
          "type": "uint256"
        },
        {
          "indexed": false,
          "internalType": "address",
          "name": "owner",
          "type": "address"
        }
      ],
      "name": "EditionSold",
      "type": "event"
    },
    {
      "anonymous": false,
      "inputs": [
        {
          "indexed": true,
          "internalType": "address",
          "name": "previousOwner",
          "type": "address"
        },
        {
          "indexed": true,
          "internalType": "address",
          "name": "newOwner",
          "type": "address"
        }
      ],
      "name": "OwnershipTransferred",
      "type": "event"
    },
    {
      "anonymous": false,
      "inputs": [
        {
          "indexed": false,
          "internalType": "uint256",
          "name": "amount",
          "type": "uint256"
        }
      ],
      "name": "PriceChanged",
      "type": "event"
    },
    {
      "anonymous": false,
      "inputs": [
        {
          "indexed": true,
          "internalType": "address",
          "name": "from",
          "type": "address"
        },
        {
          "indexed": true,
          "internalType": "address",
          "name": "to",
          "type": "address"
        },
        {
          "indexed": true,
          "internalType": "uint256",
          "name": "tokenId",
          "type": "uint256"
        }
      ],
      "name": "Transfer",
      "type": "event"
    },
    {
      "anonymous": false,
      "inputs": [
        {
          "indexed": false,
          "internalType": "uint8[3]",
          "name": "label",
          "type": "uint8[3]"
        }
      ],
      "name": "VersionAdded",
      "type": "event"
    },
    {
      "anonymous": false,
      "inputs": [
        {
          "indexed": false,
          "internalType": "uint8[3]",
          "name": "label",
          "type": "uint8[3]"
        },
        {
          "indexed": false,
          "internalType": "uint8",
          "name": "index",
          "type": "uint8"
        },
        {
          "indexed": false,
          "internalType": "string",
          "name": "url",
          "type": "string"
        }
      ],
      "name": "VersionURLUpdated",
      "type": "event"
    },
    {
      "inputs": [
        {
          "components": [
            {
              "components": [
                {
                  "internalType": "string",
                  "name": "url",
                  "type": "string"
                },
                {
                  "internalType": "bytes32",
                  "name": "sha256hash",
                  "type": "bytes32"
                }
              ],
              "internalType": "struct Versions.UrlWithHash[]",
              "name": "urls",
              "type": "tuple[]"
            },
            {
              "internalType": "uint8[3]",
              "name": "label",
              "type": "uint8[3]"
            }
          ],
          "internalType": "struct Versions.Version",
          "name": "_version",
          "type": "tuple"
        }
      ],
      "name": "addVersion",
      "outputs": [],
      "stateMutability": "nonpayable",
      "type": "function"
    },
    {
      "inputs": [
        {
          "internalType": "address",
          "name": "to",
          "type": "address"
        },
        {
          "internalType": "uint256",
          "name": "tokenId",
          "type": "uint256"
        }
      ],
      "name": "approve",
      "outputs": [],
      "stateMutability": "nonpayable",
      "type": "function"
    },
    {
      "inputs": [
        {
          "internalType": "address",
          "name": "owner",
          "type": "address"
        }
      ],
      "name": "balanceOf",
      "outputs": [
        {
          "internalType": "uint256",
          "name": "",
          "type": "uint256"
        }
      ],
      "stateMutability": "view",
      "type": "function"
    },
    {
      "inputs": [
        {
          "internalType": "uint256",
          "name": "tokenId",
          "type": "uint256"
        }
      ],
      "name": "burn",
      "outputs": [],
      "stateMutability": "nonpayable",
      "type": "function"
    },
    {
      "inputs": [],
      "name": "description",
      "outputs": [
        {
          "internalType": "string",
          "name": "",
          "type": "string"
        }
      ],
      "stateMutability": "view",
      "type": "function"
    },
    {
      "inputs": [],
      "name": "editionSize",
      "outputs": [
        {
          "internalType": "uint256",
          "name": "",
          "type": "uint256"
        }
      ],
      "stateMutability": "view",
      "type": "function"
    },
    {
      "inputs": [
        {
          "internalType": "uint256",
          "name": "tokenId",
          "type": "uint256"
        }
      ],
      "name": "getApproved",
      "outputs": [
        {
          "internalType": "address",
          "name": "",
          "type": "address"
        }
      ],
      "stateMutability": "view",
      "type": "function"
    },
    {
      "inputs": [],
      "name": "getURIs",
      "outputs": [
        {
          "internalType": "string",
          "name": "",
          "type": "string"
        },
        {
          "internalType": "bytes32",
          "name": "",
          "type": "bytes32"
        },
        {
          "internalType": "string",
          "name": "",
          "type": "string"
        },
        {
          "internalType": "bytes32",
          "name": "",
          "type": "bytes32"
        }
      ],
      "stateMutability": "view",
      "type": "function"
    },
    {
      "inputs": [
        {
          "internalType": "uint8[3]",
          "name": "label",
          "type": "uint8[3]"
        }
      ],
      "name": "getURIsOfVersion",
      "outputs": [
        {
          "internalType": "string",
          "name": "",
          "type": "string"
        },
        {
          "internalType": "bytes32",
          "name": "",
          "type": "bytes32"
        },
        {
          "internalType": "string",
          "name": "",
          "type": "string"
        },
        {
          "internalType": "bytes32",
          "name": "",
          "type": "bytes32"
        }
      ],
      "stateMutability": "view",
      "type": "function"
    },
    {
      "inputs": [],
      "name": "getVersionHistory",
      "outputs": [
        {
          "components": [
            {
              "components": [
                {
                  "internalType": "string",
                  "name": "url",
                  "type": "string"
                },
                {
                  "internalType": "bytes32",
                  "name": "sha256hash",
                  "type": "bytes32"
                }
              ],
              "internalType": "struct Versions.UrlWithHash[]",
              "name": "urls",
              "type": "tuple[]"
            },
            {
              "internalType": "uint8[3]",
              "name": "label",
              "type": "uint8[3]"
            }
          ],
          "internalType": "struct Versions.Version[]",
          "name": "",
          "type": "tuple[]"
        }
      ],
      "stateMutability": "view",
      "type": "function"
    },
    {
      "inputs": [
        {
          "internalType": "address",
          "name": "_owner",
          "type": "address"
        },
        {
          "internalType": "string",
          "name": "_name",
          "type": "string"
        },
        {
          "internalType": "string",
          "name": "_symbol",
          "type": "string"
        },
        {
          "internalType": "string",
          "name": "_description",
          "type": "string"
        },
        {
          "components": [
            {
              "components": [
                {
                  "internalType": "string",
                  "name": "url",
                  "type": "string"
                },
                {
                  "internalType": "bytes32",
                  "name": "sha256hash",
                  "type": "bytes32"
                }
              ],
              "internalType": "struct Versions.UrlWithHash[]",
              "name": "urls",
              "type": "tuple[]"
            },
            {
              "internalType": "uint8[3]",
              "name": "label",
              "type": "uint8[3]"
            }
          ],
          "internalType": "struct Versions.Version",
          "name": "_version",
          "type": "tuple"
        },
        {
          "internalType": "uint256",
          "name": "_editionSize",
          "type": "uint256"
        },
        {
          "internalType": "uint256",
          "name": "_royaltyBPS",
          "type": "uint256"
        }
      ],
      "name": "initialize",
      "outputs": [],
      "stateMutability": "nonpayable",
      "type": "function"
    },
    {
      "inputs": [
        {
          "internalType": "address",
          "name": "owner",
          "type": "address"
        },
        {
          "internalType": "address",
          "name": "operator",
          "type": "address"
        }
      ],
      "name": "isApprovedForAll",
      "outputs": [
        {
          "internalType": "bool",
          "name": "",
          "type": "bool"
        }
      ],
      "stateMutability": "view",
      "type": "function"
    },
    {
      "inputs": [
        {
          "internalType": "address",
          "name": "to",
          "type": "address"
        }
      ],
      "name": "mintEdition",
      "outputs": [
        {
          "internalType": "uint256",
          "name": "",
          "type": "uint256"
        }
      ],
      "stateMutability": "nonpayable",
      "type": "function"
    },
    {
      "inputs": [
        {
          "internalType": "address[]",
          "name": "recipients",
          "type": "address[]"
        }
      ],
      "name": "mintEditions",
      "outputs": [
        {
          "internalType": "uint256",
          "name": "",
          "type": "uint256"
        }
      ],
      "stateMutability": "nonpayable",
      "type": "function"
    },
    {
      "inputs": [],
      "name": "name",
      "outputs": [
        {
          "internalType": "string",
          "name": "",
          "type": "string"
        }
      ],
      "stateMutability": "view",
      "type": "function"
    },
    {
      "inputs": [],
      "name": "numberCanMint",
      "outputs": [
        {
          "internalType": "uint256",
          "name": "",
          "type": "uint256"
        }
      ],
      "stateMutability": "view",
      "type": "function"
    },
    {
      "inputs": [],
      "name": "owner",
      "outputs": [
        {
          "internalType": "address",
          "name": "",
          "type": "address"
        }
      ],
      "stateMutability": "view",
      "type": "function"
    },
    {
      "inputs": [
        {
          "internalType": "uint256",
          "name": "tokenId",
          "type": "uint256"
        }
      ],
      "name": "ownerOf",
      "outputs": [
        {
          "internalType": "address",
          "name": "",
          "type": "address"
        }
      ],
      "stateMutability": "view",
      "type": "function"
    },
    {
      "inputs": [],
      "name": "purchase",
      "outputs": [
        {
          "internalType": "uint256",
          "name": "",
          "type": "uint256"
        }
      ],
      "stateMutability": "payable",
      "type": "function"
    },
    {
      "inputs": [],
      "name": "renounceOwnership",
      "outputs": [],
      "stateMutability": "nonpayable",
      "type": "function"
    },
    {
      "inputs": [],
      "name": "royaltyBPS",
      "outputs": [
        {
          "internalType": "uint256",
          "name": "",
          "type": "uint256"
        }
      ],
      "stateMutability": "view",
      "type": "function"
    },
    {
      "inputs": [
        {
          "internalType": "uint256",
          "name": "",
          "type": "uint256"
        },
        {
          "internalType": "uint256",
          "name": "_salePrice",
          "type": "uint256"
        }
      ],
      "name": "royaltyInfo",
      "outputs": [
        {
          "internalType": "address",
          "name": "receiver",
          "type": "address"
        },
        {
          "internalType": "uint256",
          "name": "royaltyAmount",
          "type": "uint256"
        }
      ],
      "stateMutability": "view",
      "type": "function"
    },
    {
      "inputs": [
        {
          "internalType": "address",
          "name": "from",
          "type": "address"
        },
        {
          "internalType": "address",
          "name": "to",
          "type": "address"
        },
        {
          "internalType": "uint256",
          "name": "tokenId",
          "type": "uint256"
        }
      ],
      "name": "safeTransferFrom",
      "outputs": [],
      "stateMutability": "nonpayable",
      "type": "function"
    },
    {
      "inputs": [
        {
          "internalType": "address",
          "name": "from",
          "type": "address"
        },
        {
          "internalType": "address",
          "name": "to",
          "type": "address"
        },
        {
          "internalType": "uint256",
          "name": "tokenId",
          "type": "uint256"
        },
        {
          "internalType": "bytes",
          "name": "_data",
          "type": "bytes"
        }
      ],
      "name": "safeTransferFrom",
      "outputs": [],
      "stateMutability": "nonpayable",
      "type": "function"
    },
    {
      "inputs": [],
      "name": "salePrice",
      "outputs": [
        {
          "internalType": "uint256",
          "name": "",
          "type": "uint256"
        }
      ],
      "stateMutability": "view",
      "type": "function"
    },
    {
      "inputs": [
        {
          "internalType": "address",
          "name": "operator",
          "type": "address"
        },
        {
          "internalType": "bool",
          "name": "approved",
          "type": "bool"
        }
      ],
      "name": "setApprovalForAll",
      "outputs": [],
      "stateMutability": "nonpayable",
      "type": "function"
    },
    {
      "inputs": [
        {
          "internalType": "address",
          "name": "minter",
          "type": "address"
        },
        {
          "internalType": "bool",
          "name": "allowed",
          "type": "bool"
        }
      ],
      "name": "setApprovedMinter",
      "outputs": [],
      "stateMutability": "nonpayable",
      "type": "function"
    },
    {
      "inputs": [
        {
          "internalType": "uint256",
          "name": "_salePrice",
          "type": "uint256"
        }
      ],
      "name": "setSalePrice",
      "outputs": [],
      "stateMutability": "nonpayable",
      "type": "function"
    },
    {
      "inputs": [
        {
          "internalType": "bytes4",
          "name": "interfaceId",
          "type": "bytes4"
        }
      ],
      "name": "supportsInterface",
      "outputs": [
        {
          "internalType": "bool",
          "name": "",
          "type": "bool"
        }
      ],
      "stateMutability": "view",
      "type": "function"
    },
    {
      "inputs": [],
      "name": "symbol",
      "outputs": [
        {
          "internalType": "string",
          "name": "",
          "type": "string"
        }
      ],
      "stateMutability": "view",
      "type": "function"
    },
    {
      "inputs": [
        {
          "internalType": "uint256",
          "name": "tokenId",
          "type": "uint256"
        }
      ],
      "name": "tokenURI",
      "outputs": [
        {
          "internalType": "string",
          "name": "",
          "type": "string"
        }
      ],
      "stateMutability": "view",
      "type": "function"
    },
    {
      "inputs": [
        {
          "internalType": "uint256",
          "name": "tokenId",
          "type": "uint256"
        },
        {
          "internalType": "uint8[3]",
          "name": "label",
          "type": "uint8[3]"
        }
      ],
      "name": "tokenURIOfVersion",
      "outputs": [
        {
          "internalType": "string",
          "name": "",
          "type": "string"
        }
      ],
      "stateMutability": "view",
      "type": "function"
    },
    {
      "inputs": [],
      "name": "totalSupply",
      "outputs": [
        {
          "internalType": "uint256",
          "name": "",
          "type": "uint256"
        }
      ],
      "stateMutability": "view",
      "type": "function"
    },
    {
      "inputs": [
        {
          "internalType": "address",
          "name": "from",
          "type": "address"
        },
        {
          "internalType": "address",
          "name": "to",
          "type": "address"
        },
        {
          "internalType": "uint256",
          "name": "tokenId",
          "type": "uint256"
        }
      ],
      "name": "transferFrom",
      "outputs": [],
      "stateMutability": "nonpayable",
      "type": "function"
    },
    {
      "inputs": [
        {
          "internalType": "address",
          "name": "newOwner",
          "type": "address"
        }
      ],
      "name": "transferOwnership",
      "outputs": [],
      "stateMutability": "nonpayable",
      "type": "function"
    },
    {
      "inputs": [
        {
          "internalType": "uint8[3]",
          "name": "_label",
          "type": "uint8[3]"
        },
        {
          "internalType": "uint8",
          "name": "_urlKey",
          "type": "uint8"
        },
        {
          "internalType": "string",
          "name": "_url",
          "type": "string"
        }
      ],
      "name": "updateVersionURL",
      "outputs": [],
      "stateMutability": "nonpayable",
      "type": "function"
    },
    {
      "inputs": [],
      "name": "withdraw",
      "outputs": [],
      "stateMutability": "nonpayable",
      "type": "function"
    }
  ],
  "transactionHash": "0xdd9f426368f94090b0a95bf0a4a00951073ee3744cc675d71c5573a1c3225392",
  "args": [
    "0xC1Cec8b6f07FF45fe6Fba64A898c43e50694FE0E"
  ],
  "solcInputHash": "56169438e4bb47f778d0edd9e861ea14",
  "bytecode": "0x60a06040523480156200001157600080fd5b5060405162003dc838038062003dc883398101604081905262000034916200004a565b60601b6001600160601b0319166080526200007c565b6000602082840312156200005d57600080fd5b81516001600160a01b03811681146200007557600080fd5b9392505050565b60805160601c613d26620000a2600039600081816112dd01526114690152613d266000f3fe6080604052600436106101ea5760003560e01c806364edfbf011610113578063b6ddcd52116100ab578063e96932741161006f578063e9693274146105e5578063e985e9c514610605578063f2fde38b14610625578063f4ed0f4614610645578063f51f96dd1461065b57600080fd5b8063b6ddcd521461054d578063b88d4fde1461056d578063b9c9d93a1461058d578063c87b56dd146105a3578063d709b198146105c357600080fd5b806364edfbf01461047157806370a0823114610479578063715018a6146104995780637284e416146104ae5780638da5cb5b146104c357806395d89b41146104d8578063a22cb465146104ed578063a66ff0af1461050d578063b21d81ae1461052d57600080fd5b806323b872dd1161018657806323b872dd1461033857806328c5440f1461035857806329ec16dd1461037d5780632a55205a1461039d5780633ccfd60b146103dc57806342842e0e146103f157806342966c681461041157806351ec35f9146104315780636352211e1461045157600080fd5b806301ffc9a7146101ef57806306fdde0314610224578063081812fc14610246578063095ea7b31461027e5780630b65b6e7146102a05780630f6a9349146102c357806313d2de32146102e357806318160ddd146103035780631919fed714610318575b600080fd5b3480156101fb57600080fd5b5061020f61020a3660046133db565b610671565b60405190151581526020015b60405180910390f35b34801561023057600080fd5b506102396106b7565b60405161021b91906137e7565b34801561025257600080fd5b506102666102613660046134bf565b610749565b6040516001600160a01b03909116815260200161021b565b34801561028a57600080fd5b5061029e610299366004613299565b6107d6565b005b3480156102ac57600080fd5b506102b56108e7565b60405190815260200161021b565b3480156102cf57600080fd5b506102b56102de3660046132c3565b61091b565b3480156102ef57600080fd5b5061029e6102fe3660046131c9565b61094a565b34801561030f57600080fd5b506102b5610a4a565b34801561032457600080fd5b5061029e6103333660046134bf565b610a57565b34801561034457600080fd5b5061029e6103533660046130d6565b610ac2565b34801561036457600080fd5b5061036d610af4565b60405161021b94939291906137fa565b34801561038957600080fd5b5061029e61039836600461318d565b610b9f565b3480156103a957600080fd5b506103bd6103b83660046134fc565b610c3b565b604080516001600160a01b03909316835260208301919091520161021b565b3480156103e857600080fd5b5061029e610c98565b3480156103fd57600080fd5b5061029e61040c3660046130d6565b610cda565b34801561041d57600080fd5b5061029e61042c3660046134bf565b610cf5565b34801561043d57600080fd5b5061029e61044c36600461348b565b610d45565b34801561045d57600080fd5b5061026661046c3660046134bf565b610db2565b6102b5610e29565b34801561048557600080fd5b506102b5610494366004613088565b610f43565b3480156104a557600080fd5b5061029e610fca565b3480156104ba57600080fd5b50610239611003565b3480156104cf57600080fd5b50610266611091565b3480156104e457600080fd5b506102396110a5565b3480156104f957600080fd5b5061029e61050836600461318d565b6110b4565b34801561051957600080fd5b506102b5610528366004613088565b61116e565b34801561053957600080fd5b5061036d610548366004613361565b6111fa565b34801561055957600080fd5b506102396105683660046134d8565b6112a5565b34801561057957600080fd5b5061029e610588366004613112565b6113fa565b34801561059957600080fd5b506102b560ce5481565b3480156105af57600080fd5b506102396105be3660046134bf565b611432565b3480156105cf57600080fd5b506105d861157e565b60405161021b91906136d8565b3480156105f157600080fd5b5061029e61060036600461337d565b61158a565b34801561061157600080fd5b5061020f6106203660046130a3565b611609565b34801561063157600080fd5b5061029e610640366004613088565b611637565b34801561065157600080fd5b506102b560cc5481565b34801561066757600080fd5b506102b560d05481565b60006317e28f2d60e11b6001600160e01b0319831614806106a2575063152a902d60e11b6001600160e01b03198316145b806106b157506106b1826116d4565b92915050565b6060606580546106c690613bf8565b80601f01602080910402602001604051908101604052809291908181526020018280546106f290613bf8565b801561073f5780601f106107145761010080835404028352916020019161073f565b820191906000526020600020905b81548152906001019060200180831161072257829003601f168201915b5050505050905090565b600061075482611724565b6107ba5760405162461bcd60e51b815260206004820152602c60248201527f4552433732313a20617070726f76656420717565727920666f72206e6f6e657860448201526b34b9ba32b73a103a37b5b2b760a11b60648201526084015b60405180910390fd5b506000908152606960205260409020546001600160a01b031690565b60006107e182610db2565b9050806001600160a01b0316836001600160a01b0316141561084f5760405162461bcd60e51b815260206004820152602160248201527f4552433732313a20617070726f76616c20746f2063757272656e74206f776e656044820152603960f91b60648201526084016107b1565b336001600160a01b038216148061086b575061086b8133611609565b6108d85760405162461bcd60e51b815260206004820152603860248201527f4552433732313a20617070726f76652063616c6c6572206973206e6f74206f776044820152771b995c881b9bdc88185c1c1c9bdd995908199bdc88185b1b60421b60648201526084016107b1565b6108e28383611741565b505050565b600060cc54600014156108fb575060001990565b60cd5460cc5461090c906001613b6a565b6109169190613bb5565b905090565b60006109256117af565b6109415760405162461bcd60e51b81526004016107b190613a40565b6106b18261181f565b600054610100900460ff1680610963575060005460ff16155b61097f5760405162461bcd60e51b81526004016107b190613978565b600054610100900460ff161580156109a1576000805461ffff19166101011790555b6109ab87876118ff565b6109b3611986565b6109bc88611637565b84516109cf9060c9906020880190612d12565b5060cc83905560ce8290556109e860cd80546001019055565b6109f360ca85611a01565b7f166b7e506b0600a3fd1259824a1311e569ddb4194c483361dbd1888632897dfa8460200151604051610a2691906137b0565b60405180910390a18015610a40576000805461ff00191690555b5050505050505050565b6000600161090c60cd5490565b33610a60611091565b6001600160a01b031614610a865760405162461bcd60e51b81526004016107b190613a0b565b60d08190556040518181527fa6dc15bdb68da224c66db4b3838d9a2b205138e8cff6774e57d0af91e196d622906020015b60405180910390a150565b610acd335b82611b96565b610ae95760405162461bcd60e51b81526004016107b190613a77565b6108e2838383611c58565b606060006060600080610b0760ca611de6565b8051909150600060ff1681518110610b2157610b21613c8e565b60209081029190910101515181518051600090610b4057610b40613c8e565b6020908102919091018101510151825180516001908110610b6357610b63613c8e565b602090810291909101015151835180516001908110610b8457610b84613c8e565b60200260200101516020015194509450945094505090919293565b33610ba8611091565b6001600160a01b031614610bce5760405162461bcd60e51b81526004016107b190613a0b565b6001600160a01b038216600081815260cf60205260409020805460ff1916831515179055336001600160a01b03167f8cd75c8017bbe4f4552de2caa02ab21b1e3918c4693ab35db62125a620999fcc83604051610c2f911515815260200190565b60405180910390a35050565b60008080610c47611091565b6001600160a01b03161415610c6957610c5e611091565b600091509150610c91565b610c71611091565b61271060ce5485610c829190613b96565b610c8c9190613b82565b915091505b9250929050565b33610ca1611091565b6001600160a01b031614610cc75760405162461bcd60e51b81526004016107b190613a0b565b610cd8610cd2611091565b47611fdb565b565b6108e2838383604051806020016040528060008152506113fa565b610cfe33610ac7565b610d395760405162461bcd60e51b815260206004820152600c60248201526b139bdd08185c1c1c9bdd995960a21b60448201526064016107b1565b610d42816120f4565b50565b33610d4e611091565b6001600160a01b031614610d745760405162461bcd60e51b81526004016107b190613a0b565b610d7f60ca82611a01565b7f166b7e506b0600a3fd1259824a1311e569ddb4194c483361dbd1888632897dfa8160200151604051610ab791906137b0565b6000818152606760205260408120546001600160a01b0316806106b15760405162461bcd60e51b815260206004820152602960248201527f4552433732313a206f776e657220717565727920666f72206e6f6e657869737460448201526832b73a103a37b5b2b760b91b60648201526084016107b1565b60008060d05411610e6b5760405162461bcd60e51b815260206004820152600c60248201526b4e6f7420666f722073616c6560a01b60448201526064016107b1565b60d0543414610eaa5760405162461bcd60e51b815260206004820152600b60248201526a57726f6e6720707269636560a81b60448201526064016107b1565b604080516001808252818301909252600091602080830190803683370190505090503381600081518110610ee057610ee0613c8e565b6001600160a01b0390921660209283029190910182015260d0546040805191825233928201929092527f60a6c75698fadb72223808131f9f9bb9db3afa32122db6d94fb8fc985a504baa910160405180910390a1610f3d8161181f565b91505090565b60006001600160a01b038216610fae5760405162461bcd60e51b815260206004820152602a60248201527f4552433732313a2062616c616e636520717565727920666f7220746865207a65604482015269726f206164647265737360b01b60648201526084016107b1565b506001600160a01b031660009081526068602052604090205490565b33610fd3611091565b6001600160a01b031614610ff95760405162461bcd60e51b81526004016107b190613a0b565b610cd8600061217d565b60c9805461101090613bf8565b80601f016020809104026020016040519081016040528092919081815260200182805461103c90613bf8565b80156110895780601f1061105e57610100808354040283529160200191611089565b820191906000526020600020905b81548152906001019060200180831161106c57829003601f168201915b505050505081565b60006109166097546001600160a01b031690565b6060606680546106c690613bf8565b6001600160a01b0382163314156111095760405162461bcd60e51b815260206004820152601960248201527822a9219b99189d1030b8383937bb32903a379031b0b63632b960391b60448201526064016107b1565b336000818152606a602090815260408083206001600160a01b03871680855290835292819020805460ff191686151590811790915590519081529192917f17307eab39ab6107e8899845ad3d59bd9653f200f220920489ca2b5937696c319101610c2f565b60006111786117af565b6111945760405162461bcd60e51b81526004016107b190613a40565b6040805160018082528183019092526000916020808301908036833701905050905082816000815181106111ca576111ca613c8e565b60200260200101906001600160a01b031690816001600160a01b0316815250506111f38161181f565b9392505050565b6060600081818061120c60ca876121cf565b8051909150600060ff168151811061122657611226613c8e565b6020908102919091010151518151805160009061124557611245613c8e565b602090810291909101810151015182518051600190811061126857611268613c8e565b60209081029190910101515183518051600190811061128957611289613c8e565b6020026020010151602001519450945094509450509193509193565b60606112b083611724565b6112cc5760405162461bcd60e51b81526004016107b190613956565b60006112d960ca846121cf565b90507f00000000000000000000000000000000000000000000000000000000000000006001600160a01b031663eaaf0a466113126106b7565b60408051606081019091528451805160c99291829160009061133657611336613c8e565b6020908102919091018101515182528751910190600160ff168151811061135f5761135f613c8e565b602002602001015160000151815260200186602001518152508860cc54306040518763ffffffff1660e01b815260040161139e96959493929190613837565b60006040518083038186803b1580156113b657600080fd5b505afa1580156113ca573d6000803e3d6000fd5b505050506040513d6000823e601f3d908101601f191682016040526113f29190810190613415565b949350505050565b6114043383611b96565b6114205760405162461bcd60e51b81526004016107b190613a77565b61142c84848484612374565b50505050565b606061143d82611724565b6114595760405162461bcd60e51b81526004016107b190613956565b600061146560ca611de6565b90507f00000000000000000000000000000000000000000000000000000000000000006001600160a01b031663eaaf0a4661149e6106b7565b60408051606081019091528451805160c9929182916000906114c2576114c2613c8e565b6020908102919091018101515182528751910190600160ff16815181106114eb576114eb613c8e565b602002602001015160000151815260200186602001518152508760cc54306040518763ffffffff1660e01b815260040161152a96959493929190613837565b60006040518083038186803b15801561154257600080fd5b505afa158015611556573d6000803e3d6000fd5b505050506040513d6000823e601f3d908101601f191682016040526111f39190810190613415565b606061091660ca6123a7565b33611593611091565b6001600160a01b0316146115b95760405162461bcd60e51b81526004016107b190613a0b565b6115c960ca8460ff851684612486565b7f3cdb3b7fee8bd4227020e3bde799a81de9023d479ba5c7825521fd3b8242af468383836040516115fc939291906137be565b60405180910390a1505050565b6001600160a01b039182166000908152606a6020908152604080832093909416825291909152205460ff1690565b33611640611091565b6001600160a01b0316146116665760405162461bcd60e51b81526004016107b190613a0b565b6001600160a01b0381166116cb5760405162461bcd60e51b815260206004820152602660248201527f4f776e61626c653a206e6577206f776e657220697320746865207a65726f206160448201526564647265737360d01b60648201526084016107b1565b610d428161217d565b60006001600160e01b031982166380ac58cd60e01b148061170557506001600160e01b03198216635b5e139f60e01b145b806106b157506301ffc9a760e01b6001600160e01b03198316146106b1565b6000908152606760205260409020546001600160a01b0316151590565b600081815260696020526040902080546001600160a01b0319166001600160a01b038416908117909155819061177682610db2565b6001600160a01b03167f8c5be1e5ebec7d5bd14f71427d1e84f3dd0314c0f7b2291e5b200ac8c7c3b92560405160405180910390a45050565b6000336117ba611091565b6001600160a01b031614156117cf5750600190565b6000805260cf6020527fe02c59459e6ae69bba35526a32783b104c6119df0d640a9ac4990ec2f8d493a95460ff16156118085750600190565b5033600090815260cf602052604090205460ff1690565b60008061182b60cd5490565b90506000600184518361183e9190613b6a565b6118489190613bb5565b905060cc546000148061185d575060cc548111155b6118945760405162461bcd60e51b815260206004820152600860248201526714dbdb19081bdd5d60c21b60448201526064016107b1565b8061189e60cd5490565b116118f4576118e184836118b160cd5490565b6118bb9190613bb5565b815181106118cb576118cb613c8e565b60200260200101516118dc60cd5490565b6125bc565b6118ef60cd80546001019055565b611894565b60cd54949350505050565b600054610100900460ff1680611918575060005460ff16155b6119345760405162461bcd60e51b81526004016107b190613978565b600054610100900460ff16158015611956576000805461ffff19166101011790555b61195e6126dd565b6119666126dd565b6119708383612747565b80156108e2576000805461ff0019169055505050565b600054610100900460ff168061199f575060005460ff16155b6119bb5760405162461bcd60e51b81526004016107b190613978565b600054610100900460ff161580156119dd576000805461ffff19166101011790555b6119e56126dd565b6119ed6127dc565b8015610d42576000805461ff001916905550565b6000611a10826020015161283c565b90508260010181604051611a2491906135b3565b9081526040519081900360200190205415611a9d5760405162461bcd60e51b815260206004820152603360248201527f2356657273696f6e733a20412076657273696f6e20776974682074686174206c6044820152726162656c20616c72656164792065786973747360681b60648201526084016107b1565b825460018101845560008481526020908190208351611ac3939190910191840190612d12565b5060005b825151811015611b5f578360010182604051611ae391906135b3565b9081526040519081900360200190208351805183908110611b0657611b06613c8e565b602090810291909101810151825460018101845560009384529282902081518051929460020290910192611b3f92849290910190612d12565b506020820151816001015550508080611b5790613c33565b915050611ac7565b5081602001518360010182604051611b7791906135b3565b908152602001604051809103902060010190600361142c929190612d96565b6000611ba182611724565b611c025760405162461bcd60e51b815260206004820152602c60248201527f4552433732313a206f70657261746f7220717565727920666f72206e6f6e657860448201526b34b9ba32b73a103a37b5b2b760a11b60648201526084016107b1565b6000611c0d83610db2565b9050806001600160a01b0316846001600160a01b03161480611c485750836001600160a01b0316611c3d84610749565b6001600160a01b0316145b806113f257506113f28185611609565b826001600160a01b0316611c6b82610db2565b6001600160a01b031614611cd35760405162461bcd60e51b815260206004820152602960248201527f4552433732313a207472616e73666572206f6620746f6b656e2074686174206960448201526839903737ba1037bbb760b91b60648201526084016107b1565b6001600160a01b038216611d355760405162461bcd60e51b8152602060048201526024808201527f4552433732313a207472616e7366657220746f20746865207a65726f206164646044820152637265737360e01b60648201526084016107b1565b611d40600082611741565b6001600160a01b0383166000908152606860205260408120805460019290611d69908490613bb5565b90915550506001600160a01b0382166000908152606860205260408120805460019290611d97908490613b6a565b909155505060008181526067602052604080822080546001600160a01b0319166001600160a01b038681169182179092559151849391871691600080516020613cd183398151915291a4505050565b611dee612e24565b8154611e3c5760405162461bcd60e51b815260206004820152601c60248201527f2356657273696f6e733a204e6f2076657273696f6e732065786973740000000060448201526064016107b1565b81546001808401918491611e4f91613bb5565b81548110611e5f57611e5f613c8e565b90600052602060002001604051611e769190613629565b908152604080519182900360209081018320805460609281028501830184529284018381529092849284919060009085015b82821015611f765783829060005260206000209060020201604051806040016040529081600082018054611edb90613bf8565b80601f0160208091040260200160405190810160405280929190818152602001828054611f0790613bf8565b8015611f545780601f10611f2957610100808354040283529160200191611f54565b820191906000526020600020905b815481529060010190602001808311611f3757829003601f168201915b5050505050815260200160018201548152505081526020019060010190611ea8565b50505090825250604080516060810191829052602090920191906001840190600390826000855b825461010083900a900460ff16815260206001928301818104948501949093039092029101808411611f9d5790505050505050815250509050919050565b8047101561202b5760405162461bcd60e51b815260206004820152601d60248201527f416464726573733a20696e73756666696369656e742062616c616e636500000060448201526064016107b1565b6000826001600160a01b03168260405160006040518083038185875af1925050503d8060008114612078576040519150601f19603f3d011682016040523d82523d6000602084013e61207d565b606091505b50509050806108e25760405162461bcd60e51b815260206004820152603a60248201527f416464726573733a20756e61626c6520746f2073656e642076616c75652c207260448201527f6563697069656e74206d6179206861766520726576657274656400000000000060648201526084016107b1565b60006120ff82610db2565b905061210c600083611741565b6001600160a01b0381166000908152606860205260408120805460019290612135908490613bb5565b909155505060008281526067602052604080822080546001600160a01b0319169055518391906001600160a01b03841690600080516020613cd1833981519152908390a45050565b609780546001600160a01b038381166001600160a01b0319831681179093556040519116919082907f8be0079c531659141344cd1fd0a4f28419497f9722a3daafe3b4186f6b6457e090600090a35050565b6121d7612e24565b6000836001016121e68461283c565b6040516121f391906135b3565b908152604080519182900360209081018320805460609281028501830184529284018381529092849284919060009085015b828210156122f3578382906000526020600020906002020160405180604001604052908160008201805461225890613bf8565b80601f016020809104026020016040519081016040528092919081815260200182805461228490613bf8565b80156122d15780601f106122a6576101008083540402835291602001916122d1565b820191906000526020600020905b8154815290600101906020018083116122b457829003601f168201915b5050505050815260200160018201548152505081526020019060010190612225565b50505090825250604080516060810191829052602090920191906001840190600390826000855b825461010083900a900460ff1681526020600192830181810494850194909303909202910180841161231a579050505050919092525050815151919250506111f35760405162461bcd60e51b81526004016107b1906139c6565b61237f848484611c58565b61238b84848484612890565b61142c5760405162461bcd60e51b81526004016107b190613904565b60606106b18283600001805480602002602001604051908101604052809291908181526020016000905b8282101561247d5783829060005260206000200180546123f090613bf8565b80601f016020809104026020016040519081016040528092919081815260200182805461241c90613bf8565b80156124695780601f1061243e57610100808354040283529160200191612469565b820191906000526020600020905b81548152906001019060200180831161244c57829003601f168201915b5050505050815260200190600101906123d1565b5050505061299d565b60006124918461283c565b905084600101816040516124a591906135b3565b908152604051908190036020019020546124d15760405162461bcd60e51b81526004016107b1906139c6565b8285600101826040516124e491906135b3565b908152604051908190036020019020541161255b5760405162461bcd60e51b815260206004820152603160248201527f2356657273696f6e733a205468652075726c20646f6573206e6f7420657869736044820152703a1037b7103a3430ba103b32b939b4b7b760791b60648201526084016107b1565b81856001018260405161256e91906135b3565b9081526020016040518091039020600001848154811061259057612590613c8e565b906000526020600020906002020160000190805190602001906125b4929190612d12565b505050505050565b6001600160a01b0382166126125760405162461bcd60e51b815260206004820181905260248201527f4552433732313a206d696e7420746f20746865207a65726f206164647265737360448201526064016107b1565b61261b81611724565b156126685760405162461bcd60e51b815260206004820152601c60248201527f4552433732313a20746f6b656e20616c7265616479206d696e7465640000000060448201526064016107b1565b6001600160a01b0382166000908152606860205260408120805460019290612691908490613b6a565b909155505060008181526067602052604080822080546001600160a01b0319166001600160a01b0386169081179091559051839290600080516020613cd1833981519152908290a45050565b600054610100900460ff16806126f6575060005460ff16155b6127125760405162461bcd60e51b81526004016107b190613978565b600054610100900460ff161580156119ed576000805461ffff19166101011790558015610d42576000805461ff001916905550565b600054610100900460ff1680612760575060005460ff16155b61277c5760405162461bcd60e51b81526004016107b190613978565b600054610100900460ff1615801561279e576000805461ffff19166101011790555b82516127b1906065906020860190612d12565b5081516127c5906066906020850190612d12565b5080156108e2576000805461ff0019169055505050565b600054610100900460ff16806127f5575060005460ff16155b6128115760405162461bcd60e51b81526004016107b190613978565b600054610100900460ff16158015612833576000805461ffff19166101011790555b6119ed3361217d565b60606128528260005b602002015160ff16612c15565b61285d836001612845565b612868846002612845565b60405160200161287a939291906135cf565b6040516020818303038152906040529050919050565b60006001600160a01b0384163b1561299257604051630a85bd0160e11b81526001600160a01b0385169063150b7a02906128d490339089908890889060040161369b565b602060405180830381600087803b1580156128ee57600080fd5b505af192505050801561291e575060408051601f3d908101601f1916820190925261291b918101906133f8565b60015b612978573d80801561294c576040519150601f19603f3d011682016040523d82523d6000602084013e612951565b606091505b5080516129705760405162461bcd60e51b81526004016107b190613904565b805181602001fd5b6001600160e01b031916630a85bd0160e11b1490506113f2565b506001949350505050565b60608151600014156129f15760405162461bcd60e51b815260206004820152601d60248201527f2356657273696f6e733a204e6f206c6162656c732070726f766964656400000060448201526064016107b1565b600082516001600160401b03811115612a0c57612a0c613ca4565b604051908082528060200260200182016040528015612a4557816020015b612a32612e24565b815260200190600190039081612a2a5790505b50905060005b8351811015612c0d5784600101848281518110612a6a57612a6a613c8e565b6020026020010151604051612a7f91906135b3565b908152604080519182900360209081018320805460609281028501830184529284018381529092849284919060009085015b82821015612b7f5783829060005260206000209060020201604051806040016040529081600082018054612ae490613bf8565b80601f0160208091040260200160405190810160405280929190818152602001828054612b1090613bf8565b8015612b5d5780601f10612b3257610100808354040283529160200191612b5d565b820191906000526020600020905b815481529060010190602001808311612b4057829003601f168201915b5050505050815260200160018201548152505081526020019060010190612ab1565b50505090825250604080516060810191829052602090920191906001840190600390826000855b825461010083900a900460ff16815260206001928301818104948501949093039092029101808411612ba6579050505050505081525050828281518110612bef57612bef613c8e565b60200260200101819052508080612c0590613c33565b915050612a4b565b509392505050565b606081612c395750506040805180820190915260018152600360fc1b602082015290565b8160005b8115612c635780612c4d81613c33565b9150612c5c9050600a83613b82565b9150612c3d565b6000816001600160401b03811115612c7d57612c7d613ca4565b6040519080825280601f01601f191660200182016040528015612ca7576020820181803683370190505b5090505b84156113f257612cbc600183613bb5565b9150612cc9600a86613c4e565b612cd4906030613b6a565b60f81b818381518110612ce957612ce9613c8e565b60200101906001600160f81b031916908160001a905350612d0b600a86613b82565b9450612cab565b828054612d1e90613bf8565b90600052602060002090601f016020900481019282612d405760008555612d86565b82601f10612d5957805160ff1916838001178555612d86565b82800160010185558215612d86579182015b82811115612d86578251825591602001919060010190612d6b565b50612d92929150612e43565b5090565b600183019183908215612d865791602002820160005b83821115612dea57835183826101000a81548160ff021916908360ff1602179055509260200192600101602081600001049283019260010302612dac565b8015612e175782816101000a81549060ff0219169055600101602081600001049283019260010302612dea565b5050612d92929150612e43565b604051806040016040528060608152602001612e3e612e58565b905290565b5b80821115612d925760008155600101612e44565b60405180606001604052806003906020820280368337509192915050565b6000612e89612e8484613b43565b613af0565b9050828152838383011115612e9d57600080fd5b828260208301376000602084830101529392505050565b80356001600160a01b0381168114612ecb57600080fd5b919050565b600082601f830112612ee157600080fd5b604051606081018181106001600160401b0382111715612f0357612f03613ca4565b604052808360608101861015612f1857600080fd5b60005b6003811015612f4257612f2d82613077565b83526020928301929190910190600101612f1b565b509195945050505050565b600082601f830112612f5e57600080fd5b6111f383833560208501612e76565b600060808284031215612f7f57600080fd5b612f87613ac8565b905081356001600160401b0380821115612fa057600080fd5b818401915084601f830112612fb457600080fd5b81356020612fc4612e8483613b20565b80838252828201915082860189848660051b8901011115612fe457600080fd5b60005b8581101561305857813587811115612ffe57600080fd5b88016040818d03601f190181131561301557600080fd5b61301d613ac8565b878301358a81111561302e57600080fd5b61303c8f8a83870101612f4d565b8252509101358682015284529284019290840190600101612fe7565b505086525061306987878301612ed0565b818601525050505092915050565b803560ff81168114612ecb57600080fd5b60006020828403121561309a57600080fd5b6111f382612eb4565b600080604083850312156130b657600080fd5b6130bf83612eb4565b91506130cd60208401612eb4565b90509250929050565b6000806000606084860312156130eb57600080fd5b6130f484612eb4565b925061310260208501612eb4565b9150604084013590509250925092565b6000806000806080858703121561312857600080fd5b61313185612eb4565b935061313f60208601612eb4565b92506040850135915060608501356001600160401b0381111561316157600080fd5b8501601f8101871361317257600080fd5b61318187823560208401612e76565b91505092959194509250565b600080604083850312156131a057600080fd5b6131a983612eb4565b9150602083013580151581146131be57600080fd5b809150509250929050565b600080600080600080600060e0888a0312156131e457600080fd5b6131ed88612eb4565b965060208801356001600160401b038082111561320957600080fd5b6132158b838c01612f4d565b975060408a013591508082111561322b57600080fd5b6132378b838c01612f4d565b965060608a013591508082111561324d57600080fd5b6132598b838c01612f4d565b955060808a013591508082111561326f57600080fd5b5061327c8a828b01612f6d565b93505060a0880135915060c0880135905092959891949750929550565b600080604083850312156132ac57600080fd5b6132b583612eb4565b946020939093013593505050565b600060208083850312156132d657600080fd5b82356001600160401b038111156132ec57600080fd5b8301601f810185136132fd57600080fd5b803561330b612e8482613b20565b80828252848201915084840188868560051b870101111561332b57600080fd5b600094505b838510156133555761334181612eb4565b835260019490940193918501918501613330565b50979650505050505050565b60006060828403121561337357600080fd5b6111f38383612ed0565b600080600060a0848603121561339257600080fd5b61339c8585612ed0565b92506133aa60608501613077565b915060808401356001600160401b038111156133c557600080fd5b6133d186828701612f4d565b9150509250925092565b6000602082840312156133ed57600080fd5b81356111f381613cba565b60006020828403121561340a57600080fd5b81516111f381613cba565b60006020828403121561342757600080fd5b81516001600160401b0381111561343d57600080fd5b8201601f8101841361344e57600080fd5b805161345c612e8482613b43565b81815285602083850101111561347157600080fd5b613482826020830160208601613bcc565b95945050505050565b60006020828403121561349d57600080fd5b81356001600160401b038111156134b357600080fd5b6113f284828501612f6d565b6000602082840312156134d157600080fd5b5035919050565b600080608083850312156134eb57600080fd5b823591506130cd8460208501612ed0565b6000806040838503121561350f57600080fd5b50508035926020909101359150565b8060005b600381101561142c57815160ff16845260209384019390910190600101613522565b6000815180845261355c816020860160208601613bcc565b601f01601f19169290920160200192915050565b6000815160a0845261358560a0850182613544565b90506020830151848203602086015261359e8282613544565b9150506040830151612c0d604086018261351e565b600082516135c5818460208701613bcc565b9190910192915050565b600084516135e1818460208901613bcc565b8083019050601760f91b8082528551613601816001850160208a01613bcc565b6001920191820152835161361c816002840160208801613bcc565b0160020195945050505050565b600080835461363781613bf8565b6001828116801561364f57600181146136605761368f565b60ff1984168752828701945061368f565b8760005260208060002060005b858110156136865781548a82015290840190820161366d565b50505082870194505b50929695505050505050565b6001600160a01b03858116825284166020820152604081018390526080606082018190526000906136ce90830184613544565b9695505050505050565b60006020808301818452808551808352604092508286019150828160051b87010184880160005b838110156137a257888303603f19018552815180516080808652815190860181905260a080870192600583901b880190910191908b019060005b8181101561377a57888403609f19018552825180518d865261375d8e870182613544565b918f0151958f0195909552948d01949350918c0191600101613739565b505050918901519161378e868b018461351e565b9689019694505050908601906001016136ff565b509098975050505050505050565b606081016106b1828461351e565b6137c8818561351e565b60ff8316606082015260a06080820152600061348260a0830184613544565b6020815260006111f36020830184613544565b60808152600061380d6080830187613544565b85602084015282810360408401526138258186613544565b91505082606083015295945050505050565b60c08152600061384a60c0830189613544565b6020838203818501526000895461386081613bf8565b8085526001828116801561387b576001811461388f576138bd565b60ff198416878701526040870194506138bd565b8d6000528560002060005b848110156138b557815489820189015290830190870161389a565b880187019550505b5050505084810360408601526138d3818a613570565b93505050508460608301528360808301526138f960a08301846001600160a01b03169052565b979650505050505050565b60208082526032908201527f4552433732313a207472616e7366657220746f206e6f6e20455243373231526560408201527131b2b4bb32b91034b6b83632b6b2b73a32b960711b606082015260800190565b6020808252600890820152672737903a37b5b2b760c11b604082015260600190565b6020808252602e908201527f496e697469616c697a61626c653a20636f6e747261637420697320616c72656160408201526d191e481a5b9a5d1a585b1a5e995960921b606082015260800190565b60208082526025908201527f2356657273696f6e733a205468652076657273696f6e20646f6573206e6f7420604082015264195e1a5cdd60da1b606082015260800190565b6020808252818101527f4f776e61626c653a2063616c6c6572206973206e6f7420746865206f776e6572604082015260600190565b6020808252601d908201527f4e6565647320746f20626520616e20616c6c6f776564206d696e746572000000604082015260600190565b60208082526031908201527f4552433732313a207472616e736665722063616c6c6572206973206e6f74206f6040820152701ddb995c881b9bdc88185c1c1c9bdd9959607a1b606082015260800190565b604080519081016001600160401b0381118282101715613aea57613aea613ca4565b60405290565b604051601f8201601f191681016001600160401b0381118282101715613b1857613b18613ca4565b604052919050565b60006001600160401b03821115613b3957613b39613ca4565b5060051b60200190565b60006001600160401b03821115613b5c57613b5c613ca4565b50601f01601f191660200190565b60008219821115613b7d57613b7d613c62565b500190565b600082613b9157613b91613c78565b500490565b6000816000190483118215151615613bb057613bb0613c62565b500290565b600082821015613bc757613bc7613c62565b500390565b60005b83811015613be7578181015183820152602001613bcf565b8381111561142c5750506000910152565b600181811c90821680613c0c57607f821691505b60208210811415613c2d57634e487b7160e01b600052602260045260246000fd5b50919050565b6000600019821415613c4757613c47613c62565b5060010190565b600082613c5d57613c5d613c78565b500690565b634e487b7160e01b600052601160045260246000fd5b634e487b7160e01b600052601260045260246000fd5b634e487b7160e01b600052603260045260246000fd5b634e487b7160e01b600052604160045260246000fd5b6001600160e01b031981168114610d4257600080fdfeddf252ad1be2c89b69c2b068fc378daa952ba7f163c4a11628f55a4df523b3efa264697066735822122046ccaf9934c796d2aa2cf6313ebf7640189367aee96ee545c8c0eea3a669a90c64736f6c63430008060033",
  "devdoc": {
    "author": "iain nash Repository: https://github.com/ourzora/nft-editions",
    "details": "This allows creators to mint a unique serial edition of the same media within a custom contract",
    "kind": "dev",
    "methods": {
      "addVersion(((string,bytes32)[],uint8[3]))": {
        "details": "Adds new version of the media updating the urls rendered in the metadata. The order added determins order stored, the label has no effect.",
        "params": {
          "_version": "The version to be added consisting of urls, hashes and a label"
        }
      },
      "approve(address,uint256)": {
        "details": "See {IERC721-approve}."
      },
      "balanceOf(address)": {
        "details": "See {IERC721-balanceOf}."
      },
      "burn(uint256)": {
        "params": {
          "tokenId": "Token ID to burn User burn function for token id"
        }
      },
      "getApproved(uint256)": {
        "details": "See {IERC721-getApproved}."
      },
      "getURIs()": {
        "details": "Get URIs for edition NFT Will get URIs from the last version added",
        "returns": {
          "_0": "imageUrl, imageHash, animationUrl, animationHash"
        }
      },
      "getURIsOfVersion(uint8[3])": {
        "details": "Get URIs for edition NFT of a version Will get URIs from the last version added",
        "params": {
          "label": "The label of the version"
        },
        "returns": {
          "_0": "imageUrl, imageHash, animationUrl, animationHash"
        }
      },
      "initialize(address,string,string,string,((string,bytes32)[],uint8[3]),uint256,uint256)": {
        "details": "Function to create a new edition. Can only be called by the allowed creator Sets the only allowed minter to the address that creates/owns the edition. This can be re-assigned or updated later",
        "params": {
          "_description": "Description of edition, used in the description field of the NFT",
          "_editionSize": "Number of editions that can be minted in total. If 0, unlimited editions can be minted.",
          "_name": "Name of edition, used in the title as \"$NAME NUMBER/TOTAL\"",
          "_owner": "User that owns and can mint the edition, gets royalty and sales payouts and can update the base url if needed.",
          "_royaltyBPS": "BPS of the royalty set on the contract. Can be 0 for no royalty.",
          "_symbol": "Symbol of the new token contract",
          "_version": "Version of the media consisting of urls and hashes of animation and image content"
        }
      },
      "isApprovedForAll(address,address)": {
        "details": "See {IERC721-isApprovedForAll}."
      },
      "mintEdition(address)": {
        "details": "This mints one edition to the given address by an allowed minter on the edition instance.",
        "params": {
          "to": "address to send the newly minted edition to"
        }
      },
      "mintEditions(address[])": {
        "details": "This mints multiple editions to the given list of addresses.",
        "params": {
          "recipients": "list of addresses to send the newly minted editions to"
        }
      },
      "name()": {
        "details": "See {IERC721Metadata-name}."
      },
      "ownerOf(uint256)": {
        "details": "See {IERC721-ownerOf}."
      },
      "purchase()": {
        "details": "This allows the user to purchase a edition edition at the given price in the contract."
      },
      "renounceOwnership()": {
        "details": "Leaves the contract without owner. It will not be possible to call `onlyOwner` functions anymore. Can only be called by the current owner. NOTE: Renouncing ownership will leave the contract without an owner, thereby removing any functionality that is only available to the owner."
      },
      "royaltyInfo(uint256,uint256)": {
        "details": "Get royalty information for token",
        "params": {
          "_salePrice": "Sale price for the token"
        }
      },
      "safeTransferFrom(address,address,uint256)": {
        "details": "See {IERC721-safeTransferFrom}."
      },
      "safeTransferFrom(address,address,uint256,bytes)": {
        "details": "See {IERC721-safeTransferFrom}."
      },
      "setApprovalForAll(address,bool)": {
        "details": "See {IERC721-setApprovalForAll}."
      },
      "setApprovedMinter(address,bool)": {
        "details": "Sets the approved minting status of the given address. This requires that msg.sender is the owner of the given edition id. If the ZeroAddress (address(0x0)) is set as a minter, anyone will be allowed to mint. This setup is similar to setApprovalForAll in the ERC721 spec.",
        "params": {
          "allowed": "boolean if that address is allowed to mint",
          "minter": "address to set approved minting status for"
        }
      },
      "setSalePrice(uint256)": {
        "details": "This sets a simple ETH sales price Setting a sales price allows users to mint the edition until it sells out. For more granular sales, use an external sales contract.",
        "params": {
          "_salePrice": "if sale price is 0 sale is stopped, otherwise that amount  of ETH is needed to start the sale."
        }
      },
      "symbol()": {
        "details": "See {IERC721Metadata-symbol}."
      },
      "tokenURI(uint256)": {
        "details": "Get URI for given token id Will get URIs from the last version added",
        "params": {
          "tokenId": "token id to get uri for"
        },
        "returns": {
          "_0": "base64-encoded json metadata object"
        }
      },
      "tokenURIOfVersion(uint256,uint8[3])": {
        "details": "Get URI for given token id of version",
        "params": {
          "label": "the label of the version",
          "tokenId": "token id to get uri for"
        },
        "returns": {
          "_0": "base64-encoded json metadata object"
        }
      },
      "totalSupply()": {
        "details": "returns the number of minted tokens within the edition"
      },
      "transferFrom(address,address,uint256)": {
        "details": "See {IERC721-transferFrom}."
      },
      "transferOwnership(address)": {
        "details": "Transfers ownership of the contract to a new account (`newOwner`). Can only be called by the current owner."
      },
      "updateVersionURL(uint8[3],uint8,string)": {
        "details": "Updates a url of specified version by the owner of the edition. Only URLs can be updated (data-uris are supported), hashes cannot be updated.",
        "params": {
          "_label": "The label of the specified version",
          "_url": "The url to be updated to",
          "_urlKey": "The index of the url to update 0=animation, 1=image"
        }
      },
      "withdraw()": {
        "details": "This withdraws ETH from the contract to the contract owner."
      }
    },
    "version": 1
  },
  "userdoc": {
    "kind": "user",
    "methods": {
      "numberCanMint()": {
        "notice": "Returns the number of editions allowed to mint (max_uint256 when open edition)"
      },
      "owner()": {
        "notice": "Simple override for owner interface."
      }
    },
    "notice": "This is a smart contract for handling dynamic contract minting. This is a fork of Zora NFT Editions changes: - Media urls are versioned allowing for updatable content preserving history - The NFT contract address is included in edition url query for easyier access to query the graph from within the NFT - SupportsInterface function includes IEditionSingleMintable",
    "version": 1
  },
  "storageLayout": {
    "storage": [
      {
        "astId": 232,
        "contract": "contracts/SingleEditionMintable.sol:SingleEditionMintable",
        "label": "_initialized",
        "offset": 0,
        "slot": "0",
        "type": "t_bool"
      },
      {
        "astId": 235,
        "contract": "contracts/SingleEditionMintable.sol:SingleEditionMintable",
        "label": "_initializing",
        "offset": 1,
        "slot": "0",
        "type": "t_bool"
      },
      {
        "astId": 1567,
        "contract": "contracts/SingleEditionMintable.sol:SingleEditionMintable",
        "label": "__gap",
        "offset": 0,
        "slot": "1",
        "type": "t_array(t_uint256)50_storage"
      },
      {
        "astId": 1890,
        "contract": "contracts/SingleEditionMintable.sol:SingleEditionMintable",
        "label": "__gap",
        "offset": 0,
        "slot": "51",
        "type": "t_array(t_uint256)50_storage"
      },
      {
        "astId": 301,
        "contract": "contracts/SingleEditionMintable.sol:SingleEditionMintable",
        "label": "_name",
        "offset": 0,
        "slot": "101",
        "type": "t_string_storage"
      },
      {
        "astId": 303,
        "contract": "contracts/SingleEditionMintable.sol:SingleEditionMintable",
        "label": "_symbol",
        "offset": 0,
        "slot": "102",
        "type": "t_string_storage"
      },
      {
        "astId": 307,
        "contract": "contracts/SingleEditionMintable.sol:SingleEditionMintable",
        "label": "_owners",
        "offset": 0,
        "slot": "103",
        "type": "t_mapping(t_uint256,t_address)"
      },
      {
        "astId": 311,
        "contract": "contracts/SingleEditionMintable.sol:SingleEditionMintable",
        "label": "_balances",
        "offset": 0,
        "slot": "104",
        "type": "t_mapping(t_address,t_uint256)"
      },
      {
        "astId": 315,
        "contract": "contracts/SingleEditionMintable.sol:SingleEditionMintable",
        "label": "_tokenApprovals",
        "offset": 0,
        "slot": "105",
        "type": "t_mapping(t_uint256,t_address)"
      },
      {
        "astId": 321,
        "contract": "contracts/SingleEditionMintable.sol:SingleEditionMintable",
        "label": "_operatorApprovals",
        "offset": 0,
        "slot": "106",
        "type": "t_mapping(t_address,t_mapping(t_address,t_bool))"
      },
      {
        "astId": 1117,
        "contract": "contracts/SingleEditionMintable.sol:SingleEditionMintable",
        "label": "__gap",
        "offset": 0,
        "slot": "107",
        "type": "t_array(t_uint256)44_storage"
      },
      {
        "astId": 10,
        "contract": "contracts/SingleEditionMintable.sol:SingleEditionMintable",
        "label": "_owner",
        "offset": 0,
        "slot": "151",
        "type": "t_address"
      },
      {
        "astId": 123,
        "contract": "contracts/SingleEditionMintable.sol:SingleEditionMintable",
        "label": "__gap",
        "offset": 0,
        "slot": "152",
        "type": "t_array(t_uint256)49_storage"
      },
      {
        "astId": 3705,
        "contract": "contracts/SingleEditionMintable.sol:SingleEditionMintable",
        "label": "description",
        "offset": 0,
        "slot": "201",
        "type": "t_string_storage"
      },
      {
        "astId": 3711,
        "contract": "contracts/SingleEditionMintable.sol:SingleEditionMintable",
        "label": "versions",
        "offset": 0,
        "slot": "202",
        "type": "t_struct(Set)4791_storage"
      },
      {
        "astId": 3713,
        "contract": "contracts/SingleEditionMintable.sol:SingleEditionMintable",
        "label": "editionSize",
        "offset": 0,
        "slot": "204",
        "type": "t_uint256"
      },
      {
        "astId": 3716,
        "contract": "contracts/SingleEditionMintable.sol:SingleEditionMintable",
        "label": "atEditionId",
        "offset": 0,
        "slot": "205",
        "type": "t_struct(Counter)1574_storage"
      },
      {
        "astId": 3718,
        "contract": "contracts/SingleEditionMintable.sol:SingleEditionMintable",
        "label": "royaltyBPS",
        "offset": 0,
        "slot": "206",
        "type": "t_uint256"
      },
      {
        "astId": 3722,
        "contract": "contracts/SingleEditionMintable.sol:SingleEditionMintable",
        "label": "allowedMinters",
        "offset": 0,
        "slot": "207",
        "type": "t_mapping(t_address,t_bool)"
      },
      {
        "astId": 3724,
        "contract": "contracts/SingleEditionMintable.sol:SingleEditionMintable",
        "label": "salePrice",
        "offset": 0,
        "slot": "208",
        "type": "t_uint256"
      }
    ],
    "types": {
      "t_address": {
        "encoding": "inplace",
        "label": "address",
        "numberOfBytes": "20"
      },
      "t_array(t_string_storage)dyn_storage": {
        "base": "t_string_storage",
        "encoding": "dynamic_array",
        "label": "string[]",
        "numberOfBytes": "32"
      },
      "t_array(t_struct(UrlWithHash)4773_storage)dyn_storage": {
        "base": "t_struct(UrlWithHash)4773_storage",
        "encoding": "dynamic_array",
        "label": "struct Versions.UrlWithHash[]",
        "numberOfBytes": "32"
      },
      "t_array(t_uint256)44_storage": {
        "base": "t_uint256",
        "encoding": "inplace",
        "label": "uint256[44]",
        "numberOfBytes": "1408"
      },
      "t_array(t_uint256)49_storage": {
        "base": "t_uint256",
        "encoding": "inplace",
        "label": "uint256[49]",
        "numberOfBytes": "1568"
      },
      "t_array(t_uint256)50_storage": {
        "base": "t_uint256",
        "encoding": "inplace",
        "label": "uint256[50]",
        "numberOfBytes": "1600"
      },
      "t_array(t_uint8)3_storage": {
        "base": "t_uint8",
        "encoding": "inplace",
        "label": "uint8[3]",
        "numberOfBytes": "32"
      },
      "t_bool": {
        "encoding": "inplace",
        "label": "bool",
        "numberOfBytes": "1"
      },
      "t_bytes32": {
        "encoding": "inplace",
        "label": "bytes32",
        "numberOfBytes": "32"
      },
      "t_mapping(t_address,t_bool)": {
        "encoding": "mapping",
        "key": "t_address",
        "label": "mapping(address => bool)",
        "numberOfBytes": "32",
        "value": "t_bool"
      },
      "t_mapping(t_address,t_mapping(t_address,t_bool))": {
        "encoding": "mapping",
        "key": "t_address",
        "label": "mapping(address => mapping(address => bool))",
        "numberOfBytes": "32",
        "value": "t_mapping(t_address,t_bool)"
      },
      "t_mapping(t_address,t_uint256)": {
        "encoding": "mapping",
        "key": "t_address",
        "label": "mapping(address => uint256)",
        "numberOfBytes": "32",
        "value": "t_uint256"
      },
      "t_mapping(t_string_memory_ptr,t_struct(Version)4782_storage)": {
        "encoding": "mapping",
        "key": "t_string_memory_ptr",
        "label": "mapping(string => struct Versions.Version)",
        "numberOfBytes": "32",
        "value": "t_struct(Version)4782_storage"
      },
      "t_mapping(t_uint256,t_address)": {
        "encoding": "mapping",
        "key": "t_uint256",
        "label": "mapping(uint256 => address)",
        "numberOfBytes": "32",
        "value": "t_address"
      },
      "t_string_memory_ptr": {
        "encoding": "bytes",
        "label": "string",
        "numberOfBytes": "32"
      },
      "t_string_storage": {
        "encoding": "bytes",
        "label": "string",
        "numberOfBytes": "32"
      },
      "t_struct(Counter)1574_storage": {
        "encoding": "inplace",
        "label": "struct CountersUpgradeable.Counter",
        "members": [
          {
            "astId": 1573,
            "contract": "contracts/SingleEditionMintable.sol:SingleEditionMintable",
            "label": "_value",
            "offset": 0,
            "slot": "0",
            "type": "t_uint256"
          }
        ],
        "numberOfBytes": "32"
      },
      "t_struct(Set)4791_storage": {
        "encoding": "inplace",
        "label": "struct Versions.Set",
        "members": [
          {
            "astId": 4785,
            "contract": "contracts/SingleEditionMintable.sol:SingleEditionMintable",
            "label": "labels",
            "offset": 0,
            "slot": "0",
            "type": "t_array(t_string_storage)dyn_storage"
          },
          {
            "astId": 4790,
            "contract": "contracts/SingleEditionMintable.sol:SingleEditionMintable",
            "label": "versions",
            "offset": 0,
            "slot": "1",
            "type": "t_mapping(t_string_memory_ptr,t_struct(Version)4782_storage)"
          }
        ],
        "numberOfBytes": "64"
      },
      "t_struct(UrlWithHash)4773_storage": {
        "encoding": "inplace",
        "label": "struct Versions.UrlWithHash",
        "members": [
          {
            "astId": 4770,
            "contract": "contracts/SingleEditionMintable.sol:SingleEditionMintable",
            "label": "url",
            "offset": 0,
            "slot": "0",
            "type": "t_string_storage"
          },
          {
            "astId": 4772,
            "contract": "contracts/SingleEditionMintable.sol:SingleEditionMintable",
            "label": "sha256hash",
            "offset": 0,
            "slot": "1",
            "type": "t_bytes32"
          }
        ],
        "numberOfBytes": "64"
      },
      "t_struct(Version)4782_storage": {
        "encoding": "inplace",
        "label": "struct Versions.Version",
        "members": [
          {
            "astId": 4777,
            "contract": "contracts/SingleEditionMintable.sol:SingleEditionMintable",
            "label": "urls",
            "offset": 0,
            "slot": "0",
            "type": "t_array(t_struct(UrlWithHash)4773_storage)dyn_storage"
          },
          {
            "astId": 4781,
            "contract": "contracts/SingleEditionMintable.sol:SingleEditionMintable",
            "label": "label",
            "offset": 0,
            "slot": "1",
            "type": "t_array(t_uint8)3_storage"
          }
        ],
        "numberOfBytes": "64"
      },
      "t_uint256": {
        "encoding": "inplace",
        "label": "uint256",
        "numberOfBytes": "32"
      },
      "t_uint8": {
        "encoding": "inplace",
        "label": "uint8",
        "numberOfBytes": "1"
      }
    }
  }
}